{
	"contracts/token.sol": {
		"CPToken": {
			"abi": [
				{
					"inputs": [],
					"stateMutability": "nonpayable",
					"type": "constructor"
				},
				{
					"anonymous": false,
					"inputs": [
						{
							"indexed": true,
							"internalType": "address",
							"name": "tokenOwner",
							"type": "address"
						},
						{
							"indexed": true,
							"internalType": "address",
							"name": "spender",
							"type": "address"
						},
						{
							"indexed": false,
							"internalType": "uint256",
							"name": "tokens",
							"type": "uint256"
						}
					],
					"name": "Approval",
					"type": "event"
				},
				{
					"anonymous": false,
					"inputs": [
						{
							"indexed": true,
							"internalType": "address",
							"name": "from",
							"type": "address"
						},
						{
							"indexed": true,
							"internalType": "address",
							"name": "to",
							"type": "address"
						},
						{
							"indexed": false,
							"internalType": "uint256",
							"name": "tokens",
							"type": "uint256"
						}
					],
					"name": "Transfer",
					"type": "event"
				},
				{
					"stateMutability": "payable",
					"type": "fallback"
				},
				{
					"inputs": [],
					"name": "_totalSupply",
					"outputs": [
						{
							"internalType": "uint256",
							"name": "",
							"type": "uint256"
						}
					],
					"stateMutability": "view",
					"type": "function"
				},
				{
					"inputs": [
						{
							"internalType": "address",
							"name": "tokenOwner",
							"type": "address"
						},
						{
							"internalType": "address",
							"name": "spender",
							"type": "address"
						}
					],
					"name": "allowance",
					"outputs": [
						{
							"internalType": "uint256",
							"name": "remaining",
							"type": "uint256"
						}
					],
					"stateMutability": "view",
					"type": "function"
				},
				{
					"inputs": [
						{
							"internalType": "address",
							"name": "spender",
							"type": "address"
						},
						{
							"internalType": "uint256",
							"name": "tokens",
							"type": "uint256"
						}
					],
					"name": "approve",
					"outputs": [
						{
							"internalType": "bool",
							"name": "success",
							"type": "bool"
						}
					],
					"stateMutability": "nonpayable",
					"type": "function"
				},
				{
					"inputs": [
						{
							"internalType": "address",
							"name": "spender",
							"type": "address"
						},
						{
							"internalType": "uint256",
							"name": "tokens",
							"type": "uint256"
						},
						{
							"internalType": "bytes",
							"name": "data",
							"type": "bytes"
						}
					],
					"name": "approveAndCall",
					"outputs": [
						{
							"internalType": "bool",
							"name": "success",
							"type": "bool"
						}
					],
					"stateMutability": "nonpayable",
					"type": "function"
				},
				{
					"inputs": [
						{
							"internalType": "address",
							"name": "tokenOwner",
							"type": "address"
						}
					],
					"name": "balanceOf",
					"outputs": [
						{
							"internalType": "uint256",
							"name": "balance",
							"type": "uint256"
						}
					],
					"stateMutability": "view",
					"type": "function"
				},
				{
					"inputs": [],
					"name": "decimals",
					"outputs": [
						{
							"internalType": "uint8",
							"name": "",
							"type": "uint8"
						}
					],
					"stateMutability": "view",
					"type": "function"
				},
				{
					"inputs": [],
					"name": "name",
					"outputs": [
						{
							"internalType": "string",
							"name": "",
							"type": "string"
						}
					],
					"stateMutability": "view",
					"type": "function"
				},
				{
					"inputs": [
						{
							"internalType": "uint256",
							"name": "a",
							"type": "uint256"
						},
						{
							"internalType": "uint256",
							"name": "b",
							"type": "uint256"
						}
					],
					"name": "safeAdd",
					"outputs": [
						{
							"internalType": "uint256",
							"name": "c",
							"type": "uint256"
						}
					],
					"stateMutability": "pure",
					"type": "function"
				},
				{
					"inputs": [
						{
							"internalType": "uint256",
							"name": "a",
							"type": "uint256"
						},
						{
							"internalType": "uint256",
							"name": "b",
							"type": "uint256"
						}
					],
					"name": "safeDiv",
					"outputs": [
						{
							"internalType": "uint256",
							"name": "c",
							"type": "uint256"
						}
					],
					"stateMutability": "pure",
					"type": "function"
				},
				{
					"inputs": [
						{
							"internalType": "uint256",
							"name": "a",
							"type": "uint256"
						},
						{
							"internalType": "uint256",
							"name": "b",
							"type": "uint256"
						}
					],
					"name": "safeMul",
					"outputs": [
						{
							"internalType": "uint256",
							"name": "c",
							"type": "uint256"
						}
					],
					"stateMutability": "pure",
					"type": "function"
				},
				{
					"inputs": [
						{
							"internalType": "uint256",
							"name": "a",
							"type": "uint256"
						},
						{
							"internalType": "uint256",
							"name": "b",
							"type": "uint256"
						}
					],
					"name": "safeSub",
					"outputs": [
						{
							"internalType": "uint256",
							"name": "c",
							"type": "uint256"
						}
					],
					"stateMutability": "pure",
					"type": "function"
				},
				{
					"inputs": [],
					"name": "symbol",
					"outputs": [
						{
							"internalType": "string",
							"name": "",
							"type": "string"
						}
					],
					"stateMutability": "view",
					"type": "function"
				},
				{
					"inputs": [],
					"name": "totalSupply",
					"outputs": [
						{
							"internalType": "uint256",
							"name": "",
							"type": "uint256"
						}
					],
					"stateMutability": "view",
					"type": "function"
				},
				{
					"inputs": [
						{
							"internalType": "address",
							"name": "to",
							"type": "address"
						},
						{
							"internalType": "uint256",
							"name": "tokens",
							"type": "uint256"
						}
					],
					"name": "transfer",
					"outputs": [
						{
							"internalType": "bool",
							"name": "success",
							"type": "bool"
						}
					],
					"stateMutability": "nonpayable",
					"type": "function"
				},
				{
					"inputs": [
						{
							"internalType": "address",
							"name": "from",
							"type": "address"
						},
						{
							"internalType": "address",
							"name": "to",
							"type": "address"
						},
						{
							"internalType": "uint256",
							"name": "tokens",
							"type": "uint256"
						}
					],
					"name": "transferFrom",
					"outputs": [
						{
							"internalType": "bool",
							"name": "success",
							"type": "bool"
						}
					],
					"stateMutability": "nonpayable",
					"type": "function"
				},
				{
					"stateMutability": "payable",
					"type": "receive"
				}
			],
			"devdoc": {
				"kind": "dev",
				"methods": {},
				"version": 1
			},
			"evm": {
				"assembly": "    /* \"contracts/token.sol\":1703:4226  contract CPToken is ERC20Interface, SafeMath {... */\n  mstore(0x40, 0x80)\n    /* \"contracts/token.sol\":1969:2269  constructor() {... */\n  callvalue\n  dup1\n  iszero\n  tag_1\n  jumpi\n  0x00\n  dup1\n  revert\ntag_1:\n  pop\n    /* \"contracts/token.sol\":1994:2007  symbol = \"CP\" */\n  mload(0x40)\n  dup1\n  0x40\n  add\n  0x40\n  mstore\n  dup1\n  0x02\n  dup2\n  mstore\n  0x20\n  add\n  0x4350000000000000000000000000000000000000000000000000000000000000\n  dup2\n  mstore\n  pop\n    /* \"contracts/token.sol\":1994:2000  symbol */\n  0x00\n    /* \"contracts/token.sol\":1994:2007  symbol = \"CP\" */\n  swap1\n  dup2\n  tag_4\n  swap2\n  swap1\n  tag_5\n  jump\t// in\ntag_4:\n  pop\n    /* \"contracts/token.sol\":2018:2034  name = \"CP Coin\" */\n  mload(0x40)\n  dup1\n  0x40\n  add\n  0x40\n  mstore\n  dup1\n  0x07\n  dup2\n  mstore\n  0x20\n  add\n  0x435020436f696e00000000000000000000000000000000000000000000000000\n  dup2\n  mstore\n  pop\n    /* \"contracts/token.sol\":2018:2022  name */\n  0x01\n    /* \"contracts/token.sol\":2018:2034  name = \"CP Coin\" */\n  swap1\n  dup2\n  tag_6\n  swap2\n  swap1\n  tag_5\n  jump\t// in\ntag_6:\n  pop\n    /* \"contracts/token.sol\":2056:2057  2 */\n  0x02\n    /* \"contracts/token.sol\":2045:2053  decimals */\n  dup1\n  0x00\n    /* \"contracts/token.sol\":2045:2057  decimals = 2 */\n  0x0100\n  exp\n  dup2\n  sload\n  dup2\n  0xff\n  mul\n  not\n  and\n  swap1\n  dup4\n  0xff\n  and\n  mul\n  or\n  swap1\n  sstore\n  pop\n    /* \"contracts/token.sol\":2083:2089  100000 */\n  0x0186a0\n    /* \"contracts/token.sol\":2068:2080  _totalSupply */\n  0x03\n    /* \"contracts/token.sol\":2068:2089  _totalSupply = 100000 */\n  dup2\n  swap1\n  sstore\n  pop\n    /* \"contracts/token.sol\":2155:2167  _totalSupply */\n  sload(0x03)\n    /* \"contracts/token.sol\":2100:2108  balances */\n  0x04\n    /* \"contracts/token.sol\":2100:2152  balances[0x44ff6f67486338Ca724C9f0362860bb29aBAFd01] */\n  0x00\n    /* \"contracts/token.sol\":2109:2151  0x44ff6f67486338Ca724C9f0362860bb29aBAFd01 */\n  0x44ff6f67486338ca724c9f0362860bb29abafd01\n    /* \"contracts/token.sol\":2100:2152  balances[0x44ff6f67486338Ca724C9f0362860bb29aBAFd01] */\n  0xffffffffffffffffffffffffffffffffffffffff\n  and\n  0xffffffffffffffffffffffffffffffffffffffff\n  and\n  dup2\n  mstore\n  0x20\n  add\n  swap1\n  dup2\n  mstore\n  0x20\n  add\n  0x00\n  keccak256\n    /* \"contracts/token.sol\":2100:2167  balances[0x44ff6f67486338Ca724C9f0362860bb29aBAFd01] = _totalSupply */\n  dup2\n  swap1\n  sstore\n  pop\n    /* \"contracts/token.sol\":2204:2246  0x44ff6f67486338Ca724C9f0362860bb29aBAFd01 */\n  0x44ff6f67486338ca724c9f0362860bb29abafd01\n    /* \"contracts/token.sol\":2183:2261  Transfer(address(0), 0x44ff6f67486338Ca724C9f0362860bb29aBAFd01, _totalSupply) */\n  0xffffffffffffffffffffffffffffffffffffffff\n  and\n    /* \"contracts/token.sol\":2200:2201  0 */\n  0x00\n    /* \"contracts/token.sol\":2183:2261  Transfer(address(0), 0x44ff6f67486338Ca724C9f0362860bb29aBAFd01, _totalSupply) */\n  0xffffffffffffffffffffffffffffffffffffffff\n  and\n  0xddf252ad1be2c89b69c2b068fc378daa952ba7f163c4a11628f55a4df523b3ef\n    /* \"contracts/token.sol\":2248:2260  _totalSupply */\n  sload(0x03)\n    /* \"contracts/token.sol\":2183:2261  Transfer(address(0), 0x44ff6f67486338Ca724C9f0362860bb29aBAFd01, _totalSupply) */\n  mload(0x40)\n  tag_7\n  swap2\n  swap1\n  tag_8\n  jump\t// in\ntag_7:\n  mload(0x40)\n  dup1\n  swap2\n  sub\n  swap1\n  log3\n    /* \"contracts/token.sol\":1703:4226  contract CPToken is ERC20Interface, SafeMath {... */\n  jump(tag_9)\n    /* \"#utility.yul\":7:106   */\ntag_10:\n    /* \"#utility.yul\":59:65   */\n  0x00\n    /* \"#utility.yul\":93:98   */\n  dup2\n    /* \"#utility.yul\":87:99   */\n  mload\n    /* \"#utility.yul\":77:99   */\n  swap1\n  pop\n    /* \"#utility.yul\":7:106   */\n  swap2\n  swap1\n  pop\n  jump\t// out\n    /* \"#utility.yul\":112:292   */\ntag_11:\n    /* \"#utility.yul\":160:237   */\n  0x4e487b7100000000000000000000000000000000000000000000000000000000\n    /* \"#utility.yul\":157:158   */\n  0x00\n    /* \"#utility.yul\":150:238   */\n  mstore\n    /* \"#utility.yul\":257:261   */\n  0x41\n    /* \"#utility.yul\":254:255   */\n  0x04\n    /* \"#utility.yul\":247:262   */\n  mstore\n    /* \"#utility.yul\":281:285   */\n  0x24\n    /* \"#utility.yul\":278:279   */\n  0x00\n    /* \"#utility.yul\":271:286   */\n  revert\n    /* \"#utility.yul\":298:478   */\ntag_12:\n    /* \"#utility.yul\":346:423   */\n  0x4e487b7100000000000000000000000000000000000000000000000000000000\n    /* \"#utility.yul\":343:344   */\n  0x00\n    /* \"#utility.yul\":336:424   */\n  mstore\n    /* \"#utility.yul\":443:447   */\n  0x22\n    /* \"#utility.yul\":440:441   */\n  0x04\n    /* \"#utility.yul\":433:448   */\n  mstore\n    /* \"#utility.yul\":467:471   */\n  0x24\n    /* \"#utility.yul\":464:465   */\n  0x00\n    /* \"#utility.yul\":457:472   */\n  revert\n    /* \"#utility.yul\":484:804   */\ntag_13:\n    /* \"#utility.yul\":528:534   */\n  0x00\n    /* \"#utility.yul\":565:566   */\n  0x02\n    /* \"#utility.yul\":559:563   */\n  dup3\n    /* \"#utility.yul\":555:567   */\n  div\n    /* \"#utility.yul\":545:567   */\n  swap1\n  pop\n    /* \"#utility.yul\":612:613   */\n  0x01\n    /* \"#utility.yul\":606:610   */\n  dup3\n    /* \"#utility.yul\":602:614   */\n  and\n    /* \"#utility.yul\":633:651   */\n  dup1\n    /* \"#utility.yul\":623:704   */\n  tag_36\n  jumpi\n    /* \"#utility.yul\":689:693   */\n  0x7f\n    /* \"#utility.yul\":681:687   */\n  dup3\n    /* \"#utility.yul\":677:694   */\n  and\n    /* \"#utility.yul\":667:694   */\n  swap2\n  pop\n    /* \"#utility.yul\":623:704   */\ntag_36:\n    /* \"#utility.yul\":751:753   */\n  0x20\n    /* \"#utility.yul\":743:749   */\n  dup3\n    /* \"#utility.yul\":740:754   */\n  lt\n    /* \"#utility.yul\":720:738   */\n  dup2\n    /* \"#utility.yul\":717:755   */\n  sub\n    /* \"#utility.yul\":714:798   */\n  tag_37\n  jumpi\n    /* \"#utility.yul\":770:788   */\n  tag_38\n  tag_12\n  jump\t// in\ntag_38:\n    /* \"#utility.yul\":714:798   */\ntag_37:\n    /* \"#utility.yul\":535:804   */\n  pop\n    /* \"#utility.yul\":484:804   */\n  swap2\n  swap1\n  pop\n  jump\t// out\n    /* \"#utility.yul\":810:951   */\ntag_14:\n    /* \"#utility.yul\":859:863   */\n  0x00\n    /* \"#utility.yul\":882:885   */\n  dup2\n    /* \"#utility.yul\":874:885   */\n  swap1\n  pop\n    /* \"#utility.yul\":905:908   */\n  dup2\n    /* \"#utility.yul\":902:903   */\n  0x00\n    /* \"#utility.yul\":895:909   */\n  mstore\n    /* \"#utility.yul\":939:943   */\n  0x20\n    /* \"#utility.yul\":936:937   */\n  0x00\n    /* \"#utility.yul\":926:944   */\n  keccak256\n    /* \"#utility.yul\":918:944   */\n  swap1\n  pop\n    /* \"#utility.yul\":810:951   */\n  swap2\n  swap1\n  pop\n  jump\t// out\n    /* \"#utility.yul\":957:1050   */\ntag_15:\n    /* \"#utility.yul\":994:1000   */\n  0x00\n    /* \"#utility.yul\":1041:1043   */\n  0x20\n    /* \"#utility.yul\":1036:1038   */\n  0x1f\n    /* \"#utility.yul\":1029:1034   */\n  dup4\n    /* \"#utility.yul\":1025:1039   */\n  add\n    /* \"#utility.yul\":1021:1044   */\n  div\n    /* \"#utility.yul\":1011:1044   */\n  swap1\n  pop\n    /* \"#utility.yul\":957:1050   */\n  swap2\n  swap1\n  pop\n  jump\t// out\n    /* \"#utility.yul\":1056:1163   */\ntag_16:\n    /* \"#utility.yul\":1100:1108   */\n  0x00\n    /* \"#utility.yul\":1150:1155   */\n  dup3\n    /* \"#utility.yul\":1144:1148   */\n  dup3\n    /* \"#utility.yul\":1140:1156   */\n  shl\n    /* \"#utility.yul\":1119:1156   */\n  swap1\n  pop\n    /* \"#utility.yul\":1056:1163   */\n  swap3\n  swap2\n  pop\n  pop\n  jump\t// out\n    /* \"#utility.yul\":1169:1562   */\ntag_17:\n    /* \"#utility.yul\":1238:1244   */\n  0x00\n    /* \"#utility.yul\":1288:1289   */\n  0x08\n    /* \"#utility.yul\":1276:1286   */\n  dup4\n    /* \"#utility.yul\":1272:1290   */\n  mul\n    /* \"#utility.yul\":1311:1408   */\n  tag_43\n    /* \"#utility.yul\":1341:1407   */\n  0xffffffffffffffffffffffffffffffffffffffffffffffffffffffffffffffff\n    /* \"#utility.yul\":1330:1339   */\n  dup3\n    /* \"#utility.yul\":1311:1408   */\n  tag_16\n  jump\t// in\ntag_43:\n    /* \"#utility.yul\":1429:1468   */\n  tag_44\n    /* \"#utility.yul\":1459:1467   */\n  dup7\n    /* \"#utility.yul\":1448:1457   */\n  dup4\n    /* \"#utility.yul\":1429:1468   */\n  tag_16\n  jump\t// in\ntag_44:\n    /* \"#utility.yul\":1417:1468   */\n  swap6\n  pop\n    /* \"#utility.yul\":1501:1505   */\n  dup1\n    /* \"#utility.yul\":1497:1506   */\n  not\n    /* \"#utility.yul\":1490:1495   */\n  dup5\n    /* \"#utility.yul\":1486:1507   */\n  and\n    /* \"#utility.yul\":1477:1507   */\n  swap4\n  pop\n    /* \"#utility.yul\":1550:1554   */\n  dup1\n    /* \"#utility.yul\":1540:1548   */\n  dup7\n    /* \"#utility.yul\":1536:1555   */\n  and\n    /* \"#utility.yul\":1529:1534   */\n  dup5\n    /* \"#utility.yul\":1526:1556   */\n  or\n    /* \"#utility.yul\":1516:1556   */\n  swap3\n  pop\n    /* \"#utility.yul\":1245:1562   */\n  pop\n  pop\n    /* \"#utility.yul\":1169:1562   */\n  swap4\n  swap3\n  pop\n  pop\n  pop\n  jump\t// out\n    /* \"#utility.yul\":1568:1645   */\ntag_18:\n    /* \"#utility.yul\":1605:1612   */\n  0x00\n    /* \"#utility.yul\":1634:1639   */\n  dup2\n    /* \"#utility.yul\":1623:1639   */\n  swap1\n  pop\n    /* \"#utility.yul\":1568:1645   */\n  swap2\n  swap1\n  pop\n  jump\t// out\n    /* \"#utility.yul\":1651:1711   */\ntag_19:\n    /* \"#utility.yul\":1679:1682   */\n  0x00\n    /* \"#utility.yul\":1700:1705   */\n  dup2\n    /* \"#utility.yul\":1693:1705   */\n  swap1\n  pop\n    /* \"#utility.yul\":1651:1711   */\n  swap2\n  swap1\n  pop\n  jump\t// out\n    /* \"#utility.yul\":1717:1859   */\ntag_20:\n    /* \"#utility.yul\":1767:1776   */\n  0x00\n    /* \"#utility.yul\":1800:1853   */\n  tag_48\n    /* \"#utility.yul\":1818:1852   */\n  tag_49\n    /* \"#utility.yul\":1827:1851   */\n  tag_50\n    /* \"#utility.yul\":1845:1850   */\n  dup5\n    /* \"#utility.yul\":1827:1851   */\n  tag_18\n  jump\t// in\ntag_50:\n    /* \"#utility.yul\":1818:1852   */\n  tag_19\n  jump\t// in\ntag_49:\n    /* \"#utility.yul\":1800:1853   */\n  tag_18\n  jump\t// in\ntag_48:\n    /* \"#utility.yul\":1787:1853   */\n  swap1\n  pop\n    /* \"#utility.yul\":1717:1859   */\n  swap2\n  swap1\n  pop\n  jump\t// out\n    /* \"#utility.yul\":1865:1940   */\ntag_21:\n    /* \"#utility.yul\":1908:1911   */\n  0x00\n    /* \"#utility.yul\":1929:1934   */\n  dup2\n    /* \"#utility.yul\":1922:1934   */\n  swap1\n  pop\n    /* \"#utility.yul\":1865:1940   */\n  swap2\n  swap1\n  pop\n  jump\t// out\n    /* \"#utility.yul\":1946:2215   */\ntag_22:\n    /* \"#utility.yul\":2056:2095   */\n  tag_53\n    /* \"#utility.yul\":2087:2094   */\n  dup4\n    /* \"#utility.yul\":2056:2095   */\n  tag_20\n  jump\t// in\ntag_53:\n    /* \"#utility.yul\":2117:2208   */\n  tag_54\n    /* \"#utility.yul\":2166:2207   */\n  tag_55\n    /* \"#utility.yul\":2190:2206   */\n  dup3\n    /* \"#utility.yul\":2166:2207   */\n  tag_21\n  jump\t// in\ntag_55:\n    /* \"#utility.yul\":2158:2164   */\n  dup5\n    /* \"#utility.yul\":2151:2155   */\n  dup5\n    /* \"#utility.yul\":2145:2156   */\n  sload\n    /* \"#utility.yul\":2117:2208   */\n  tag_17\n  jump\t// in\ntag_54:\n    /* \"#utility.yul\":2111:2115   */\n  dup3\n    /* \"#utility.yul\":2104:2209   */\n  sstore\n    /* \"#utility.yul\":2022:2215   */\n  pop\n    /* \"#utility.yul\":1946:2215   */\n  pop\n  pop\n  pop\n  jump\t// out\n    /* \"#utility.yul\":2221:2294   */\ntag_23:\n    /* \"#utility.yul\":2266:2269   */\n  0x00\n    /* \"#utility.yul\":2221:2294   */\n  swap1\n  jump\t// out\n    /* \"#utility.yul\":2300:2489   */\ntag_24:\n    /* \"#utility.yul\":2377:2409   */\n  tag_58\n  tag_23\n  jump\t// in\ntag_58:\n    /* \"#utility.yul\":2418:2483   */\n  tag_59\n    /* \"#utility.yul\":2476:2482   */\n  dup2\n    /* \"#utility.yul\":2468:2474   */\n  dup5\n    /* \"#utility.yul\":2462:2466   */\n  dup5\n    /* \"#utility.yul\":2418:2483   */\n  tag_22\n  jump\t// in\ntag_59:\n    /* \"#utility.yul\":2353:2489   */\n  pop\n    /* \"#utility.yul\":2300:2489   */\n  pop\n  pop\n  jump\t// out\n    /* \"#utility.yul\":2495:2681   */\ntag_25:\n    /* \"#utility.yul\":2555:2675   */\ntag_61:\n    /* \"#utility.yul\":2572:2575   */\n  dup2\n    /* \"#utility.yul\":2565:2570   */\n  dup2\n    /* \"#utility.yul\":2562:2576   */\n  lt\n    /* \"#utility.yul\":2555:2675   */\n  iszero\n  tag_63\n  jumpi\n    /* \"#utility.yul\":2626:2665   */\n  tag_64\n    /* \"#utility.yul\":2663:2664   */\n  0x00\n    /* \"#utility.yul\":2656:2661   */\n  dup3\n    /* \"#utility.yul\":2626:2665   */\n  tag_24\n  jump\t// in\ntag_64:\n    /* \"#utility.yul\":2599:2600   */\n  0x01\n    /* \"#utility.yul\":2592:2597   */\n  dup2\n    /* \"#utility.yul\":2588:2601   */\n  add\n    /* \"#utility.yul\":2579:2601   */\n  swap1\n  pop\n    /* \"#utility.yul\":2555:2675   */\n  jump(tag_61)\ntag_63:\n    /* \"#utility.yul\":2495:2681   */\n  pop\n  pop\n  jump\t// out\n    /* \"#utility.yul\":2687:3230   */\ntag_26:\n    /* \"#utility.yul\":2788:2790   */\n  0x1f\n    /* \"#utility.yul\":2783:2786   */\n  dup3\n    /* \"#utility.yul\":2780:2791   */\n  gt\n    /* \"#utility.yul\":2777:3223   */\n  iszero\n  tag_66\n  jumpi\n    /* \"#utility.yul\":2822:2860   */\n  tag_67\n    /* \"#utility.yul\":2854:2859   */\n  dup2\n    /* \"#utility.yul\":2822:2860   */\n  tag_14\n  jump\t// in\ntag_67:\n    /* \"#utility.yul\":2906:2935   */\n  tag_68\n    /* \"#utility.yul\":2924:2934   */\n  dup5\n    /* \"#utility.yul\":2906:2935   */\n  tag_15\n  jump\t// in\ntag_68:\n    /* \"#utility.yul\":2896:2904   */\n  dup2\n    /* \"#utility.yul\":2892:2936   */\n  add\n    /* \"#utility.yul\":3089:3091   */\n  0x20\n    /* \"#utility.yul\":3077:3087   */\n  dup6\n    /* \"#utility.yul\":3074:3092   */\n  lt\n    /* \"#utility.yul\":3071:3120   */\n  iszero\n  tag_69\n  jumpi\n    /* \"#utility.yul\":3110:3118   */\n  dup2\n    /* \"#utility.yul\":3095:3118   */\n  swap1\n  pop\n    /* \"#utility.yul\":3071:3120   */\ntag_69:\n    /* \"#utility.yul\":3133:3213   */\n  tag_70\n    /* \"#utility.yul\":3189:3211   */\n  tag_71\n    /* \"#utility.yul\":3207:3210   */\n  dup6\n    /* \"#utility.yul\":3189:3211   */\n  tag_15\n  jump\t// in\ntag_71:\n    /* \"#utility.yul\":3179:3187   */\n  dup4\n    /* \"#utility.yul\":3175:3212   */\n  add\n    /* \"#utility.yul\":3162:3173   */\n  dup3\n    /* \"#utility.yul\":3133:3213   */\n  tag_25\n  jump\t// in\ntag_70:\n    /* \"#utility.yul\":2792:3223   */\n  pop\n  pop\n    /* \"#utility.yul\":2777:3223   */\ntag_66:\n    /* \"#utility.yul\":2687:3230   */\n  pop\n  pop\n  pop\n  jump\t// out\n    /* \"#utility.yul\":3236:3353   */\ntag_27:\n    /* \"#utility.yul\":3290:3298   */\n  0x00\n    /* \"#utility.yul\":3340:3345   */\n  dup3\n    /* \"#utility.yul\":3334:3338   */\n  dup3\n    /* \"#utility.yul\":3330:3346   */\n  shr\n    /* \"#utility.yul\":3309:3346   */\n  swap1\n  pop\n    /* \"#utility.yul\":3236:3353   */\n  swap3\n  swap2\n  pop\n  pop\n  jump\t// out\n    /* \"#utility.yul\":3359:3528   */\ntag_28:\n    /* \"#utility.yul\":3403:3409   */\n  0x00\n    /* \"#utility.yul\":3436:3487   */\n  tag_74\n    /* \"#utility.yul\":3484:3485   */\n  0x00\n    /* \"#utility.yul\":3480:3486   */\n  not\n    /* \"#utility.yul\":3472:3477   */\n  dup5\n    /* \"#utility.yul\":3469:3470   */\n  0x08\n    /* \"#utility.yul\":3465:3478   */\n  mul\n    /* \"#utility.yul\":3436:3487   */\n  tag_27\n  jump\t// in\ntag_74:\n    /* \"#utility.yul\":3432:3488   */\n  not\n    /* \"#utility.yul\":3517:3521   */\n  dup1\n    /* \"#utility.yul\":3511:3515   */\n  dup4\n    /* \"#utility.yul\":3507:3522   */\n  and\n    /* \"#utility.yul\":3497:3522   */\n  swap2\n  pop\n    /* \"#utility.yul\":3410:3528   */\n  pop\n    /* \"#utility.yul\":3359:3528   */\n  swap3\n  swap2\n  pop\n  pop\n  jump\t// out\n    /* \"#utility.yul\":3533:3828   */\ntag_29:\n    /* \"#utility.yul\":3609:3613   */\n  0x00\n    /* \"#utility.yul\":3755:3784   */\n  tag_76\n    /* \"#utility.yul\":3780:3783   */\n  dup4\n    /* \"#utility.yul\":3774:3778   */\n  dup4\n    /* \"#utility.yul\":3755:3784   */\n  tag_28\n  jump\t// in\ntag_76:\n    /* \"#utility.yul\":3747:3784   */\n  swap2\n  pop\n    /* \"#utility.yul\":3817:3820   */\n  dup3\n    /* \"#utility.yul\":3814:3815   */\n  0x02\n    /* \"#utility.yul\":3810:3821   */\n  mul\n    /* \"#utility.yul\":3804:3808   */\n  dup3\n    /* \"#utility.yul\":3801:3822   */\n  or\n    /* \"#utility.yul\":3793:3822   */\n  swap1\n  pop\n    /* \"#utility.yul\":3533:3828   */\n  swap3\n  swap2\n  pop\n  pop\n  jump\t// out\n    /* \"#utility.yul\":3833:5228   */\ntag_5:\n    /* \"#utility.yul\":3950:3987   */\n  tag_78\n    /* \"#utility.yul\":3983:3986   */\n  dup3\n    /* \"#utility.yul\":3950:3987   */\n  tag_10\n  jump\t// in\ntag_78:\n    /* \"#utility.yul\":4052:4070   */\n  0xffffffffffffffff\n    /* \"#utility.yul\":4044:4050   */\n  dup2\n    /* \"#utility.yul\":4041:4071   */\n  gt\n    /* \"#utility.yul\":4038:4094   */\n  iszero\n  tag_79\n  jumpi\n    /* \"#utility.yul\":4074:4092   */\n  tag_80\n  tag_11\n  jump\t// in\ntag_80:\n    /* \"#utility.yul\":4038:4094   */\ntag_79:\n    /* \"#utility.yul\":4118:4156   */\n  tag_81\n    /* \"#utility.yul\":4150:4154   */\n  dup3\n    /* \"#utility.yul\":4144:4155   */\n  sload\n    /* \"#utility.yul\":4118:4156   */\n  tag_13\n  jump\t// in\ntag_81:\n    /* \"#utility.yul\":4203:4270   */\n  tag_82\n    /* \"#utility.yul\":4263:4269   */\n  dup3\n    /* \"#utility.yul\":4255:4261   */\n  dup3\n    /* \"#utility.yul\":4249:4253   */\n  dup6\n    /* \"#utility.yul\":4203:4270   */\n  tag_26\n  jump\t// in\ntag_82:\n    /* \"#utility.yul\":4297:4298   */\n  0x00\n    /* \"#utility.yul\":4321:4325   */\n  0x20\n    /* \"#utility.yul\":4308:4325   */\n  swap1\n  pop\n    /* \"#utility.yul\":4353:4355   */\n  0x1f\n    /* \"#utility.yul\":4345:4351   */\n  dup4\n    /* \"#utility.yul\":4342:4356   */\n  gt\n    /* \"#utility.yul\":4370:4371   */\n  0x01\n    /* \"#utility.yul\":4365:4983   */\n  dup2\n  eq\n  tag_84\n  jumpi\n    /* \"#utility.yul\":5027:5028   */\n  0x00\n    /* \"#utility.yul\":5044:5050   */\n  dup5\n    /* \"#utility.yul\":5041:5118   */\n  iszero\n  tag_85\n  jumpi\n    /* \"#utility.yul\":5093:5102   */\n  dup3\n    /* \"#utility.yul\":5088:5091   */\n  dup8\n    /* \"#utility.yul\":5084:5103   */\n  add\n    /* \"#utility.yul\":5078:5104   */\n  mload\n    /* \"#utility.yul\":5069:5104   */\n  swap1\n  pop\n    /* \"#utility.yul\":5041:5118   */\ntag_85:\n    /* \"#utility.yul\":5144:5211   */\n  tag_86\n    /* \"#utility.yul\":5204:5210   */\n  dup6\n    /* \"#utility.yul\":5197:5202   */\n  dup3\n    /* \"#utility.yul\":5144:5211   */\n  tag_29\n  jump\t// in\ntag_86:\n    /* \"#utility.yul\":5138:5142   */\n  dup7\n    /* \"#utility.yul\":5131:5212   */\n  sstore\n    /* \"#utility.yul\":5000:5222   */\n  pop\n    /* \"#utility.yul\":4335:5222   */\n  jump(tag_83)\n    /* \"#utility.yul\":4365:4983   */\ntag_84:\n    /* \"#utility.yul\":4417:4421   */\n  0x1f\n    /* \"#utility.yul\":4413:4422   */\n  not\n    /* \"#utility.yul\":4405:4411   */\n  dup5\n    /* \"#utility.yul\":4401:4423   */\n  and\n    /* \"#utility.yul\":4451:4488   */\n  tag_87\n    /* \"#utility.yul\":4483:4487   */\n  dup7\n    /* \"#utility.yul\":4451:4488   */\n  tag_14\n  jump\t// in\ntag_87:\n    /* \"#utility.yul\":4510:4511   */\n  0x00\n    /* \"#utility.yul\":4524:4732   */\ntag_88:\n    /* \"#utility.yul\":4538:4545   */\n  dup3\n    /* \"#utility.yul\":4535:4536   */\n  dup2\n    /* \"#utility.yul\":4532:4546   */\n  lt\n    /* \"#utility.yul\":4524:4732   */\n  iszero\n  tag_90\n  jumpi\n    /* \"#utility.yul\":4617:4626   */\n  dup5\n    /* \"#utility.yul\":4612:4615   */\n  dup10\n    /* \"#utility.yul\":4608:4627   */\n  add\n    /* \"#utility.yul\":4602:4628   */\n  mload\n    /* \"#utility.yul\":4594:4600   */\n  dup3\n    /* \"#utility.yul\":4587:4629   */\n  sstore\n    /* \"#utility.yul\":4668:4669   */\n  0x01\n    /* \"#utility.yul\":4660:4666   */\n  dup3\n    /* \"#utility.yul\":4656:4670   */\n  add\n    /* \"#utility.yul\":4646:4670   */\n  swap2\n  pop\n    /* \"#utility.yul\":4715:4717   */\n  0x20\n    /* \"#utility.yul\":4704:4713   */\n  dup6\n    /* \"#utility.yul\":4700:4718   */\n  add\n    /* \"#utility.yul\":4687:4718   */\n  swap5\n  pop\n    /* \"#utility.yul\":4561:4565   */\n  0x20\n    /* \"#utility.yul\":4558:4559   */\n  dup2\n    /* \"#utility.yul\":4554:4566   */\n  add\n    /* \"#utility.yul\":4549:4566   */\n  swap1\n  pop\n    /* \"#utility.yul\":4524:4732   */\n  jump(tag_88)\ntag_90:\n    /* \"#utility.yul\":4760:4766   */\n  dup7\n    /* \"#utility.yul\":4751:4758   */\n  dup4\n    /* \"#utility.yul\":4748:4767   */\n  lt\n    /* \"#utility.yul\":4745:4924   */\n  iszero\n  tag_91\n  jumpi\n    /* \"#utility.yul\":4818:4827   */\n  dup5\n    /* \"#utility.yul\":4813:4816   */\n  dup10\n    /* \"#utility.yul\":4809:4828   */\n  add\n    /* \"#utility.yul\":4803:4829   */\n  mload\n    /* \"#utility.yul\":4861:4909   */\n  tag_92\n    /* \"#utility.yul\":4903:4907   */\n  0x1f\n    /* \"#utility.yul\":4895:4901   */\n  dup10\n    /* \"#utility.yul\":4891:4908   */\n  and\n    /* \"#utility.yul\":4880:4889   */\n  dup3\n    /* \"#utility.yul\":4861:4909   */\n  tag_28\n  jump\t// in\ntag_92:\n    /* \"#utility.yul\":4853:4859   */\n  dup4\n    /* \"#utility.yul\":4846:4910   */\n  sstore\n    /* \"#utility.yul\":4768:4924   */\n  pop\n    /* \"#utility.yul\":4745:4924   */\ntag_91:\n    /* \"#utility.yul\":4970:4971   */\n  0x01\n    /* \"#utility.yul\":4966:4967   */\n  0x02\n    /* \"#utility.yul\":4958:4964   */\n  dup9\n    /* \"#utility.yul\":4954:4968   */\n  mul\n    /* \"#utility.yul\":4950:4972   */\n  add\n    /* \"#utility.yul\":4944:4948   */\n  dup9\n    /* \"#utility.yul\":4937:4973   */\n  sstore\n    /* \"#utility.yul\":4372:4983   */\n  pop\n  pop\n  pop\n    /* \"#utility.yul\":4335:5222   */\ntag_83:\n  pop\n    /* \"#utility.yul\":3925:5228   */\n  pop\n  pop\n  pop\n    /* \"#utility.yul\":3833:5228   */\n  pop\n  pop\n  jump\t// out\n    /* \"#utility.yul\":5234:5352   */\ntag_30:\n    /* \"#utility.yul\":5321:5345   */\n  tag_94\n    /* \"#utility.yul\":5339:5344   */\n  dup2\n    /* \"#utility.yul\":5321:5345   */\n  tag_18\n  jump\t// in\ntag_94:\n    /* \"#utility.yul\":5316:5319   */\n  dup3\n    /* \"#utility.yul\":5309:5346   */\n  mstore\n    /* \"#utility.yul\":5234:5352   */\n  pop\n  pop\n  jump\t// out\n    /* \"#utility.yul\":5358:5580   */\ntag_8:\n    /* \"#utility.yul\":5451:5455   */\n  0x00\n    /* \"#utility.yul\":5489:5491   */\n  0x20\n    /* \"#utility.yul\":5478:5487   */\n  dup3\n    /* \"#utility.yul\":5474:5492   */\n  add\n    /* \"#utility.yul\":5466:5492   */\n  swap1\n  pop\n    /* \"#utility.yul\":5502:5573   */\n  tag_96\n    /* \"#utility.yul\":5570:5571   */\n  0x00\n    /* \"#utility.yul\":5559:5568   */\n  dup4\n    /* \"#utility.yul\":5555:5572   */\n  add\n    /* \"#utility.yul\":5546:5552   */\n  dup5\n    /* \"#utility.yul\":5502:5573   */\n  tag_30\n  jump\t// in\ntag_96:\n    /* \"#utility.yul\":5358:5580   */\n  swap3\n  swap2\n  pop\n  pop\n  jump\t// out\n    /* \"contracts/token.sol\":1703:4226  contract CPToken is ERC20Interface, SafeMath {... */\ntag_9:\n  dataSize(sub_0)\n  dup1\n  dataOffset(sub_0)\n  0x00\n  codecopy\n  0x00\n  return\nstop\n\nsub_0: assembly {\n        /* \"contracts/token.sol\":1703:4226  contract CPToken is ERC20Interface, SafeMath {... */\n      mstore(0x40, 0x80)\n      jumpi(tag_1, lt(calldatasize, 0x04))\n      shr(0xe0, calldataload(0x00))\n      dup1\n      0x95d89b41\n      gt\n      tag_18\n      jumpi\n      dup1\n      0xcae9ca51\n      gt\n      tag_19\n      jumpi\n      dup1\n      0xcae9ca51\n      eq\n      tag_14\n      jumpi\n      dup1\n      0xd05c78da\n      eq\n      tag_15\n      jumpi\n      dup1\n      0xdd62ed3e\n      eq\n      tag_16\n      jumpi\n      dup1\n      0xe6cb9013\n      eq\n      tag_17\n      jumpi\n      jump(tag_2)\n    tag_19:\n      dup1\n      0x95d89b41\n      eq\n      tag_10\n      jumpi\n      dup1\n      0xa293d1e8\n      eq\n      tag_11\n      jumpi\n      dup1\n      0xa9059cbb\n      eq\n      tag_12\n      jumpi\n      dup1\n      0xb5931f7c\n      eq\n      tag_13\n      jumpi\n      jump(tag_2)\n    tag_18:\n      dup1\n      0x23b872dd\n      gt\n      tag_20\n      jumpi\n      dup1\n      0x23b872dd\n      eq\n      tag_6\n      jumpi\n      dup1\n      0x313ce567\n      eq\n      tag_7\n      jumpi\n      dup1\n      0x3eaaf86b\n      eq\n      tag_8\n      jumpi\n      dup1\n      0x70a08231\n      eq\n      tag_9\n      jumpi\n      jump(tag_2)\n    tag_20:\n      dup1\n      0x06fdde03\n      eq\n      tag_3\n      jumpi\n      dup1\n      0x095ea7b3\n      eq\n      tag_4\n      jumpi\n      dup1\n      0x18160ddd\n      eq\n      tag_5\n      jumpi\n      jump(tag_2)\n    tag_1:\n      jumpi(tag_2, calldatasize)\n      stop\n    tag_2:\n        /* \"contracts/token.sol\":4181:4215  revert(\"Fallback function called\") */\n      mload(0x40)\n      0x08c379a000000000000000000000000000000000000000000000000000000000\n      dup2\n      mstore\n      0x04\n      add\n      tag_25\n      swap1\n      tag_26\n      jump\t// in\n    tag_25:\n      mload(0x40)\n      dup1\n      swap2\n      sub\n      swap1\n      revert\n        /* \"contracts/token.sol\":1782:1800  string public name */\n    tag_3:\n      callvalue\n      dup1\n      iszero\n      tag_27\n      jumpi\n      0x00\n      dup1\n      revert\n    tag_27:\n      pop\n      tag_28\n      tag_29\n      jump\t// in\n    tag_28:\n      mload(0x40)\n      tag_30\n      swap2\n      swap1\n      tag_31\n      jump\t// in\n    tag_30:\n      mload(0x40)\n      dup1\n      swap2\n      sub\n      swap1\n      return\n        /* \"contracts/token.sol\":2836:3053  function approve(address spender, uint tokens) public override returns (bool success) {... */\n    tag_4:\n      callvalue\n      dup1\n      iszero\n      tag_32\n      jumpi\n      0x00\n      dup1\n      revert\n    tag_32:\n      pop\n      tag_33\n      0x04\n      dup1\n      calldatasize\n      sub\n      dup2\n      add\n      swap1\n      tag_34\n      swap2\n      swap1\n      tag_35\n      jump\t// in\n    tag_34:\n      tag_36\n      jump\t// in\n    tag_33:\n      mload(0x40)\n      tag_37\n      swap2\n      swap1\n      tag_38\n      jump\t// in\n    tag_37:\n      mload(0x40)\n      dup1\n      swap2\n      sub\n      swap1\n      return\n        /* \"contracts/token.sol\":2277:2397  function totalSupply() public view override returns (uint) {... */\n    tag_5:\n      callvalue\n      dup1\n      iszero\n      tag_39\n      jumpi\n      0x00\n      dup1\n      revert\n    tag_39:\n      pop\n      tag_40\n      tag_41\n      jump\t// in\n    tag_40:\n      mload(0x40)\n      tag_42\n      swap2\n      swap1\n      tag_43\n      jump\t// in\n    tag_42:\n      mload(0x40)\n      dup1\n      swap2\n      sub\n      swap1\n      return\n        /* \"contracts/token.sol\":3061:3428  function transferFrom(address from, address to, uint tokens) public override returns (bool success) {... */\n    tag_6:\n      callvalue\n      dup1\n      iszero\n      tag_44\n      jumpi\n      0x00\n      dup1\n      revert\n    tag_44:\n      pop\n      tag_45\n      0x04\n      dup1\n      calldatasize\n      sub\n      dup2\n      add\n      swap1\n      tag_46\n      swap2\n      swap1\n      tag_47\n      jump\t// in\n    tag_46:\n      tag_48\n      jump\t// in\n    tag_45:\n      mload(0x40)\n      tag_49\n      swap2\n      swap1\n      tag_38\n      jump\t// in\n    tag_49:\n      mload(0x40)\n      dup1\n      swap2\n      sub\n      swap1\n      return\n        /* \"contracts/token.sol\":1807:1828  uint8 public decimals */\n    tag_7:\n      callvalue\n      dup1\n      iszero\n      tag_50\n      jumpi\n      0x00\n      dup1\n      revert\n    tag_50:\n      pop\n      tag_51\n      tag_52\n      jump\t// in\n    tag_51:\n      mload(0x40)\n      tag_53\n      swap2\n      swap1\n      tag_54\n      jump\t// in\n    tag_53:\n      mload(0x40)\n      dup1\n      swap2\n      sub\n      swap1\n      return\n        /* \"contracts/token.sol\":1835:1859  uint public _totalSupply */\n    tag_8:\n      callvalue\n      dup1\n      iszero\n      tag_55\n      jumpi\n      0x00\n      dup1\n      revert\n    tag_55:\n      pop\n      tag_56\n      tag_57\n      jump\t// in\n    tag_56:\n      mload(0x40)\n      tag_58\n      swap2\n      swap1\n      tag_43\n      jump\t// in\n    tag_58:\n      mload(0x40)\n      dup1\n      swap2\n      sub\n      swap1\n      return\n        /* \"contracts/token.sol\":2405:2534  function balanceOf(address tokenOwner) public view override returns (uint balance) {... */\n    tag_9:\n      callvalue\n      dup1\n      iszero\n      tag_59\n      jumpi\n      0x00\n      dup1\n      revert\n    tag_59:\n      pop\n      tag_60\n      0x04\n      dup1\n      calldatasize\n      sub\n      dup2\n      add\n      swap1\n      tag_61\n      swap2\n      swap1\n      tag_62\n      jump\t// in\n    tag_61:\n      tag_63\n      jump\t// in\n    tag_60:\n      mload(0x40)\n      tag_64\n      swap2\n      swap1\n      tag_43\n      jump\t// in\n    tag_64:\n      mload(0x40)\n      dup1\n      swap2\n      sub\n      swap1\n      return\n        /* \"contracts/token.sol\":1755:1775  string public symbol */\n    tag_10:\n      callvalue\n      dup1\n      iszero\n      tag_65\n      jumpi\n      0x00\n      dup1\n      revert\n    tag_65:\n      pop\n      tag_66\n      tag_67\n      jump\t// in\n    tag_66:\n      mload(0x40)\n      tag_68\n      swap2\n      swap1\n      tag_31\n      jump\t// in\n    tag_68:\n      mload(0x40)\n      dup1\n      swap2\n      sub\n      swap1\n      return\n        /* \"contracts/token.sol\":258:399  function safeSub(uint a, uint b) public pure returns (uint c) {... */\n    tag_11:\n      callvalue\n      dup1\n      iszero\n      tag_69\n      jumpi\n      0x00\n      dup1\n      revert\n    tag_69:\n      pop\n      tag_70\n      0x04\n      dup1\n      calldatasize\n      sub\n      dup2\n      add\n      swap1\n      tag_71\n      swap2\n      swap1\n      tag_72\n      jump\t// in\n    tag_71:\n      tag_73\n      jump\t// in\n    tag_70:\n      mload(0x40)\n      tag_74\n      swap2\n      swap1\n      tag_43\n      jump\t// in\n    tag_74:\n      mload(0x40)\n      dup1\n      swap2\n      sub\n      swap1\n      return\n        /* \"contracts/token.sol\":2542:2828  function transfer(address to, uint tokens) public override returns (bool success) {... */\n    tag_12:\n      callvalue\n      dup1\n      iszero\n      tag_75\n      jumpi\n      0x00\n      dup1\n      revert\n    tag_75:\n      pop\n      tag_76\n      0x04\n      dup1\n      calldatasize\n      sub\n      dup2\n      add\n      swap1\n      tag_77\n      swap2\n      swap1\n      tag_35\n      jump\t// in\n    tag_77:\n      tag_78\n      jump\t// in\n    tag_76:\n      mload(0x40)\n      tag_79\n      swap2\n      swap1\n      tag_38\n      jump\t// in\n    tag_79:\n      mload(0x40)\n      dup1\n      swap2\n      sub\n      swap1\n      return\n        /* \"contracts/token.sol\":572:707  function safeDiv(uint a, uint b) public pure returns (uint c) {... */\n    tag_13:\n      callvalue\n      dup1\n      iszero\n      tag_80\n      jumpi\n      0x00\n      dup1\n      revert\n    tag_80:\n      pop\n      tag_81\n      0x04\n      dup1\n      calldatasize\n      sub\n      dup2\n      add\n      swap1\n      tag_82\n      swap2\n      swap1\n      tag_72\n      jump\t// in\n    tag_82:\n      tag_83\n      jump\t// in\n    tag_81:\n      mload(0x40)\n      tag_84\n      swap2\n      swap1\n      tag_43\n      jump\t// in\n    tag_84:\n      mload(0x40)\n      dup1\n      swap2\n      sub\n      swap1\n      return\n        /* \"contracts/token.sol\":3600:3935  function approveAndCall(address spender, uint tokens, bytes calldata data) public returns (bool success) {... */\n    tag_14:\n      callvalue\n      dup1\n      iszero\n      tag_85\n      jumpi\n      0x00\n      dup1\n      revert\n    tag_85:\n      pop\n      tag_86\n      0x04\n      dup1\n      calldatasize\n      sub\n      dup2\n      add\n      swap1\n      tag_87\n      swap2\n      swap1\n      tag_88\n      jump\t// in\n    tag_87:\n      tag_89\n      jump\t// in\n    tag_86:\n      mload(0x40)\n      tag_90\n      swap2\n      swap1\n      tag_38\n      jump\t// in\n    tag_90:\n      mload(0x40)\n      dup1\n      swap2\n      sub\n      swap1\n      return\n        /* \"contracts/token.sol\":407:564  function safeMul(uint a, uint b) public pure returns (uint c) {... */\n    tag_15:\n      callvalue\n      dup1\n      iszero\n      tag_91\n      jumpi\n      0x00\n      dup1\n      revert\n    tag_91:\n      pop\n      tag_92\n      0x04\n      dup1\n      calldatasize\n      sub\n      dup2\n      add\n      swap1\n      tag_93\n      swap2\n      swap1\n      tag_72\n      jump\t// in\n    tag_93:\n      tag_94\n      jump\t// in\n    tag_92:\n      mload(0x40)\n      tag_95\n      swap2\n      swap1\n      tag_43\n      jump\t// in\n    tag_95:\n      mload(0x40)\n      dup1\n      swap2\n      sub\n      swap1\n      return\n        /* \"contracts/token.sol\":3436:3592  function allowance(address tokenOwner, address spender) public view override returns (uint remaining) {... */\n    tag_16:\n      callvalue\n      dup1\n      iszero\n      tag_96\n      jumpi\n      0x00\n      dup1\n      revert\n    tag_96:\n      pop\n      tag_97\n      0x04\n      dup1\n      calldatasize\n      sub\n      dup2\n      add\n      swap1\n      tag_98\n      swap2\n      swap1\n      tag_99\n      jump\t// in\n    tag_98:\n      tag_100\n      jump\t// in\n    tag_97:\n      mload(0x40)\n      tag_101\n      swap2\n      swap1\n      tag_43\n      jump\t// in\n    tag_101:\n      mload(0x40)\n      dup1\n      swap2\n      sub\n      swap1\n      return\n        /* \"contracts/token.sol\":113:250  function safeAdd(uint a, uint b) public pure returns (uint c) {... */\n    tag_17:\n      callvalue\n      dup1\n      iszero\n      tag_102\n      jumpi\n      0x00\n      dup1\n      revert\n    tag_102:\n      pop\n      tag_103\n      0x04\n      dup1\n      calldatasize\n      sub\n      dup2\n      add\n      swap1\n      tag_104\n      swap2\n      swap1\n      tag_72\n      jump\t// in\n    tag_104:\n      tag_105\n      jump\t// in\n    tag_103:\n      mload(0x40)\n      tag_106\n      swap2\n      swap1\n      tag_43\n      jump\t// in\n    tag_106:\n      mload(0x40)\n      dup1\n      swap2\n      sub\n      swap1\n      return\n        /* \"contracts/token.sol\":1782:1800  string public name */\n    tag_29:\n      0x01\n      dup1\n      sload\n      tag_107\n      swap1\n      tag_108\n      jump\t// in\n    tag_107:\n      dup1\n      0x1f\n      add\n      0x20\n      dup1\n      swap2\n      div\n      mul\n      0x20\n      add\n      mload(0x40)\n      swap1\n      dup2\n      add\n      0x40\n      mstore\n      dup1\n      swap3\n      swap2\n      swap1\n      dup2\n      dup2\n      mstore\n      0x20\n      add\n      dup3\n      dup1\n      sload\n      tag_109\n      swap1\n      tag_108\n      jump\t// in\n    tag_109:\n      dup1\n      iszero\n      tag_110\n      jumpi\n      dup1\n      0x1f\n      lt\n      tag_111\n      jumpi\n      0x0100\n      dup1\n      dup4\n      sload\n      div\n      mul\n      dup4\n      mstore\n      swap2\n      0x20\n      add\n      swap2\n      jump(tag_110)\n    tag_111:\n      dup3\n      add\n      swap2\n      swap1\n      0x00\n      mstore\n      keccak256(0x00, 0x20)\n      swap1\n    tag_112:\n      dup2\n      sload\n      dup2\n      mstore\n      swap1\n      0x01\n      add\n      swap1\n      0x20\n      add\n      dup1\n      dup4\n      gt\n      tag_112\n      jumpi\n      dup3\n      swap1\n      sub\n      0x1f\n      and\n      dup3\n      add\n      swap2\n    tag_110:\n      pop\n      pop\n      pop\n      pop\n      pop\n      dup2\n      jump\t// out\n        /* \"contracts/token.sol\":2836:3053  function approve(address spender, uint tokens) public override returns (bool success) {... */\n    tag_36:\n        /* \"contracts/token.sol\":2908:2920  bool success */\n      0x00\n        /* \"contracts/token.sol\":2964:2970  tokens */\n      dup2\n        /* \"contracts/token.sol\":2933:2940  allowed */\n      0x05\n        /* \"contracts/token.sol\":2933:2952  allowed[msg.sender] */\n      0x00\n        /* \"contracts/token.sol\":2941:2951  msg.sender */\n      caller\n        /* \"contracts/token.sol\":2933:2952  allowed[msg.sender] */\n      0xffffffffffffffffffffffffffffffffffffffff\n      and\n      0xffffffffffffffffffffffffffffffffffffffff\n      and\n      dup2\n      mstore\n      0x20\n      add\n      swap1\n      dup2\n      mstore\n      0x20\n      add\n      0x00\n      keccak256\n        /* \"contracts/token.sol\":2933:2961  allowed[msg.sender][spender] */\n      0x00\n        /* \"contracts/token.sol\":2953:2960  spender */\n      dup6\n        /* \"contracts/token.sol\":2933:2961  allowed[msg.sender][spender] */\n      0xffffffffffffffffffffffffffffffffffffffff\n      and\n      0xffffffffffffffffffffffffffffffffffffffff\n      and\n      dup2\n      mstore\n      0x20\n      add\n      swap1\n      dup2\n      mstore\n      0x20\n      add\n      0x00\n      keccak256\n        /* \"contracts/token.sol\":2933:2970  allowed[msg.sender][spender] = tokens */\n      dup2\n      swap1\n      sstore\n      pop\n        /* \"contracts/token.sol\":3007:3014  spender */\n      dup3\n        /* \"contracts/token.sol\":2986:3023  Approval(msg.sender, spender, tokens) */\n      0xffffffffffffffffffffffffffffffffffffffff\n      and\n        /* \"contracts/token.sol\":2995:3005  msg.sender */\n      caller\n        /* \"contracts/token.sol\":2986:3023  Approval(msg.sender, spender, tokens) */\n      0xffffffffffffffffffffffffffffffffffffffff\n      and\n      0x8c5be1e5ebec7d5bd14f71427d1e84f3dd0314c0f7b2291e5b200ac8c7c3b925\n        /* \"contracts/token.sol\":3016:3022  tokens */\n      dup5\n        /* \"contracts/token.sol\":2986:3023  Approval(msg.sender, spender, tokens) */\n      mload(0x40)\n      tag_114\n      swap2\n      swap1\n      tag_43\n      jump\t// in\n    tag_114:\n      mload(0x40)\n      dup1\n      swap2\n      sub\n      swap1\n      log3\n        /* \"contracts/token.sol\":3041:3045  true */\n      0x01\n        /* \"contracts/token.sol\":3034:3045  return true */\n      swap1\n      pop\n        /* \"contracts/token.sol\":2836:3053  function approve(address spender, uint tokens) public override returns (bool success) {... */\n      swap3\n      swap2\n      pop\n      pop\n      jump\t// out\n        /* \"contracts/token.sol\":2277:2397  function totalSupply() public view override returns (uint) {... */\n    tag_41:\n        /* \"contracts/token.sol\":2330:2334  uint */\n      0x00\n        /* \"contracts/token.sol\":2369:2377  balances */\n      0x04\n        /* \"contracts/token.sol\":2369:2389  balances[address(0)] */\n      0x00\n        /* \"contracts/token.sol\":2386:2387  0 */\n      dup1\n        /* \"contracts/token.sol\":2369:2389  balances[address(0)] */\n      0xffffffffffffffffffffffffffffffffffffffff\n      and\n      0xffffffffffffffffffffffffffffffffffffffff\n      and\n      dup2\n      mstore\n      0x20\n      add\n      swap1\n      dup2\n      mstore\n      0x20\n      add\n      0x00\n      keccak256\n      sload\n        /* \"contracts/token.sol\":2354:2366  _totalSupply */\n      sload(0x03)\n        /* \"contracts/token.sol\":2354:2389  _totalSupply - balances[address(0)] */\n      tag_116\n      swap2\n      swap1\n      tag_117\n      jump\t// in\n    tag_116:\n        /* \"contracts/token.sol\":2347:2389  return _totalSupply - balances[address(0)] */\n      swap1\n      pop\n        /* \"contracts/token.sol\":2277:2397  function totalSupply() public view override returns (uint) {... */\n      swap1\n      jump\t// out\n        /* \"contracts/token.sol\":3061:3428  function transferFrom(address from, address to, uint tokens) public override returns (bool success) {... */\n    tag_48:\n        /* \"contracts/token.sol\":3147:3159  bool success */\n      0x00\n        /* \"contracts/token.sol\":3189:3220  safeSub(balances[from], tokens) */\n      tag_119\n        /* \"contracts/token.sol\":3197:3205  balances */\n      0x04\n        /* \"contracts/token.sol\":3197:3211  balances[from] */\n      0x00\n        /* \"contracts/token.sol\":3206:3210  from */\n      dup7\n        /* \"contracts/token.sol\":3197:3211  balances[from] */\n      0xffffffffffffffffffffffffffffffffffffffff\n      and\n      0xffffffffffffffffffffffffffffffffffffffff\n      and\n      dup2\n      mstore\n      0x20\n      add\n      swap1\n      dup2\n      mstore\n      0x20\n      add\n      0x00\n      keccak256\n      sload\n        /* \"contracts/token.sol\":3213:3219  tokens */\n      dup4\n        /* \"contracts/token.sol\":3189:3196  safeSub */\n      tag_73\n        /* \"contracts/token.sol\":3189:3220  safeSub(balances[from], tokens) */\n      jump\t// in\n    tag_119:\n        /* \"contracts/token.sol\":3172:3180  balances */\n      0x04\n        /* \"contracts/token.sol\":3172:3186  balances[from] */\n      0x00\n        /* \"contracts/token.sol\":3181:3185  from */\n      dup7\n        /* \"contracts/token.sol\":3172:3186  balances[from] */\n      0xffffffffffffffffffffffffffffffffffffffff\n      and\n      0xffffffffffffffffffffffffffffffffffffffff\n      and\n      dup2\n      mstore\n      0x20\n      add\n      swap1\n      dup2\n      mstore\n      0x20\n      add\n      0x00\n      keccak256\n        /* \"contracts/token.sol\":3172:3220  balances[from] = safeSub(balances[from], tokens) */\n      dup2\n      swap1\n      sstore\n      pop\n        /* \"contracts/token.sol\":3259:3301  safeSub(allowed[from][msg.sender], tokens) */\n      tag_120\n        /* \"contracts/token.sol\":3267:3274  allowed */\n      0x05\n        /* \"contracts/token.sol\":3267:3280  allowed[from] */\n      0x00\n        /* \"contracts/token.sol\":3275:3279  from */\n      dup7\n        /* \"contracts/token.sol\":3267:3280  allowed[from] */\n      0xffffffffffffffffffffffffffffffffffffffff\n      and\n      0xffffffffffffffffffffffffffffffffffffffff\n      and\n      dup2\n      mstore\n      0x20\n      add\n      swap1\n      dup2\n      mstore\n      0x20\n      add\n      0x00\n      keccak256\n        /* \"contracts/token.sol\":3267:3292  allowed[from][msg.sender] */\n      0x00\n        /* \"contracts/token.sol\":3281:3291  msg.sender */\n      caller\n        /* \"contracts/token.sol\":3267:3292  allowed[from][msg.sender] */\n      0xffffffffffffffffffffffffffffffffffffffff\n      and\n      0xffffffffffffffffffffffffffffffffffffffff\n      and\n      dup2\n      mstore\n      0x20\n      add\n      swap1\n      dup2\n      mstore\n      0x20\n      add\n      0x00\n      keccak256\n      sload\n        /* \"contracts/token.sol\":3294:3300  tokens */\n      dup4\n        /* \"contracts/token.sol\":3259:3266  safeSub */\n      tag_73\n        /* \"contracts/token.sol\":3259:3301  safeSub(allowed[from][msg.sender], tokens) */\n      jump\t// in\n    tag_120:\n        /* \"contracts/token.sol\":3231:3238  allowed */\n      0x05\n        /* \"contracts/token.sol\":3231:3244  allowed[from] */\n      0x00\n        /* \"contracts/token.sol\":3239:3243  from */\n      dup7\n        /* \"contracts/token.sol\":3231:3244  allowed[from] */\n      0xffffffffffffffffffffffffffffffffffffffff\n      and\n      0xffffffffffffffffffffffffffffffffffffffff\n      and\n      dup2\n      mstore\n      0x20\n      add\n      swap1\n      dup2\n      mstore\n      0x20\n      add\n      0x00\n      keccak256\n        /* \"contracts/token.sol\":3231:3256  allowed[from][msg.sender] */\n      0x00\n        /* \"contracts/token.sol\":3245:3255  msg.sender */\n      caller\n        /* \"contracts/token.sol\":3231:3256  allowed[from][msg.sender] */\n      0xffffffffffffffffffffffffffffffffffffffff\n      and\n      0xffffffffffffffffffffffffffffffffffffffff\n      and\n      dup2\n      mstore\n      0x20\n      add\n      swap1\n      dup2\n      mstore\n      0x20\n      add\n      0x00\n      keccak256\n        /* \"contracts/token.sol\":3231:3301  allowed[from][msg.sender] = safeSub(allowed[from][msg.sender], tokens) */\n      dup2\n      swap1\n      sstore\n      pop\n        /* \"contracts/token.sol\":3327:3356  safeAdd(balances[to], tokens) */\n      tag_121\n        /* \"contracts/token.sol\":3335:3343  balances */\n      0x04\n        /* \"contracts/token.sol\":3335:3347  balances[to] */\n      0x00\n        /* \"contracts/token.sol\":3344:3346  to */\n      dup6\n        /* \"contracts/token.sol\":3335:3347  balances[to] */\n      0xffffffffffffffffffffffffffffffffffffffff\n      and\n      0xffffffffffffffffffffffffffffffffffffffff\n      and\n      dup2\n      mstore\n      0x20\n      add\n      swap1\n      dup2\n      mstore\n      0x20\n      add\n      0x00\n      keccak256\n      sload\n        /* \"contracts/token.sol\":3349:3355  tokens */\n      dup4\n        /* \"contracts/token.sol\":3327:3334  safeAdd */\n      tag_105\n        /* \"contracts/token.sol\":3327:3356  safeAdd(balances[to], tokens) */\n      jump\t// in\n    tag_121:\n        /* \"contracts/token.sol\":3312:3320  balances */\n      0x04\n        /* \"contracts/token.sol\":3312:3324  balances[to] */\n      0x00\n        /* \"contracts/token.sol\":3321:3323  to */\n      dup6\n        /* \"contracts/token.sol\":3312:3324  balances[to] */\n      0xffffffffffffffffffffffffffffffffffffffff\n      and\n      0xffffffffffffffffffffffffffffffffffffffff\n      and\n      dup2\n      mstore\n      0x20\n      add\n      swap1\n      dup2\n      mstore\n      0x20\n      add\n      0x00\n      keccak256\n        /* \"contracts/token.sol\":3312:3356  balances[to] = safeAdd(balances[to], tokens) */\n      dup2\n      swap1\n      sstore\n      pop\n        /* \"contracts/token.sol\":3387:3389  to */\n      dup3\n        /* \"contracts/token.sol\":3372:3398  Transfer(from, to, tokens) */\n      0xffffffffffffffffffffffffffffffffffffffff\n      and\n        /* \"contracts/token.sol\":3381:3385  from */\n      dup5\n        /* \"contracts/token.sol\":3372:3398  Transfer(from, to, tokens) */\n      0xffffffffffffffffffffffffffffffffffffffff\n      and\n      0xddf252ad1be2c89b69c2b068fc378daa952ba7f163c4a11628f55a4df523b3ef\n        /* \"contracts/token.sol\":3391:3397  tokens */\n      dup5\n        /* \"contracts/token.sol\":3372:3398  Transfer(from, to, tokens) */\n      mload(0x40)\n      tag_122\n      swap2\n      swap1\n      tag_43\n      jump\t// in\n    tag_122:\n      mload(0x40)\n      dup1\n      swap2\n      sub\n      swap1\n      log3\n        /* \"contracts/token.sol\":3416:3420  true */\n      0x01\n        /* \"contracts/token.sol\":3409:3420  return true */\n      swap1\n      pop\n        /* \"contracts/token.sol\":3061:3428  function transferFrom(address from, address to, uint tokens) public override returns (bool success) {... */\n      swap4\n      swap3\n      pop\n      pop\n      pop\n      jump\t// out\n        /* \"contracts/token.sol\":1807:1828  uint8 public decimals */\n    tag_52:\n      0x02\n      0x00\n      swap1\n      sload\n      swap1\n      0x0100\n      exp\n      swap1\n      div\n      0xff\n      and\n      dup2\n      jump\t// out\n        /* \"contracts/token.sol\":1835:1859  uint public _totalSupply */\n    tag_57:\n      sload(0x03)\n      dup2\n      jump\t// out\n        /* \"contracts/token.sol\":2405:2534  function balanceOf(address tokenOwner) public view override returns (uint balance) {... */\n    tag_63:\n        /* \"contracts/token.sol\":2474:2486  uint balance */\n      0x00\n        /* \"contracts/token.sol\":2506:2514  balances */\n      0x04\n        /* \"contracts/token.sol\":2506:2526  balances[tokenOwner] */\n      0x00\n        /* \"contracts/token.sol\":2515:2525  tokenOwner */\n      dup4\n        /* \"contracts/token.sol\":2506:2526  balances[tokenOwner] */\n      0xffffffffffffffffffffffffffffffffffffffff\n      and\n      0xffffffffffffffffffffffffffffffffffffffff\n      and\n      dup2\n      mstore\n      0x20\n      add\n      swap1\n      dup2\n      mstore\n      0x20\n      add\n      0x00\n      keccak256\n      sload\n        /* \"contracts/token.sol\":2499:2526  return balances[tokenOwner] */\n      swap1\n      pop\n        /* \"contracts/token.sol\":2405:2534  function balanceOf(address tokenOwner) public view override returns (uint balance) {... */\n      swap2\n      swap1\n      pop\n      jump\t// out\n        /* \"contracts/token.sol\":1755:1775  string public symbol */\n    tag_67:\n      0x00\n      dup1\n      sload\n      tag_124\n      swap1\n      tag_108\n      jump\t// in\n    tag_124:\n      dup1\n      0x1f\n      add\n      0x20\n      dup1\n      swap2\n      div\n      mul\n      0x20\n      add\n      mload(0x40)\n      swap1\n      dup2\n      add\n      0x40\n      mstore\n      dup1\n      swap3\n      swap2\n      swap1\n      dup2\n      dup2\n      mstore\n      0x20\n      add\n      dup3\n      dup1\n      sload\n      tag_125\n      swap1\n      tag_108\n      jump\t// in\n    tag_125:\n      dup1\n      iszero\n      tag_126\n      jumpi\n      dup1\n      0x1f\n      lt\n      tag_127\n      jumpi\n      0x0100\n      dup1\n      dup4\n      sload\n      div\n      mul\n      dup4\n      mstore\n      swap2\n      0x20\n      add\n      swap2\n      jump(tag_126)\n    tag_127:\n      dup3\n      add\n      swap2\n      swap1\n      0x00\n      mstore\n      keccak256(0x00, 0x20)\n      swap1\n    tag_128:\n      dup2\n      sload\n      dup2\n      mstore\n      swap1\n      0x01\n      add\n      swap1\n      0x20\n      add\n      dup1\n      dup4\n      gt\n      tag_128\n      jumpi\n      dup3\n      swap1\n      sub\n      0x1f\n      and\n      dup3\n      add\n      swap2\n    tag_126:\n      pop\n      pop\n      pop\n      pop\n      pop\n      dup2\n      jump\t// out\n        /* \"contracts/token.sol\":258:399  function safeSub(uint a, uint b) public pure returns (uint c) {... */\n    tag_73:\n        /* \"contracts/token.sol\":312:318  uint c */\n      0x00\n        /* \"contracts/token.sol\":344:345  a */\n      dup3\n        /* \"contracts/token.sol\":339:340  b */\n      dup3\n        /* \"contracts/token.sol\":339:345  b <= a */\n      gt\n      iszero\n        /* \"contracts/token.sol\":331:371  require(b <= a, \"Subtraction underflow\") */\n      tag_130\n      jumpi\n      mload(0x40)\n      0x08c379a000000000000000000000000000000000000000000000000000000000\n      dup2\n      mstore\n      0x04\n      add\n      tag_131\n      swap1\n      tag_132\n      jump\t// in\n    tag_131:\n      mload(0x40)\n      dup1\n      swap2\n      sub\n      swap1\n      revert\n    tag_130:\n        /* \"contracts/token.sol\":390:391  b */\n      dup2\n        /* \"contracts/token.sol\":386:387  a */\n      dup4\n        /* \"contracts/token.sol\":386:391  a - b */\n      tag_133\n      swap2\n      swap1\n      tag_117\n      jump\t// in\n    tag_133:\n        /* \"contracts/token.sol\":382:391  c = a - b */\n      swap1\n      pop\n        /* \"contracts/token.sol\":258:399  function safeSub(uint a, uint b) public pure returns (uint c) {... */\n      swap3\n      swap2\n      pop\n      pop\n      jump\t// out\n        /* \"contracts/token.sol\":2542:2828  function transfer(address to, uint tokens) public override returns (bool success) {... */\n    tag_78:\n        /* \"contracts/token.sol\":2610:2622  bool success */\n      0x00\n        /* \"contracts/token.sol\":2658:2695  safeSub(balances[msg.sender], tokens) */\n      tag_135\n        /* \"contracts/token.sol\":2666:2674  balances */\n      0x04\n        /* \"contracts/token.sol\":2666:2686  balances[msg.sender] */\n      0x00\n        /* \"contracts/token.sol\":2675:2685  msg.sender */\n      caller\n        /* \"contracts/token.sol\":2666:2686  balances[msg.sender] */\n      0xffffffffffffffffffffffffffffffffffffffff\n      and\n      0xffffffffffffffffffffffffffffffffffffffff\n      and\n      dup2\n      mstore\n      0x20\n      add\n      swap1\n      dup2\n      mstore\n      0x20\n      add\n      0x00\n      keccak256\n      sload\n        /* \"contracts/token.sol\":2688:2694  tokens */\n      dup4\n        /* \"contracts/token.sol\":2658:2665  safeSub */\n      tag_73\n        /* \"contracts/token.sol\":2658:2695  safeSub(balances[msg.sender], tokens) */\n      jump\t// in\n    tag_135:\n        /* \"contracts/token.sol\":2635:2643  balances */\n      0x04\n        /* \"contracts/token.sol\":2635:2655  balances[msg.sender] */\n      0x00\n        /* \"contracts/token.sol\":2644:2654  msg.sender */\n      caller\n        /* \"contracts/token.sol\":2635:2655  balances[msg.sender] */\n      0xffffffffffffffffffffffffffffffffffffffff\n      and\n      0xffffffffffffffffffffffffffffffffffffffff\n      and\n      dup2\n      mstore\n      0x20\n      add\n      swap1\n      dup2\n      mstore\n      0x20\n      add\n      0x00\n      keccak256\n        /* \"contracts/token.sol\":2635:2695  balances[msg.sender] = safeSub(balances[msg.sender], tokens) */\n      dup2\n      swap1\n      sstore\n      pop\n        /* \"contracts/token.sol\":2721:2750  safeAdd(balances[to], tokens) */\n      tag_136\n        /* \"contracts/token.sol\":2729:2737  balances */\n      0x04\n        /* \"contracts/token.sol\":2729:2741  balances[to] */\n      0x00\n        /* \"contracts/token.sol\":2738:2740  to */\n      dup6\n        /* \"contracts/token.sol\":2729:2741  balances[to] */\n      0xffffffffffffffffffffffffffffffffffffffff\n      and\n      0xffffffffffffffffffffffffffffffffffffffff\n      and\n      dup2\n      mstore\n      0x20\n      add\n      swap1\n      dup2\n      mstore\n      0x20\n      add\n      0x00\n      keccak256\n      sload\n        /* \"contracts/token.sol\":2743:2749  tokens */\n      dup4\n        /* \"contracts/token.sol\":2721:2728  safeAdd */\n      tag_105\n        /* \"contracts/token.sol\":2721:2750  safeAdd(balances[to], tokens) */\n      jump\t// in\n    tag_136:\n        /* \"contracts/token.sol\":2706:2714  balances */\n      0x04\n        /* \"contracts/token.sol\":2706:2718  balances[to] */\n      0x00\n        /* \"contracts/token.sol\":2715:2717  to */\n      dup6\n        /* \"contracts/token.sol\":2706:2718  balances[to] */\n      0xffffffffffffffffffffffffffffffffffffffff\n      and\n      0xffffffffffffffffffffffffffffffffffffffff\n      and\n      dup2\n      mstore\n      0x20\n      add\n      swap1\n      dup2\n      mstore\n      0x20\n      add\n      0x00\n      keccak256\n        /* \"contracts/token.sol\":2706:2750  balances[to] = safeAdd(balances[to], tokens) */\n      dup2\n      swap1\n      sstore\n      pop\n        /* \"contracts/token.sol\":2787:2789  to */\n      dup3\n        /* \"contracts/token.sol\":2766:2798  Transfer(msg.sender, to, tokens) */\n      0xffffffffffffffffffffffffffffffffffffffff\n      and\n        /* \"contracts/token.sol\":2775:2785  msg.sender */\n      caller\n        /* \"contracts/token.sol\":2766:2798  Transfer(msg.sender, to, tokens) */\n      0xffffffffffffffffffffffffffffffffffffffff\n      and\n      0xddf252ad1be2c89b69c2b068fc378daa952ba7f163c4a11628f55a4df523b3ef\n        /* \"contracts/token.sol\":2791:2797  tokens */\n      dup5\n        /* \"contracts/token.sol\":2766:2798  Transfer(msg.sender, to, tokens) */\n      mload(0x40)\n      tag_137\n      swap2\n      swap1\n      tag_43\n      jump\t// in\n    tag_137:\n      mload(0x40)\n      dup1\n      swap2\n      sub\n      swap1\n      log3\n        /* \"contracts/token.sol\":2816:2820  true */\n      0x01\n        /* \"contracts/token.sol\":2809:2820  return true */\n      swap1\n      pop\n        /* \"contracts/token.sol\":2542:2828  function transfer(address to, uint tokens) public override returns (bool success) {... */\n      swap3\n      swap2\n      pop\n      pop\n      jump\t// out\n        /* \"contracts/token.sol\":572:707  function safeDiv(uint a, uint b) public pure returns (uint c) {... */\n    tag_83:\n        /* \"contracts/token.sol\":626:632  uint c */\n      0x00\n        /* \"contracts/token.sol\":657:658  0 */\n      dup1\n        /* \"contracts/token.sol\":653:654  b */\n      dup3\n        /* \"contracts/token.sol\":653:658  b > 0 */\n      gt\n        /* \"contracts/token.sol\":645:679  require(b > 0, \"Division by zero\") */\n      tag_139\n      jumpi\n      mload(0x40)\n      0x08c379a000000000000000000000000000000000000000000000000000000000\n      dup2\n      mstore\n      0x04\n      add\n      tag_140\n      swap1\n      tag_141\n      jump\t// in\n    tag_140:\n      mload(0x40)\n      dup1\n      swap2\n      sub\n      swap1\n      revert\n    tag_139:\n        /* \"contracts/token.sol\":698:699  b */\n      dup2\n        /* \"contracts/token.sol\":694:695  a */\n      dup4\n        /* \"contracts/token.sol\":694:699  a / b */\n      tag_142\n      swap2\n      swap1\n      tag_143\n      jump\t// in\n    tag_142:\n        /* \"contracts/token.sol\":690:699  c = a / b */\n      swap1\n      pop\n        /* \"contracts/token.sol\":572:707  function safeDiv(uint a, uint b) public pure returns (uint c) {... */\n      swap3\n      swap2\n      pop\n      pop\n      jump\t// out\n        /* \"contracts/token.sol\":3600:3935  function approveAndCall(address spender, uint tokens, bytes calldata data) public returns (bool success) {... */\n    tag_89:\n        /* \"contracts/token.sol\":3691:3703  bool success */\n      0x00\n        /* \"contracts/token.sol\":3747:3753  tokens */\n      dup4\n        /* \"contracts/token.sol\":3716:3723  allowed */\n      0x05\n        /* \"contracts/token.sol\":3716:3735  allowed[msg.sender] */\n      0x00\n        /* \"contracts/token.sol\":3724:3734  msg.sender */\n      caller\n        /* \"contracts/token.sol\":3716:3735  allowed[msg.sender] */\n      0xffffffffffffffffffffffffffffffffffffffff\n      and\n      0xffffffffffffffffffffffffffffffffffffffff\n      and\n      dup2\n      mstore\n      0x20\n      add\n      swap1\n      dup2\n      mstore\n      0x20\n      add\n      0x00\n      keccak256\n        /* \"contracts/token.sol\":3716:3744  allowed[msg.sender][spender] */\n      0x00\n        /* \"contracts/token.sol\":3736:3743  spender */\n      dup8\n        /* \"contracts/token.sol\":3716:3744  allowed[msg.sender][spender] */\n      0xffffffffffffffffffffffffffffffffffffffff\n      and\n      0xffffffffffffffffffffffffffffffffffffffff\n      and\n      dup2\n      mstore\n      0x20\n      add\n      swap1\n      dup2\n      mstore\n      0x20\n      add\n      0x00\n      keccak256\n        /* \"contracts/token.sol\":3716:3753  allowed[msg.sender][spender] = tokens */\n      dup2\n      swap1\n      sstore\n      pop\n        /* \"contracts/token.sol\":3790:3797  spender */\n      dup5\n        /* \"contracts/token.sol\":3769:3806  Approval(msg.sender, spender, tokens) */\n      0xffffffffffffffffffffffffffffffffffffffff\n      and\n        /* \"contracts/token.sol\":3778:3788  msg.sender */\n      caller\n        /* \"contracts/token.sol\":3769:3806  Approval(msg.sender, spender, tokens) */\n      0xffffffffffffffffffffffffffffffffffffffff\n      and\n      0x8c5be1e5ebec7d5bd14f71427d1e84f3dd0314c0f7b2291e5b200ac8c7c3b925\n        /* \"contracts/token.sol\":3799:3805  tokens */\n      dup7\n        /* \"contracts/token.sol\":3769:3806  Approval(msg.sender, spender, tokens) */\n      mload(0x40)\n      tag_145\n      swap2\n      swap1\n      tag_43\n      jump\t// in\n    tag_145:\n      mload(0x40)\n      dup1\n      swap2\n      sub\n      swap1\n      log3\n        /* \"contracts/token.sol\":3840:3847  spender */\n      dup5\n        /* \"contracts/token.sol\":3817:3864  ApproveAndCallFallBack(spender).receiveApproval */\n      0xffffffffffffffffffffffffffffffffffffffff\n      and\n      0x8f4ffcb1\n        /* \"contracts/token.sol\":3865:3875  msg.sender */\n      caller\n        /* \"contracts/token.sol\":3877:3883  tokens */\n      dup7\n        /* \"contracts/token.sol\":3893:3897  this */\n      address\n        /* \"contracts/token.sol\":3900:3904  data */\n      dup8\n      dup8\n        /* \"contracts/token.sol\":3817:3905  ApproveAndCallFallBack(spender).receiveApproval(msg.sender, tokens, address(this), data) */\n      mload(0x40)\n      dup7\n      0xffffffff\n      and\n      0xe0\n      shl\n      dup2\n      mstore\n      0x04\n      add\n      tag_146\n      swap6\n      swap5\n      swap4\n      swap3\n      swap2\n      swap1\n      tag_147\n      jump\t// in\n    tag_146:\n      0x00\n      mload(0x40)\n      dup1\n      dup4\n      sub\n      dup2\n      0x00\n      dup8\n      dup1\n      extcodesize\n      iszero\n      dup1\n      iszero\n      tag_148\n      jumpi\n      0x00\n      dup1\n      revert\n    tag_148:\n      pop\n      gas\n      call\n      iszero\n      dup1\n      iszero\n      tag_150\n      jumpi\n      returndatasize\n      0x00\n      dup1\n      returndatacopy\n      revert(0x00, returndatasize)\n    tag_150:\n      pop\n      pop\n      pop\n      pop\n        /* \"contracts/token.sol\":3923:3927  true */\n      0x01\n        /* \"contracts/token.sol\":3916:3927  return true */\n      swap1\n      pop\n        /* \"contracts/token.sol\":3600:3935  function approveAndCall(address spender, uint tokens, bytes calldata data) public returns (bool success) {... */\n      swap5\n      swap4\n      pop\n      pop\n      pop\n      pop\n      jump\t// out\n        /* \"contracts/token.sol\":407:564  function safeMul(uint a, uint b) public pure returns (uint c) {... */\n    tag_94:\n        /* \"contracts/token.sol\":461:467  uint c */\n      0x00\n        /* \"contracts/token.sol\":488:489  b */\n      dup2\n        /* \"contracts/token.sol\":484:485  a */\n      dup4\n        /* \"contracts/token.sol\":484:489  a * b */\n      tag_152\n      swap2\n      swap1\n      tag_153\n      jump\t// in\n    tag_152:\n        /* \"contracts/token.sol\":480:489  c = a * b */\n      swap1\n      pop\n        /* \"contracts/token.sol\":513:514  0 */\n      0x00\n        /* \"contracts/token.sol\":508:509  a */\n      dup4\n        /* \"contracts/token.sol\":508:514  a == 0 */\n      eq\n        /* \"contracts/token.sol\":508:528  a == 0 || c / a == b */\n      dup1\n      tag_154\n      jumpi\n      pop\n        /* \"contracts/token.sol\":527:528  b */\n      dup2\n        /* \"contracts/token.sol\":522:523  a */\n      dup4\n        /* \"contracts/token.sol\":518:519  c */\n      dup3\n        /* \"contracts/token.sol\":518:523  c / a */\n      tag_155\n      swap2\n      swap1\n      tag_143\n      jump\t// in\n    tag_155:\n        /* \"contracts/token.sol\":518:528  c / a == b */\n      eq\n        /* \"contracts/token.sol\":508:528  a == 0 || c / a == b */\n    tag_154:\n        /* \"contracts/token.sol\":500:556  require(a == 0 || c / a == b, \"Multiplication overflow\") */\n      tag_156\n      jumpi\n      mload(0x40)\n      0x08c379a000000000000000000000000000000000000000000000000000000000\n      dup2\n      mstore\n      0x04\n      add\n      tag_157\n      swap1\n      tag_158\n      jump\t// in\n    tag_157:\n      mload(0x40)\n      dup1\n      swap2\n      sub\n      swap1\n      revert\n    tag_156:\n        /* \"contracts/token.sol\":407:564  function safeMul(uint a, uint b) public pure returns (uint c) {... */\n      swap3\n      swap2\n      pop\n      pop\n      jump\t// out\n        /* \"contracts/token.sol\":3436:3592  function allowance(address tokenOwner, address spender) public view override returns (uint remaining) {... */\n    tag_100:\n        /* \"contracts/token.sol\":3522:3536  uint remaining */\n      0x00\n        /* \"contracts/token.sol\":3556:3563  allowed */\n      0x05\n        /* \"contracts/token.sol\":3556:3575  allowed[tokenOwner] */\n      0x00\n        /* \"contracts/token.sol\":3564:3574  tokenOwner */\n      dup5\n        /* \"contracts/token.sol\":3556:3575  allowed[tokenOwner] */\n      0xffffffffffffffffffffffffffffffffffffffff\n      and\n      0xffffffffffffffffffffffffffffffffffffffff\n      and\n      dup2\n      mstore\n      0x20\n      add\n      swap1\n      dup2\n      mstore\n      0x20\n      add\n      0x00\n      keccak256\n        /* \"contracts/token.sol\":3556:3584  allowed[tokenOwner][spender] */\n      0x00\n        /* \"contracts/token.sol\":3576:3583  spender */\n      dup4\n        /* \"contracts/token.sol\":3556:3584  allowed[tokenOwner][spender] */\n      0xffffffffffffffffffffffffffffffffffffffff\n      and\n      0xffffffffffffffffffffffffffffffffffffffff\n      and\n      dup2\n      mstore\n      0x20\n      add\n      swap1\n      dup2\n      mstore\n      0x20\n      add\n      0x00\n      keccak256\n      sload\n        /* \"contracts/token.sol\":3549:3584  return allowed[tokenOwner][spender] */\n      swap1\n      pop\n        /* \"contracts/token.sol\":3436:3592  function allowance(address tokenOwner, address spender) public view override returns (uint remaining) {... */\n      swap3\n      swap2\n      pop\n      pop\n      jump\t// out\n        /* \"contracts/token.sol\":113:250  function safeAdd(uint a, uint b) public pure returns (uint c) {... */\n    tag_105:\n        /* \"contracts/token.sol\":167:173  uint c */\n      0x00\n        /* \"contracts/token.sol\":194:195  b */\n      dup2\n        /* \"contracts/token.sol\":190:191  a */\n      dup4\n        /* \"contracts/token.sol\":190:195  a + b */\n      tag_161\n      swap2\n      swap1\n      tag_162\n      jump\t// in\n    tag_161:\n        /* \"contracts/token.sol\":186:195  c = a + b */\n      swap1\n      pop\n        /* \"contracts/token.sol\":219:220  a */\n      dup3\n        /* \"contracts/token.sol\":214:215  c */\n      dup2\n        /* \"contracts/token.sol\":214:220  c >= a */\n      lt\n      iszero\n        /* \"contracts/token.sol\":206:242  require(c >= a, \"Addition overflow\") */\n      tag_163\n      jumpi\n      mload(0x40)\n      0x08c379a000000000000000000000000000000000000000000000000000000000\n      dup2\n      mstore\n      0x04\n      add\n      tag_164\n      swap1\n      tag_165\n      jump\t// in\n    tag_164:\n      mload(0x40)\n      dup1\n      swap2\n      sub\n      swap1\n      revert\n    tag_163:\n        /* \"contracts/token.sol\":113:250  function safeAdd(uint a, uint b) public pure returns (uint c) {... */\n      swap3\n      swap2\n      pop\n      pop\n      jump\t// out\n        /* \"#utility.yul\":7:176   */\n    tag_166:\n        /* \"#utility.yul\":91:102   */\n      0x00\n        /* \"#utility.yul\":125:131   */\n      dup3\n        /* \"#utility.yul\":120:123   */\n      dup3\n        /* \"#utility.yul\":113:132   */\n      mstore\n        /* \"#utility.yul\":165:169   */\n      0x20\n        /* \"#utility.yul\":160:163   */\n      dup3\n        /* \"#utility.yul\":156:170   */\n      add\n        /* \"#utility.yul\":141:170   */\n      swap1\n      pop\n        /* \"#utility.yul\":7:176   */\n      swap3\n      swap2\n      pop\n      pop\n      jump\t// out\n        /* \"#utility.yul\":182:356   */\n    tag_167:\n        /* \"#utility.yul\":322:348   */\n      0x46616c6c6261636b2066756e6374696f6e2063616c6c65640000000000000000\n        /* \"#utility.yul\":318:319   */\n      0x00\n        /* \"#utility.yul\":310:316   */\n      dup3\n        /* \"#utility.yul\":306:320   */\n      add\n        /* \"#utility.yul\":299:349   */\n      mstore\n        /* \"#utility.yul\":182:356   */\n      pop\n      jump\t// out\n        /* \"#utility.yul\":362:728   */\n    tag_168:\n        /* \"#utility.yul\":504:507   */\n      0x00\n        /* \"#utility.yul\":525:592   */\n      tag_211\n        /* \"#utility.yul\":589:591   */\n      0x18\n        /* \"#utility.yul\":584:587   */\n      dup4\n        /* \"#utility.yul\":525:592   */\n      tag_166\n      jump\t// in\n    tag_211:\n        /* \"#utility.yul\":518:592   */\n      swap2\n      pop\n        /* \"#utility.yul\":601:694   */\n      tag_212\n        /* \"#utility.yul\":690:693   */\n      dup3\n        /* \"#utility.yul\":601:694   */\n      tag_167\n      jump\t// in\n    tag_212:\n        /* \"#utility.yul\":719:721   */\n      0x20\n        /* \"#utility.yul\":714:717   */\n      dup3\n        /* \"#utility.yul\":710:722   */\n      add\n        /* \"#utility.yul\":703:722   */\n      swap1\n      pop\n        /* \"#utility.yul\":362:728   */\n      swap2\n      swap1\n      pop\n      jump\t// out\n        /* \"#utility.yul\":734:1153   */\n    tag_26:\n        /* \"#utility.yul\":900:904   */\n      0x00\n        /* \"#utility.yul\":938:940   */\n      0x20\n        /* \"#utility.yul\":927:936   */\n      dup3\n        /* \"#utility.yul\":923:941   */\n      add\n        /* \"#utility.yul\":915:941   */\n      swap1\n      pop\n        /* \"#utility.yul\":987:996   */\n      dup2\n        /* \"#utility.yul\":981:985   */\n      dup2\n        /* \"#utility.yul\":977:997   */\n      sub\n        /* \"#utility.yul\":973:974   */\n      0x00\n        /* \"#utility.yul\":962:971   */\n      dup4\n        /* \"#utility.yul\":958:975   */\n      add\n        /* \"#utility.yul\":951:998   */\n      mstore\n        /* \"#utility.yul\":1015:1146   */\n      tag_214\n        /* \"#utility.yul\":1141:1145   */\n      dup2\n        /* \"#utility.yul\":1015:1146   */\n      tag_168\n      jump\t// in\n    tag_214:\n        /* \"#utility.yul\":1007:1146   */\n      swap1\n      pop\n        /* \"#utility.yul\":734:1153   */\n      swap2\n      swap1\n      pop\n      jump\t// out\n        /* \"#utility.yul\":1159:1258   */\n    tag_169:\n        /* \"#utility.yul\":1211:1217   */\n      0x00\n        /* \"#utility.yul\":1245:1250   */\n      dup2\n        /* \"#utility.yul\":1239:1251   */\n      mload\n        /* \"#utility.yul\":1229:1251   */\n      swap1\n      pop\n        /* \"#utility.yul\":1159:1258   */\n      swap2\n      swap1\n      pop\n      jump\t// out\n        /* \"#utility.yul\":1264:1403   */\n    tag_170:\n        /* \"#utility.yul\":1353:1359   */\n      dup3\n        /* \"#utility.yul\":1348:1351   */\n      dup2\n        /* \"#utility.yul\":1343:1346   */\n      dup4\n        /* \"#utility.yul\":1337:1360   */\n      mcopy\n        /* \"#utility.yul\":1394:1395   */\n      0x00\n        /* \"#utility.yul\":1385:1391   */\n      dup4\n        /* \"#utility.yul\":1380:1383   */\n      dup4\n        /* \"#utility.yul\":1376:1392   */\n      add\n        /* \"#utility.yul\":1369:1396   */\n      mstore\n        /* \"#utility.yul\":1264:1403   */\n      pop\n      pop\n      pop\n      jump\t// out\n        /* \"#utility.yul\":1409:1511   */\n    tag_171:\n        /* \"#utility.yul\":1450:1456   */\n      0x00\n        /* \"#utility.yul\":1501:1503   */\n      0x1f\n        /* \"#utility.yul\":1497:1504   */\n      not\n        /* \"#utility.yul\":1492:1494   */\n      0x1f\n        /* \"#utility.yul\":1485:1490   */\n      dup4\n        /* \"#utility.yul\":1481:1495   */\n      add\n        /* \"#utility.yul\":1477:1505   */\n      and\n        /* \"#utility.yul\":1467:1505   */\n      swap1\n      pop\n        /* \"#utility.yul\":1409:1511   */\n      swap2\n      swap1\n      pop\n      jump\t// out\n        /* \"#utility.yul\":1517:1894   */\n    tag_172:\n        /* \"#utility.yul\":1605:1608   */\n      0x00\n        /* \"#utility.yul\":1633:1672   */\n      tag_219\n        /* \"#utility.yul\":1666:1671   */\n      dup3\n        /* \"#utility.yul\":1633:1672   */\n      tag_169\n      jump\t// in\n    tag_219:\n        /* \"#utility.yul\":1688:1759   */\n      tag_220\n        /* \"#utility.yul\":1752:1758   */\n      dup2\n        /* \"#utility.yul\":1747:1750   */\n      dup6\n        /* \"#utility.yul\":1688:1759   */\n      tag_166\n      jump\t// in\n    tag_220:\n        /* \"#utility.yul\":1681:1759   */\n      swap4\n      pop\n        /* \"#utility.yul\":1768:1833   */\n      tag_221\n        /* \"#utility.yul\":1826:1832   */\n      dup2\n        /* \"#utility.yul\":1821:1824   */\n      dup6\n        /* \"#utility.yul\":1814:1818   */\n      0x20\n        /* \"#utility.yul\":1807:1812   */\n      dup7\n        /* \"#utility.yul\":1803:1819   */\n      add\n        /* \"#utility.yul\":1768:1833   */\n      tag_170\n      jump\t// in\n    tag_221:\n        /* \"#utility.yul\":1858:1887   */\n      tag_222\n        /* \"#utility.yul\":1880:1886   */\n      dup2\n        /* \"#utility.yul\":1858:1887   */\n      tag_171\n      jump\t// in\n    tag_222:\n        /* \"#utility.yul\":1853:1856   */\n      dup5\n        /* \"#utility.yul\":1849:1888   */\n      add\n        /* \"#utility.yul\":1842:1888   */\n      swap2\n      pop\n        /* \"#utility.yul\":1609:1894   */\n      pop\n        /* \"#utility.yul\":1517:1894   */\n      swap3\n      swap2\n      pop\n      pop\n      jump\t// out\n        /* \"#utility.yul\":1900:2213   */\n    tag_31:\n        /* \"#utility.yul\":2013:2017   */\n      0x00\n        /* \"#utility.yul\":2051:2053   */\n      0x20\n        /* \"#utility.yul\":2040:2049   */\n      dup3\n        /* \"#utility.yul\":2036:2054   */\n      add\n        /* \"#utility.yul\":2028:2054   */\n      swap1\n      pop\n        /* \"#utility.yul\":2100:2109   */\n      dup2\n        /* \"#utility.yul\":2094:2098   */\n      dup2\n        /* \"#utility.yul\":2090:2110   */\n      sub\n        /* \"#utility.yul\":2086:2087   */\n      0x00\n        /* \"#utility.yul\":2075:2084   */\n      dup4\n        /* \"#utility.yul\":2071:2088   */\n      add\n        /* \"#utility.yul\":2064:2111   */\n      mstore\n        /* \"#utility.yul\":2128:2206   */\n      tag_224\n        /* \"#utility.yul\":2201:2205   */\n      dup2\n        /* \"#utility.yul\":2192:2198   */\n      dup5\n        /* \"#utility.yul\":2128:2206   */\n      tag_172\n      jump\t// in\n    tag_224:\n        /* \"#utility.yul\":2120:2206   */\n      swap1\n      pop\n        /* \"#utility.yul\":1900:2213   */\n      swap3\n      swap2\n      pop\n      pop\n      jump\t// out\n        /* \"#utility.yul\":2300:2417   */\n    tag_174:\n        /* \"#utility.yul\":2409:2410   */\n      0x00\n        /* \"#utility.yul\":2406:2407   */\n      dup1\n        /* \"#utility.yul\":2399:2411   */\n      revert\n        /* \"#utility.yul\":2423:2540   */\n    tag_175:\n        /* \"#utility.yul\":2532:2533   */\n      0x00\n        /* \"#utility.yul\":2529:2530   */\n      dup1\n        /* \"#utility.yul\":2522:2534   */\n      revert\n        /* \"#utility.yul\":2546:2672   */\n    tag_176:\n        /* \"#utility.yul\":2583:2590   */\n      0x00\n        /* \"#utility.yul\":2623:2665   */\n      0xffffffffffffffffffffffffffffffffffffffff\n        /* \"#utility.yul\":2616:2621   */\n      dup3\n        /* \"#utility.yul\":2612:2666   */\n      and\n        /* \"#utility.yul\":2601:2666   */\n      swap1\n      pop\n        /* \"#utility.yul\":2546:2672   */\n      swap2\n      swap1\n      pop\n      jump\t// out\n        /* \"#utility.yul\":2678:2774   */\n    tag_177:\n        /* \"#utility.yul\":2715:2722   */\n      0x00\n        /* \"#utility.yul\":2744:2768   */\n      tag_230\n        /* \"#utility.yul\":2762:2767   */\n      dup3\n        /* \"#utility.yul\":2744:2768   */\n      tag_176\n      jump\t// in\n    tag_230:\n        /* \"#utility.yul\":2733:2768   */\n      swap1\n      pop\n        /* \"#utility.yul\":2678:2774   */\n      swap2\n      swap1\n      pop\n      jump\t// out\n        /* \"#utility.yul\":2780:2902   */\n    tag_178:\n        /* \"#utility.yul\":2853:2877   */\n      tag_232\n        /* \"#utility.yul\":2871:2876   */\n      dup2\n        /* \"#utility.yul\":2853:2877   */\n      tag_177\n      jump\t// in\n    tag_232:\n        /* \"#utility.yul\":2846:2851   */\n      dup2\n        /* \"#utility.yul\":2843:2878   */\n      eq\n        /* \"#utility.yul\":2833:2896   */\n      tag_233\n      jumpi\n        /* \"#utility.yul\":2892:2893   */\n      0x00\n        /* \"#utility.yul\":2889:2890   */\n      dup1\n        /* \"#utility.yul\":2882:2894   */\n      revert\n        /* \"#utility.yul\":2833:2896   */\n    tag_233:\n        /* \"#utility.yul\":2780:2902   */\n      pop\n      jump\t// out\n        /* \"#utility.yul\":2908:3047   */\n    tag_179:\n        /* \"#utility.yul\":2954:2959   */\n      0x00\n        /* \"#utility.yul\":2992:2998   */\n      dup2\n        /* \"#utility.yul\":2979:2999   */\n      calldataload\n        /* \"#utility.yul\":2970:2999   */\n      swap1\n      pop\n        /* \"#utility.yul\":3008:3041   */\n      tag_235\n        /* \"#utility.yul\":3035:3040   */\n      dup2\n        /* \"#utility.yul\":3008:3041   */\n      tag_178\n      jump\t// in\n    tag_235:\n        /* \"#utility.yul\":2908:3047   */\n      swap3\n      swap2\n      pop\n      pop\n      jump\t// out\n        /* \"#utility.yul\":3053:3130   */\n    tag_180:\n        /* \"#utility.yul\":3090:3097   */\n      0x00\n        /* \"#utility.yul\":3119:3124   */\n      dup2\n        /* \"#utility.yul\":3108:3124   */\n      swap1\n      pop\n        /* \"#utility.yul\":3053:3130   */\n      swap2\n      swap1\n      pop\n      jump\t// out\n        /* \"#utility.yul\":3136:3258   */\n    tag_181:\n        /* \"#utility.yul\":3209:3233   */\n      tag_238\n        /* \"#utility.yul\":3227:3232   */\n      dup2\n        /* \"#utility.yul\":3209:3233   */\n      tag_180\n      jump\t// in\n    tag_238:\n        /* \"#utility.yul\":3202:3207   */\n      dup2\n        /* \"#utility.yul\":3199:3234   */\n      eq\n        /* \"#utility.yul\":3189:3252   */\n      tag_239\n      jumpi\n        /* \"#utility.yul\":3248:3249   */\n      0x00\n        /* \"#utility.yul\":3245:3246   */\n      dup1\n        /* \"#utility.yul\":3238:3250   */\n      revert\n        /* \"#utility.yul\":3189:3252   */\n    tag_239:\n        /* \"#utility.yul\":3136:3258   */\n      pop\n      jump\t// out\n        /* \"#utility.yul\":3264:3403   */\n    tag_182:\n        /* \"#utility.yul\":3310:3315   */\n      0x00\n        /* \"#utility.yul\":3348:3354   */\n      dup2\n        /* \"#utility.yul\":3335:3355   */\n      calldataload\n        /* \"#utility.yul\":3326:3355   */\n      swap1\n      pop\n        /* \"#utility.yul\":3364:3397   */\n      tag_241\n        /* \"#utility.yul\":3391:3396   */\n      dup2\n        /* \"#utility.yul\":3364:3397   */\n      tag_181\n      jump\t// in\n    tag_241:\n        /* \"#utility.yul\":3264:3403   */\n      swap3\n      swap2\n      pop\n      pop\n      jump\t// out\n        /* \"#utility.yul\":3409:3883   */\n    tag_35:\n        /* \"#utility.yul\":3477:3483   */\n      0x00\n        /* \"#utility.yul\":3485:3491   */\n      dup1\n        /* \"#utility.yul\":3534:3536   */\n      0x40\n        /* \"#utility.yul\":3522:3531   */\n      dup4\n        /* \"#utility.yul\":3513:3520   */\n      dup6\n        /* \"#utility.yul\":3509:3532   */\n      sub\n        /* \"#utility.yul\":3505:3537   */\n      slt\n        /* \"#utility.yul\":3502:3621   */\n      iszero\n      tag_243\n      jumpi\n        /* \"#utility.yul\":3540:3619   */\n      tag_244\n      tag_174\n      jump\t// in\n    tag_244:\n        /* \"#utility.yul\":3502:3621   */\n    tag_243:\n        /* \"#utility.yul\":3660:3661   */\n      0x00\n        /* \"#utility.yul\":3685:3738   */\n      tag_245\n        /* \"#utility.yul\":3730:3737   */\n      dup6\n        /* \"#utility.yul\":3721:3727   */\n      dup3\n        /* \"#utility.yul\":3710:3719   */\n      dup7\n        /* \"#utility.yul\":3706:3728   */\n      add\n        /* \"#utility.yul\":3685:3738   */\n      tag_179\n      jump\t// in\n    tag_245:\n        /* \"#utility.yul\":3675:3738   */\n      swap3\n      pop\n        /* \"#utility.yul\":3631:3748   */\n      pop\n        /* \"#utility.yul\":3787:3789   */\n      0x20\n        /* \"#utility.yul\":3813:3866   */\n      tag_246\n        /* \"#utility.yul\":3858:3865   */\n      dup6\n        /* \"#utility.yul\":3849:3855   */\n      dup3\n        /* \"#utility.yul\":3838:3847   */\n      dup7\n        /* \"#utility.yul\":3834:3856   */\n      add\n        /* \"#utility.yul\":3813:3866   */\n      tag_182\n      jump\t// in\n    tag_246:\n        /* \"#utility.yul\":3803:3866   */\n      swap2\n      pop\n        /* \"#utility.yul\":3758:3876   */\n      pop\n        /* \"#utility.yul\":3409:3883   */\n      swap3\n      pop\n      swap3\n      swap1\n      pop\n      jump\t// out\n        /* \"#utility.yul\":3889:3979   */\n    tag_183:\n        /* \"#utility.yul\":3923:3930   */\n      0x00\n        /* \"#utility.yul\":3966:3971   */\n      dup2\n        /* \"#utility.yul\":3959:3972   */\n      iszero\n        /* \"#utility.yul\":3952:3973   */\n      iszero\n        /* \"#utility.yul\":3941:3973   */\n      swap1\n      pop\n        /* \"#utility.yul\":3889:3979   */\n      swap2\n      swap1\n      pop\n      jump\t// out\n        /* \"#utility.yul\":3985:4094   */\n    tag_184:\n        /* \"#utility.yul\":4066:4087   */\n      tag_249\n        /* \"#utility.yul\":4081:4086   */\n      dup2\n        /* \"#utility.yul\":4066:4087   */\n      tag_183\n      jump\t// in\n    tag_249:\n        /* \"#utility.yul\":4061:4064   */\n      dup3\n        /* \"#utility.yul\":4054:4088   */\n      mstore\n        /* \"#utility.yul\":3985:4094   */\n      pop\n      pop\n      jump\t// out\n        /* \"#utility.yul\":4100:4310   */\n    tag_38:\n        /* \"#utility.yul\":4187:4191   */\n      0x00\n        /* \"#utility.yul\":4225:4227   */\n      0x20\n        /* \"#utility.yul\":4214:4223   */\n      dup3\n        /* \"#utility.yul\":4210:4228   */\n      add\n        /* \"#utility.yul\":4202:4228   */\n      swap1\n      pop\n        /* \"#utility.yul\":4238:4303   */\n      tag_251\n        /* \"#utility.yul\":4300:4301   */\n      0x00\n        /* \"#utility.yul\":4289:4298   */\n      dup4\n        /* \"#utility.yul\":4285:4302   */\n      add\n        /* \"#utility.yul\":4276:4282   */\n      dup5\n        /* \"#utility.yul\":4238:4303   */\n      tag_184\n      jump\t// in\n    tag_251:\n        /* \"#utility.yul\":4100:4310   */\n      swap3\n      swap2\n      pop\n      pop\n      jump\t// out\n        /* \"#utility.yul\":4316:4434   */\n    tag_185:\n        /* \"#utility.yul\":4403:4427   */\n      tag_253\n        /* \"#utility.yul\":4421:4426   */\n      dup2\n        /* \"#utility.yul\":4403:4427   */\n      tag_180\n      jump\t// in\n    tag_253:\n        /* \"#utility.yul\":4398:4401   */\n      dup3\n        /* \"#utility.yul\":4391:4428   */\n      mstore\n        /* \"#utility.yul\":4316:4434   */\n      pop\n      pop\n      jump\t// out\n        /* \"#utility.yul\":4440:4662   */\n    tag_43:\n        /* \"#utility.yul\":4533:4537   */\n      0x00\n        /* \"#utility.yul\":4571:4573   */\n      0x20\n        /* \"#utility.yul\":4560:4569   */\n      dup3\n        /* \"#utility.yul\":4556:4574   */\n      add\n        /* \"#utility.yul\":4548:4574   */\n      swap1\n      pop\n        /* \"#utility.yul\":4584:4655   */\n      tag_255\n        /* \"#utility.yul\":4652:4653   */\n      0x00\n        /* \"#utility.yul\":4641:4650   */\n      dup4\n        /* \"#utility.yul\":4637:4654   */\n      add\n        /* \"#utility.yul\":4628:4634   */\n      dup5\n        /* \"#utility.yul\":4584:4655   */\n      tag_185\n      jump\t// in\n    tag_255:\n        /* \"#utility.yul\":4440:4662   */\n      swap3\n      swap2\n      pop\n      pop\n      jump\t// out\n        /* \"#utility.yul\":4668:5287   */\n    tag_47:\n        /* \"#utility.yul\":4745:4751   */\n      0x00\n        /* \"#utility.yul\":4753:4759   */\n      dup1\n        /* \"#utility.yul\":4761:4767   */\n      0x00\n        /* \"#utility.yul\":4810:4812   */\n      0x60\n        /* \"#utility.yul\":4798:4807   */\n      dup5\n        /* \"#utility.yul\":4789:4796   */\n      dup7\n        /* \"#utility.yul\":4785:4808   */\n      sub\n        /* \"#utility.yul\":4781:4813   */\n      slt\n        /* \"#utility.yul\":4778:4897   */\n      iszero\n      tag_257\n      jumpi\n        /* \"#utility.yul\":4816:4895   */\n      tag_258\n      tag_174\n      jump\t// in\n    tag_258:\n        /* \"#utility.yul\":4778:4897   */\n    tag_257:\n        /* \"#utility.yul\":4936:4937   */\n      0x00\n        /* \"#utility.yul\":4961:5014   */\n      tag_259\n        /* \"#utility.yul\":5006:5013   */\n      dup7\n        /* \"#utility.yul\":4997:5003   */\n      dup3\n        /* \"#utility.yul\":4986:4995   */\n      dup8\n        /* \"#utility.yul\":4982:5004   */\n      add\n        /* \"#utility.yul\":4961:5014   */\n      tag_179\n      jump\t// in\n    tag_259:\n        /* \"#utility.yul\":4951:5014   */\n      swap4\n      pop\n        /* \"#utility.yul\":4907:5024   */\n      pop\n        /* \"#utility.yul\":5063:5065   */\n      0x20\n        /* \"#utility.yul\":5089:5142   */\n      tag_260\n        /* \"#utility.yul\":5134:5141   */\n      dup7\n        /* \"#utility.yul\":5125:5131   */\n      dup3\n        /* \"#utility.yul\":5114:5123   */\n      dup8\n        /* \"#utility.yul\":5110:5132   */\n      add\n        /* \"#utility.yul\":5089:5142   */\n      tag_179\n      jump\t// in\n    tag_260:\n        /* \"#utility.yul\":5079:5142   */\n      swap3\n      pop\n        /* \"#utility.yul\":5034:5152   */\n      pop\n        /* \"#utility.yul\":5191:5193   */\n      0x40\n        /* \"#utility.yul\":5217:5270   */\n      tag_261\n        /* \"#utility.yul\":5262:5269   */\n      dup7\n        /* \"#utility.yul\":5253:5259   */\n      dup3\n        /* \"#utility.yul\":5242:5251   */\n      dup8\n        /* \"#utility.yul\":5238:5260   */\n      add\n        /* \"#utility.yul\":5217:5270   */\n      tag_182\n      jump\t// in\n    tag_261:\n        /* \"#utility.yul\":5207:5270   */\n      swap2\n      pop\n        /* \"#utility.yul\":5162:5280   */\n      pop\n        /* \"#utility.yul\":4668:5287   */\n      swap3\n      pop\n      swap3\n      pop\n      swap3\n      jump\t// out\n        /* \"#utility.yul\":5293:5379   */\n    tag_186:\n        /* \"#utility.yul\":5328:5335   */\n      0x00\n        /* \"#utility.yul\":5368:5372   */\n      0xff\n        /* \"#utility.yul\":5361:5366   */\n      dup3\n        /* \"#utility.yul\":5357:5373   */\n      and\n        /* \"#utility.yul\":5346:5373   */\n      swap1\n      pop\n        /* \"#utility.yul\":5293:5379   */\n      swap2\n      swap1\n      pop\n      jump\t// out\n        /* \"#utility.yul\":5385:5497   */\n    tag_187:\n        /* \"#utility.yul\":5468:5490   */\n      tag_264\n        /* \"#utility.yul\":5484:5489   */\n      dup2\n        /* \"#utility.yul\":5468:5490   */\n      tag_186\n      jump\t// in\n    tag_264:\n        /* \"#utility.yul\":5463:5466   */\n      dup3\n        /* \"#utility.yul\":5456:5491   */\n      mstore\n        /* \"#utility.yul\":5385:5497   */\n      pop\n      pop\n      jump\t// out\n        /* \"#utility.yul\":5503:5717   */\n    tag_54:\n        /* \"#utility.yul\":5592:5596   */\n      0x00\n        /* \"#utility.yul\":5630:5632   */\n      0x20\n        /* \"#utility.yul\":5619:5628   */\n      dup3\n        /* \"#utility.yul\":5615:5633   */\n      add\n        /* \"#utility.yul\":5607:5633   */\n      swap1\n      pop\n        /* \"#utility.yul\":5643:5710   */\n      tag_266\n        /* \"#utility.yul\":5707:5708   */\n      0x00\n        /* \"#utility.yul\":5696:5705   */\n      dup4\n        /* \"#utility.yul\":5692:5709   */\n      add\n        /* \"#utility.yul\":5683:5689   */\n      dup5\n        /* \"#utility.yul\":5643:5710   */\n      tag_187\n      jump\t// in\n    tag_266:\n        /* \"#utility.yul\":5503:5717   */\n      swap3\n      swap2\n      pop\n      pop\n      jump\t// out\n        /* \"#utility.yul\":5723:6052   */\n    tag_62:\n        /* \"#utility.yul\":5782:5788   */\n      0x00\n        /* \"#utility.yul\":5831:5833   */\n      0x20\n        /* \"#utility.yul\":5819:5828   */\n      dup3\n        /* \"#utility.yul\":5810:5817   */\n      dup5\n        /* \"#utility.yul\":5806:5829   */\n      sub\n        /* \"#utility.yul\":5802:5834   */\n      slt\n        /* \"#utility.yul\":5799:5918   */\n      iszero\n      tag_268\n      jumpi\n        /* \"#utility.yul\":5837:5916   */\n      tag_269\n      tag_174\n      jump\t// in\n    tag_269:\n        /* \"#utility.yul\":5799:5918   */\n    tag_268:\n        /* \"#utility.yul\":5957:5958   */\n      0x00\n        /* \"#utility.yul\":5982:6035   */\n      tag_270\n        /* \"#utility.yul\":6027:6034   */\n      dup5\n        /* \"#utility.yul\":6018:6024   */\n      dup3\n        /* \"#utility.yul\":6007:6016   */\n      dup6\n        /* \"#utility.yul\":6003:6025   */\n      add\n        /* \"#utility.yul\":5982:6035   */\n      tag_179\n      jump\t// in\n    tag_270:\n        /* \"#utility.yul\":5972:6035   */\n      swap2\n      pop\n        /* \"#utility.yul\":5928:6045   */\n      pop\n        /* \"#utility.yul\":5723:6052   */\n      swap3\n      swap2\n      pop\n      pop\n      jump\t// out\n        /* \"#utility.yul\":6058:6532   */\n    tag_72:\n        /* \"#utility.yul\":6126:6132   */\n      0x00\n        /* \"#utility.yul\":6134:6140   */\n      dup1\n        /* \"#utility.yul\":6183:6185   */\n      0x40\n        /* \"#utility.yul\":6171:6180   */\n      dup4\n        /* \"#utility.yul\":6162:6169   */\n      dup6\n        /* \"#utility.yul\":6158:6181   */\n      sub\n        /* \"#utility.yul\":6154:6186   */\n      slt\n        /* \"#utility.yul\":6151:6270   */\n      iszero\n      tag_272\n      jumpi\n        /* \"#utility.yul\":6189:6268   */\n      tag_273\n      tag_174\n      jump\t// in\n    tag_273:\n        /* \"#utility.yul\":6151:6270   */\n    tag_272:\n        /* \"#utility.yul\":6309:6310   */\n      0x00\n        /* \"#utility.yul\":6334:6387   */\n      tag_274\n        /* \"#utility.yul\":6379:6386   */\n      dup6\n        /* \"#utility.yul\":6370:6376   */\n      dup3\n        /* \"#utility.yul\":6359:6368   */\n      dup7\n        /* \"#utility.yul\":6355:6377   */\n      add\n        /* \"#utility.yul\":6334:6387   */\n      tag_182\n      jump\t// in\n    tag_274:\n        /* \"#utility.yul\":6324:6387   */\n      swap3\n      pop\n        /* \"#utility.yul\":6280:6397   */\n      pop\n        /* \"#utility.yul\":6436:6438   */\n      0x20\n        /* \"#utility.yul\":6462:6515   */\n      tag_275\n        /* \"#utility.yul\":6507:6514   */\n      dup6\n        /* \"#utility.yul\":6498:6504   */\n      dup3\n        /* \"#utility.yul\":6487:6496   */\n      dup7\n        /* \"#utility.yul\":6483:6505   */\n      add\n        /* \"#utility.yul\":6462:6515   */\n      tag_182\n      jump\t// in\n    tag_275:\n        /* \"#utility.yul\":6452:6515   */\n      swap2\n      pop\n        /* \"#utility.yul\":6407:6525   */\n      pop\n        /* \"#utility.yul\":6058:6532   */\n      swap3\n      pop\n      swap3\n      swap1\n      pop\n      jump\t// out\n        /* \"#utility.yul\":6538:6655   */\n    tag_188:\n        /* \"#utility.yul\":6647:6648   */\n      0x00\n        /* \"#utility.yul\":6644:6645   */\n      dup1\n        /* \"#utility.yul\":6637:6649   */\n      revert\n        /* \"#utility.yul\":6661:6778   */\n    tag_189:\n        /* \"#utility.yul\":6770:6771   */\n      0x00\n        /* \"#utility.yul\":6767:6768   */\n      dup1\n        /* \"#utility.yul\":6760:6772   */\n      revert\n        /* \"#utility.yul\":6784:6901   */\n    tag_190:\n        /* \"#utility.yul\":6893:6894   */\n      0x00\n        /* \"#utility.yul\":6890:6891   */\n      dup1\n        /* \"#utility.yul\":6883:6895   */\n      revert\n        /* \"#utility.yul\":6920:7472   */\n    tag_191:\n        /* \"#utility.yul\":6977:6985   */\n      0x00\n        /* \"#utility.yul\":6987:6993   */\n      dup1\n        /* \"#utility.yul\":7037:7040   */\n      dup4\n        /* \"#utility.yul\":7030:7034   */\n      0x1f\n        /* \"#utility.yul\":7022:7028   */\n      dup5\n        /* \"#utility.yul\":7018:7035   */\n      add\n        /* \"#utility.yul\":7014:7041   */\n      slt\n        /* \"#utility.yul\":7004:7126   */\n      tag_280\n      jumpi\n        /* \"#utility.yul\":7045:7124   */\n      tag_281\n      tag_188\n      jump\t// in\n    tag_281:\n        /* \"#utility.yul\":7004:7126   */\n    tag_280:\n        /* \"#utility.yul\":7158:7164   */\n      dup3\n        /* \"#utility.yul\":7145:7165   */\n      calldataload\n        /* \"#utility.yul\":7135:7165   */\n      swap1\n      pop\n        /* \"#utility.yul\":7188:7206   */\n      0xffffffffffffffff\n        /* \"#utility.yul\":7180:7186   */\n      dup2\n        /* \"#utility.yul\":7177:7207   */\n      gt\n        /* \"#utility.yul\":7174:7291   */\n      iszero\n      tag_282\n      jumpi\n        /* \"#utility.yul\":7210:7289   */\n      tag_283\n      tag_189\n      jump\t// in\n    tag_283:\n        /* \"#utility.yul\":7174:7291   */\n    tag_282:\n        /* \"#utility.yul\":7324:7328   */\n      0x20\n        /* \"#utility.yul\":7316:7322   */\n      dup4\n        /* \"#utility.yul\":7312:7329   */\n      add\n        /* \"#utility.yul\":7300:7329   */\n      swap2\n      pop\n        /* \"#utility.yul\":7378:7381   */\n      dup4\n        /* \"#utility.yul\":7370:7374   */\n      0x01\n        /* \"#utility.yul\":7362:7368   */\n      dup3\n        /* \"#utility.yul\":7358:7375   */\n      mul\n        /* \"#utility.yul\":7348:7356   */\n      dup4\n        /* \"#utility.yul\":7344:7376   */\n      add\n        /* \"#utility.yul\":7341:7382   */\n      gt\n        /* \"#utility.yul\":7338:7466   */\n      iszero\n      tag_284\n      jumpi\n        /* \"#utility.yul\":7385:7464   */\n      tag_285\n      tag_190\n      jump\t// in\n    tag_285:\n        /* \"#utility.yul\":7338:7466   */\n    tag_284:\n        /* \"#utility.yul\":6920:7472   */\n      swap3\n      pop\n      swap3\n      swap1\n      pop\n      jump\t// out\n        /* \"#utility.yul\":7478:8295   */\n    tag_88:\n        /* \"#utility.yul\":7566:7572   */\n      0x00\n        /* \"#utility.yul\":7574:7580   */\n      dup1\n        /* \"#utility.yul\":7582:7588   */\n      0x00\n        /* \"#utility.yul\":7590:7596   */\n      dup1\n        /* \"#utility.yul\":7639:7641   */\n      0x60\n        /* \"#utility.yul\":7627:7636   */\n      dup6\n        /* \"#utility.yul\":7618:7625   */\n      dup8\n        /* \"#utility.yul\":7614:7637   */\n      sub\n        /* \"#utility.yul\":7610:7642   */\n      slt\n        /* \"#utility.yul\":7607:7726   */\n      iszero\n      tag_287\n      jumpi\n        /* \"#utility.yul\":7645:7724   */\n      tag_288\n      tag_174\n      jump\t// in\n    tag_288:\n        /* \"#utility.yul\":7607:7726   */\n    tag_287:\n        /* \"#utility.yul\":7765:7766   */\n      0x00\n        /* \"#utility.yul\":7790:7843   */\n      tag_289\n        /* \"#utility.yul\":7835:7842   */\n      dup8\n        /* \"#utility.yul\":7826:7832   */\n      dup3\n        /* \"#utility.yul\":7815:7824   */\n      dup9\n        /* \"#utility.yul\":7811:7833   */\n      add\n        /* \"#utility.yul\":7790:7843   */\n      tag_179\n      jump\t// in\n    tag_289:\n        /* \"#utility.yul\":7780:7843   */\n      swap5\n      pop\n        /* \"#utility.yul\":7736:7853   */\n      pop\n        /* \"#utility.yul\":7892:7894   */\n      0x20\n        /* \"#utility.yul\":7918:7971   */\n      tag_290\n        /* \"#utility.yul\":7963:7970   */\n      dup8\n        /* \"#utility.yul\":7954:7960   */\n      dup3\n        /* \"#utility.yul\":7943:7952   */\n      dup9\n        /* \"#utility.yul\":7939:7961   */\n      add\n        /* \"#utility.yul\":7918:7971   */\n      tag_182\n      jump\t// in\n    tag_290:\n        /* \"#utility.yul\":7908:7971   */\n      swap4\n      pop\n        /* \"#utility.yul\":7863:7981   */\n      pop\n        /* \"#utility.yul\":8048:8050   */\n      0x40\n        /* \"#utility.yul\":8037:8046   */\n      dup6\n        /* \"#utility.yul\":8033:8051   */\n      add\n        /* \"#utility.yul\":8020:8052   */\n      calldataload\n        /* \"#utility.yul\":8079:8097   */\n      0xffffffffffffffff\n        /* \"#utility.yul\":8071:8077   */\n      dup2\n        /* \"#utility.yul\":8068:8098   */\n      gt\n        /* \"#utility.yul\":8065:8182   */\n      iszero\n      tag_291\n      jumpi\n        /* \"#utility.yul\":8101:8180   */\n      tag_292\n      tag_175\n      jump\t// in\n    tag_292:\n        /* \"#utility.yul\":8065:8182   */\n    tag_291:\n        /* \"#utility.yul\":8214:8278   */\n      tag_293\n        /* \"#utility.yul\":8270:8277   */\n      dup8\n        /* \"#utility.yul\":8261:8267   */\n      dup3\n        /* \"#utility.yul\":8250:8259   */\n      dup9\n        /* \"#utility.yul\":8246:8268   */\n      add\n        /* \"#utility.yul\":8214:8278   */\n      tag_191\n      jump\t// in\n    tag_293:\n        /* \"#utility.yul\":8196:8278   */\n      swap3\n      pop\n      swap3\n      pop\n        /* \"#utility.yul\":7991:8288   */\n      pop\n        /* \"#utility.yul\":7478:8295   */\n      swap3\n      swap6\n      swap2\n      swap5\n      pop\n      swap3\n      pop\n      jump\t// out\n        /* \"#utility.yul\":8301:8775   */\n    tag_99:\n        /* \"#utility.yul\":8369:8375   */\n      0x00\n        /* \"#utility.yul\":8377:8383   */\n      dup1\n        /* \"#utility.yul\":8426:8428   */\n      0x40\n        /* \"#utility.yul\":8414:8423   */\n      dup4\n        /* \"#utility.yul\":8405:8412   */\n      dup6\n        /* \"#utility.yul\":8401:8424   */\n      sub\n        /* \"#utility.yul\":8397:8429   */\n      slt\n        /* \"#utility.yul\":8394:8513   */\n      iszero\n      tag_295\n      jumpi\n        /* \"#utility.yul\":8432:8511   */\n      tag_296\n      tag_174\n      jump\t// in\n    tag_296:\n        /* \"#utility.yul\":8394:8513   */\n    tag_295:\n        /* \"#utility.yul\":8552:8553   */\n      0x00\n        /* \"#utility.yul\":8577:8630   */\n      tag_297\n        /* \"#utility.yul\":8622:8629   */\n      dup6\n        /* \"#utility.yul\":8613:8619   */\n      dup3\n        /* \"#utility.yul\":8602:8611   */\n      dup7\n        /* \"#utility.yul\":8598:8620   */\n      add\n        /* \"#utility.yul\":8577:8630   */\n      tag_179\n      jump\t// in\n    tag_297:\n        /* \"#utility.yul\":8567:8630   */\n      swap3\n      pop\n        /* \"#utility.yul\":8523:8640   */\n      pop\n        /* \"#utility.yul\":8679:8681   */\n      0x20\n        /* \"#utility.yul\":8705:8758   */\n      tag_298\n        /* \"#utility.yul\":8750:8757   */\n      dup6\n        /* \"#utility.yul\":8741:8747   */\n      dup3\n        /* \"#utility.yul\":8730:8739   */\n      dup7\n        /* \"#utility.yul\":8726:8748   */\n      add\n        /* \"#utility.yul\":8705:8758   */\n      tag_179\n      jump\t// in\n    tag_298:\n        /* \"#utility.yul\":8695:8758   */\n      swap2\n      pop\n        /* \"#utility.yul\":8650:8768   */\n      pop\n        /* \"#utility.yul\":8301:8775   */\n      swap3\n      pop\n      swap3\n      swap1\n      pop\n      jump\t// out\n        /* \"#utility.yul\":8781:8961   */\n    tag_192:\n        /* \"#utility.yul\":8829:8906   */\n      0x4e487b7100000000000000000000000000000000000000000000000000000000\n        /* \"#utility.yul\":8826:8827   */\n      0x00\n        /* \"#utility.yul\":8819:8907   */\n      mstore\n        /* \"#utility.yul\":8926:8930   */\n      0x22\n        /* \"#utility.yul\":8923:8924   */\n      0x04\n        /* \"#utility.yul\":8916:8931   */\n      mstore\n        /* \"#utility.yul\":8950:8954   */\n      0x24\n        /* \"#utility.yul\":8947:8948   */\n      0x00\n        /* \"#utility.yul\":8940:8955   */\n      revert\n        /* \"#utility.yul\":8967:9287   */\n    tag_108:\n        /* \"#utility.yul\":9011:9017   */\n      0x00\n        /* \"#utility.yul\":9048:9049   */\n      0x02\n        /* \"#utility.yul\":9042:9046   */\n      dup3\n        /* \"#utility.yul\":9038:9050   */\n      div\n        /* \"#utility.yul\":9028:9050   */\n      swap1\n      pop\n        /* \"#utility.yul\":9095:9096   */\n      0x01\n        /* \"#utility.yul\":9089:9093   */\n      dup3\n        /* \"#utility.yul\":9085:9097   */\n      and\n        /* \"#utility.yul\":9116:9134   */\n      dup1\n        /* \"#utility.yul\":9106:9187   */\n      tag_301\n      jumpi\n        /* \"#utility.yul\":9172:9176   */\n      0x7f\n        /* \"#utility.yul\":9164:9170   */\n      dup3\n        /* \"#utility.yul\":9160:9177   */\n      and\n        /* \"#utility.yul\":9150:9177   */\n      swap2\n      pop\n        /* \"#utility.yul\":9106:9187   */\n    tag_301:\n        /* \"#utility.yul\":9234:9236   */\n      0x20\n        /* \"#utility.yul\":9226:9232   */\n      dup3\n        /* \"#utility.yul\":9223:9237   */\n      lt\n        /* \"#utility.yul\":9203:9221   */\n      dup2\n        /* \"#utility.yul\":9200:9238   */\n      sub\n        /* \"#utility.yul\":9197:9281   */\n      tag_302\n      jumpi\n        /* \"#utility.yul\":9253:9271   */\n      tag_303\n      tag_192\n      jump\t// in\n    tag_303:\n        /* \"#utility.yul\":9197:9281   */\n    tag_302:\n        /* \"#utility.yul\":9018:9287   */\n      pop\n        /* \"#utility.yul\":8967:9287   */\n      swap2\n      swap1\n      pop\n      jump\t// out\n        /* \"#utility.yul\":9293:9473   */\n    tag_193:\n        /* \"#utility.yul\":9341:9418   */\n      0x4e487b7100000000000000000000000000000000000000000000000000000000\n        /* \"#utility.yul\":9338:9339   */\n      0x00\n        /* \"#utility.yul\":9331:9419   */\n      mstore\n        /* \"#utility.yul\":9438:9442   */\n      0x11\n        /* \"#utility.yul\":9435:9436   */\n      0x04\n        /* \"#utility.yul\":9428:9443   */\n      mstore\n        /* \"#utility.yul\":9462:9466   */\n      0x24\n        /* \"#utility.yul\":9459:9460   */\n      0x00\n        /* \"#utility.yul\":9452:9467   */\n      revert\n        /* \"#utility.yul\":9479:9673   */\n    tag_117:\n        /* \"#utility.yul\":9519:9523   */\n      0x00\n        /* \"#utility.yul\":9539:9559   */\n      tag_306\n        /* \"#utility.yul\":9557:9558   */\n      dup3\n        /* \"#utility.yul\":9539:9559   */\n      tag_180\n      jump\t// in\n    tag_306:\n        /* \"#utility.yul\":9534:9559   */\n      swap2\n      pop\n        /* \"#utility.yul\":9573:9593   */\n      tag_307\n        /* \"#utility.yul\":9591:9592   */\n      dup4\n        /* \"#utility.yul\":9573:9593   */\n      tag_180\n      jump\t// in\n    tag_307:\n        /* \"#utility.yul\":9568:9593   */\n      swap3\n      pop\n        /* \"#utility.yul\":9617:9618   */\n      dup3\n        /* \"#utility.yul\":9614:9615   */\n      dup3\n        /* \"#utility.yul\":9610:9619   */\n      sub\n        /* \"#utility.yul\":9602:9619   */\n      swap1\n      pop\n        /* \"#utility.yul\":9641:9642   */\n      dup2\n        /* \"#utility.yul\":9635:9639   */\n      dup2\n        /* \"#utility.yul\":9632:9643   */\n      gt\n        /* \"#utility.yul\":9629:9666   */\n      iszero\n      tag_308\n      jumpi\n        /* \"#utility.yul\":9646:9664   */\n      tag_309\n      tag_193\n      jump\t// in\n    tag_309:\n        /* \"#utility.yul\":9629:9666   */\n    tag_308:\n        /* \"#utility.yul\":9479:9673   */\n      swap3\n      swap2\n      pop\n      pop\n      jump\t// out\n        /* \"#utility.yul\":9679:9850   */\n    tag_194:\n        /* \"#utility.yul\":9819:9842   */\n      0x5375627472616374696f6e20756e646572666c6f770000000000000000000000\n        /* \"#utility.yul\":9815:9816   */\n      0x00\n        /* \"#utility.yul\":9807:9813   */\n      dup3\n        /* \"#utility.yul\":9803:9817   */\n      add\n        /* \"#utility.yul\":9796:9843   */\n      mstore\n        /* \"#utility.yul\":9679:9850   */\n      pop\n      jump\t// out\n        /* \"#utility.yul\":9856:10222   */\n    tag_195:\n        /* \"#utility.yul\":9998:10001   */\n      0x00\n        /* \"#utility.yul\":10019:10086   */\n      tag_312\n        /* \"#utility.yul\":10083:10085   */\n      0x15\n        /* \"#utility.yul\":10078:10081   */\n      dup4\n        /* \"#utility.yul\":10019:10086   */\n      tag_166\n      jump\t// in\n    tag_312:\n        /* \"#utility.yul\":10012:10086   */\n      swap2\n      pop\n        /* \"#utility.yul\":10095:10188   */\n      tag_313\n        /* \"#utility.yul\":10184:10187   */\n      dup3\n        /* \"#utility.yul\":10095:10188   */\n      tag_194\n      jump\t// in\n    tag_313:\n        /* \"#utility.yul\":10213:10215   */\n      0x20\n        /* \"#utility.yul\":10208:10211   */\n      dup3\n        /* \"#utility.yul\":10204:10216   */\n      add\n        /* \"#utility.yul\":10197:10216   */\n      swap1\n      pop\n        /* \"#utility.yul\":9856:10222   */\n      swap2\n      swap1\n      pop\n      jump\t// out\n        /* \"#utility.yul\":10228:10647   */\n    tag_132:\n        /* \"#utility.yul\":10394:10398   */\n      0x00\n        /* \"#utility.yul\":10432:10434   */\n      0x20\n        /* \"#utility.yul\":10421:10430   */\n      dup3\n        /* \"#utility.yul\":10417:10435   */\n      add\n        /* \"#utility.yul\":10409:10435   */\n      swap1\n      pop\n        /* \"#utility.yul\":10481:10490   */\n      dup2\n        /* \"#utility.yul\":10475:10479   */\n      dup2\n        /* \"#utility.yul\":10471:10491   */\n      sub\n        /* \"#utility.yul\":10467:10468   */\n      0x00\n        /* \"#utility.yul\":10456:10465   */\n      dup4\n        /* \"#utility.yul\":10452:10469   */\n      add\n        /* \"#utility.yul\":10445:10492   */\n      mstore\n        /* \"#utility.yul\":10509:10640   */\n      tag_315\n        /* \"#utility.yul\":10635:10639   */\n      dup2\n        /* \"#utility.yul\":10509:10640   */\n      tag_195\n      jump\t// in\n    tag_315:\n        /* \"#utility.yul\":10501:10640   */\n      swap1\n      pop\n        /* \"#utility.yul\":10228:10647   */\n      swap2\n      swap1\n      pop\n      jump\t// out\n        /* \"#utility.yul\":10653:10819   */\n    tag_196:\n        /* \"#utility.yul\":10793:10811   */\n      0x4469766973696f6e206279207a65726f00000000000000000000000000000000\n        /* \"#utility.yul\":10789:10790   */\n      0x00\n        /* \"#utility.yul\":10781:10787   */\n      dup3\n        /* \"#utility.yul\":10777:10791   */\n      add\n        /* \"#utility.yul\":10770:10812   */\n      mstore\n        /* \"#utility.yul\":10653:10819   */\n      pop\n      jump\t// out\n        /* \"#utility.yul\":10825:11191   */\n    tag_197:\n        /* \"#utility.yul\":10967:10970   */\n      0x00\n        /* \"#utility.yul\":10988:11055   */\n      tag_318\n        /* \"#utility.yul\":11052:11054   */\n      0x10\n        /* \"#utility.yul\":11047:11050   */\n      dup4\n        /* \"#utility.yul\":10988:11055   */\n      tag_166\n      jump\t// in\n    tag_318:\n        /* \"#utility.yul\":10981:11055   */\n      swap2\n      pop\n        /* \"#utility.yul\":11064:11157   */\n      tag_319\n        /* \"#utility.yul\":11153:11156   */\n      dup3\n        /* \"#utility.yul\":11064:11157   */\n      tag_196\n      jump\t// in\n    tag_319:\n        /* \"#utility.yul\":11182:11184   */\n      0x20\n        /* \"#utility.yul\":11177:11180   */\n      dup3\n        /* \"#utility.yul\":11173:11185   */\n      add\n        /* \"#utility.yul\":11166:11185   */\n      swap1\n      pop\n        /* \"#utility.yul\":10825:11191   */\n      swap2\n      swap1\n      pop\n      jump\t// out\n        /* \"#utility.yul\":11197:11616   */\n    tag_141:\n        /* \"#utility.yul\":11363:11367   */\n      0x00\n        /* \"#utility.yul\":11401:11403   */\n      0x20\n        /* \"#utility.yul\":11390:11399   */\n      dup3\n        /* \"#utility.yul\":11386:11404   */\n      add\n        /* \"#utility.yul\":11378:11404   */\n      swap1\n      pop\n        /* \"#utility.yul\":11450:11459   */\n      dup2\n        /* \"#utility.yul\":11444:11448   */\n      dup2\n        /* \"#utility.yul\":11440:11460   */\n      sub\n        /* \"#utility.yul\":11436:11437   */\n      0x00\n        /* \"#utility.yul\":11425:11434   */\n      dup4\n        /* \"#utility.yul\":11421:11438   */\n      add\n        /* \"#utility.yul\":11414:11461   */\n      mstore\n        /* \"#utility.yul\":11478:11609   */\n      tag_321\n        /* \"#utility.yul\":11604:11608   */\n      dup2\n        /* \"#utility.yul\":11478:11609   */\n      tag_197\n      jump\t// in\n    tag_321:\n        /* \"#utility.yul\":11470:11609   */\n      swap1\n      pop\n        /* \"#utility.yul\":11197:11616   */\n      swap2\n      swap1\n      pop\n      jump\t// out\n        /* \"#utility.yul\":11622:11802   */\n    tag_198:\n        /* \"#utility.yul\":11670:11747   */\n      0x4e487b7100000000000000000000000000000000000000000000000000000000\n        /* \"#utility.yul\":11667:11668   */\n      0x00\n        /* \"#utility.yul\":11660:11748   */\n      mstore\n        /* \"#utility.yul\":11767:11771   */\n      0x12\n        /* \"#utility.yul\":11764:11765   */\n      0x04\n        /* \"#utility.yul\":11757:11772   */\n      mstore\n        /* \"#utility.yul\":11791:11795   */\n      0x24\n        /* \"#utility.yul\":11788:11789   */\n      0x00\n        /* \"#utility.yul\":11781:11796   */\n      revert\n        /* \"#utility.yul\":11808:11993   */\n    tag_143:\n        /* \"#utility.yul\":11848:11849   */\n      0x00\n        /* \"#utility.yul\":11865:11885   */\n      tag_324\n        /* \"#utility.yul\":11883:11884   */\n      dup3\n        /* \"#utility.yul\":11865:11885   */\n      tag_180\n      jump\t// in\n    tag_324:\n        /* \"#utility.yul\":11860:11885   */\n      swap2\n      pop\n        /* \"#utility.yul\":11899:11919   */\n      tag_325\n        /* \"#utility.yul\":11917:11918   */\n      dup4\n        /* \"#utility.yul\":11899:11919   */\n      tag_180\n      jump\t// in\n    tag_325:\n        /* \"#utility.yul\":11894:11919   */\n      swap3\n      pop\n        /* \"#utility.yul\":11938:11939   */\n      dup3\n        /* \"#utility.yul\":11928:11963   */\n      tag_326\n      jumpi\n        /* \"#utility.yul\":11943:11961   */\n      tag_327\n      tag_198\n      jump\t// in\n    tag_327:\n        /* \"#utility.yul\":11928:11963   */\n    tag_326:\n        /* \"#utility.yul\":11985:11986   */\n      dup3\n        /* \"#utility.yul\":11982:11983   */\n      dup3\n        /* \"#utility.yul\":11978:11987   */\n      div\n        /* \"#utility.yul\":11973:11987   */\n      swap1\n      pop\n        /* \"#utility.yul\":11808:11993   */\n      swap3\n      swap2\n      pop\n      pop\n      jump\t// out\n        /* \"#utility.yul\":11999:12117   */\n    tag_199:\n        /* \"#utility.yul\":12086:12110   */\n      tag_329\n        /* \"#utility.yul\":12104:12109   */\n      dup2\n        /* \"#utility.yul\":12086:12110   */\n      tag_177\n      jump\t// in\n    tag_329:\n        /* \"#utility.yul\":12081:12084   */\n      dup3\n        /* \"#utility.yul\":12074:12111   */\n      mstore\n        /* \"#utility.yul\":11999:12117   */\n      pop\n      pop\n      jump\t// out\n        /* \"#utility.yul\":12123:12291   */\n    tag_200:\n        /* \"#utility.yul\":12206:12217   */\n      0x00\n        /* \"#utility.yul\":12240:12246   */\n      dup3\n        /* \"#utility.yul\":12235:12238   */\n      dup3\n        /* \"#utility.yul\":12228:12247   */\n      mstore\n        /* \"#utility.yul\":12280:12284   */\n      0x20\n        /* \"#utility.yul\":12275:12278   */\n      dup3\n        /* \"#utility.yul\":12271:12285   */\n      add\n        /* \"#utility.yul\":12256:12285   */\n      swap1\n      pop\n        /* \"#utility.yul\":12123:12291   */\n      swap3\n      swap2\n      pop\n      pop\n      jump\t// out\n        /* \"#utility.yul\":12297:12445   */\n    tag_201:\n        /* \"#utility.yul\":12395:12401   */\n      dup3\n        /* \"#utility.yul\":12390:12393   */\n      dup2\n        /* \"#utility.yul\":12385:12388   */\n      dup4\n        /* \"#utility.yul\":12372:12402   */\n      calldatacopy\n        /* \"#utility.yul\":12436:12437   */\n      0x00\n        /* \"#utility.yul\":12427:12433   */\n      dup4\n        /* \"#utility.yul\":12422:12425   */\n      dup4\n        /* \"#utility.yul\":12418:12434   */\n      add\n        /* \"#utility.yul\":12411:12438   */\n      mstore\n        /* \"#utility.yul\":12297:12445   */\n      pop\n      pop\n      pop\n      jump\t// out\n        /* \"#utility.yul\":12473:12787   */\n    tag_202:\n        /* \"#utility.yul\":12569:12572   */\n      0x00\n        /* \"#utility.yul\":12590:12660   */\n      tag_333\n        /* \"#utility.yul\":12653:12659   */\n      dup4\n        /* \"#utility.yul\":12648:12651   */\n      dup6\n        /* \"#utility.yul\":12590:12660   */\n      tag_200\n      jump\t// in\n    tag_333:\n        /* \"#utility.yul\":12583:12660   */\n      swap4\n      pop\n        /* \"#utility.yul\":12670:12726   */\n      tag_334\n        /* \"#utility.yul\":12719:12725   */\n      dup4\n        /* \"#utility.yul\":12714:12717   */\n      dup6\n        /* \"#utility.yul\":12707:12712   */\n      dup5\n        /* \"#utility.yul\":12670:12726   */\n      tag_201\n      jump\t// in\n    tag_334:\n        /* \"#utility.yul\":12751:12780   */\n      tag_335\n        /* \"#utility.yul\":12773:12779   */\n      dup4\n        /* \"#utility.yul\":12751:12780   */\n      tag_171\n      jump\t// in\n    tag_335:\n        /* \"#utility.yul\":12746:12749   */\n      dup5\n        /* \"#utility.yul\":12742:12781   */\n      add\n        /* \"#utility.yul\":12735:12781   */\n      swap1\n      pop\n        /* \"#utility.yul\":12473:12787   */\n      swap4\n      swap3\n      pop\n      pop\n      pop\n      jump\t// out\n        /* \"#utility.yul\":12793:13453   */\n    tag_147:\n        /* \"#utility.yul\":12998:13002   */\n      0x00\n        /* \"#utility.yul\":13036:13039   */\n      0x80\n        /* \"#utility.yul\":13025:13034   */\n      dup3\n        /* \"#utility.yul\":13021:13040   */\n      add\n        /* \"#utility.yul\":13013:13040   */\n      swap1\n      pop\n        /* \"#utility.yul\":13050:13121   */\n      tag_337\n        /* \"#utility.yul\":13118:13119   */\n      0x00\n        /* \"#utility.yul\":13107:13116   */\n      dup4\n        /* \"#utility.yul\":13103:13120   */\n      add\n        /* \"#utility.yul\":13094:13100   */\n      dup9\n        /* \"#utility.yul\":13050:13121   */\n      tag_199\n      jump\t// in\n    tag_337:\n        /* \"#utility.yul\":13131:13203   */\n      tag_338\n        /* \"#utility.yul\":13199:13201   */\n      0x20\n        /* \"#utility.yul\":13188:13197   */\n      dup4\n        /* \"#utility.yul\":13184:13202   */\n      add\n        /* \"#utility.yul\":13175:13181   */\n      dup8\n        /* \"#utility.yul\":13131:13203   */\n      tag_185\n      jump\t// in\n    tag_338:\n        /* \"#utility.yul\":13213:13285   */\n      tag_339\n        /* \"#utility.yul\":13281:13283   */\n      0x40\n        /* \"#utility.yul\":13270:13279   */\n      dup4\n        /* \"#utility.yul\":13266:13284   */\n      add\n        /* \"#utility.yul\":13257:13263   */\n      dup7\n        /* \"#utility.yul\":13213:13285   */\n      tag_199\n      jump\t// in\n    tag_339:\n        /* \"#utility.yul\":13332:13341   */\n      dup2\n        /* \"#utility.yul\":13326:13330   */\n      dup2\n        /* \"#utility.yul\":13322:13342   */\n      sub\n        /* \"#utility.yul\":13317:13319   */\n      0x60\n        /* \"#utility.yul\":13306:13315   */\n      dup4\n        /* \"#utility.yul\":13302:13320   */\n      add\n        /* \"#utility.yul\":13295:13343   */\n      mstore\n        /* \"#utility.yul\":13360:13446   */\n      tag_340\n        /* \"#utility.yul\":13441:13445   */\n      dup2\n        /* \"#utility.yul\":13432:13438   */\n      dup5\n        /* \"#utility.yul\":13424:13430   */\n      dup7\n        /* \"#utility.yul\":13360:13446   */\n      tag_202\n      jump\t// in\n    tag_340:\n        /* \"#utility.yul\":13352:13446   */\n      swap1\n      pop\n        /* \"#utility.yul\":12793:13453   */\n      swap7\n      swap6\n      pop\n      pop\n      pop\n      pop\n      pop\n      pop\n      jump\t// out\n        /* \"#utility.yul\":13459:13869   */\n    tag_153:\n        /* \"#utility.yul\":13499:13506   */\n      0x00\n        /* \"#utility.yul\":13522:13542   */\n      tag_342\n        /* \"#utility.yul\":13540:13541   */\n      dup3\n        /* \"#utility.yul\":13522:13542   */\n      tag_180\n      jump\t// in\n    tag_342:\n        /* \"#utility.yul\":13517:13542   */\n      swap2\n      pop\n        /* \"#utility.yul\":13556:13576   */\n      tag_343\n        /* \"#utility.yul\":13574:13575   */\n      dup4\n        /* \"#utility.yul\":13556:13576   */\n      tag_180\n      jump\t// in\n    tag_343:\n        /* \"#utility.yul\":13551:13576   */\n      swap3\n      pop\n        /* \"#utility.yul\":13611:13612   */\n      dup3\n        /* \"#utility.yul\":13608:13609   */\n      dup3\n        /* \"#utility.yul\":13604:13613   */\n      mul\n        /* \"#utility.yul\":13633:13663   */\n      tag_344\n        /* \"#utility.yul\":13651:13662   */\n      dup2\n        /* \"#utility.yul\":13633:13663   */\n      tag_180\n      jump\t// in\n    tag_344:\n        /* \"#utility.yul\":13622:13663   */\n      swap2\n      pop\n        /* \"#utility.yul\":13812:13813   */\n      dup3\n        /* \"#utility.yul\":13803:13810   */\n      dup3\n        /* \"#utility.yul\":13799:13814   */\n      div\n        /* \"#utility.yul\":13796:13797   */\n      dup5\n        /* \"#utility.yul\":13793:13815   */\n      eq\n        /* \"#utility.yul\":13773:13774   */\n      dup4\n        /* \"#utility.yul\":13766:13775   */\n      iszero\n        /* \"#utility.yul\":13746:13829   */\n      or\n        /* \"#utility.yul\":13723:13862   */\n      tag_345\n      jumpi\n        /* \"#utility.yul\":13842:13860   */\n      tag_346\n      tag_193\n      jump\t// in\n    tag_346:\n        /* \"#utility.yul\":13723:13862   */\n    tag_345:\n        /* \"#utility.yul\":13507:13869   */\n      pop\n        /* \"#utility.yul\":13459:13869   */\n      swap3\n      swap2\n      pop\n      pop\n      jump\t// out\n        /* \"#utility.yul\":13875:14048   */\n    tag_203:\n        /* \"#utility.yul\":14015:14040   */\n      0x4d756c7469706c69636174696f6e206f766572666c6f77000000000000000000\n        /* \"#utility.yul\":14011:14012   */\n      0x00\n        /* \"#utility.yul\":14003:14009   */\n      dup3\n        /* \"#utility.yul\":13999:14013   */\n      add\n        /* \"#utility.yul\":13992:14041   */\n      mstore\n        /* \"#utility.yul\":13875:14048   */\n      pop\n      jump\t// out\n        /* \"#utility.yul\":14054:14420   */\n    tag_204:\n        /* \"#utility.yul\":14196:14199   */\n      0x00\n        /* \"#utility.yul\":14217:14284   */\n      tag_349\n        /* \"#utility.yul\":14281:14283   */\n      0x17\n        /* \"#utility.yul\":14276:14279   */\n      dup4\n        /* \"#utility.yul\":14217:14284   */\n      tag_166\n      jump\t// in\n    tag_349:\n        /* \"#utility.yul\":14210:14284   */\n      swap2\n      pop\n        /* \"#utility.yul\":14293:14386   */\n      tag_350\n        /* \"#utility.yul\":14382:14385   */\n      dup3\n        /* \"#utility.yul\":14293:14386   */\n      tag_203\n      jump\t// in\n    tag_350:\n        /* \"#utility.yul\":14411:14413   */\n      0x20\n        /* \"#utility.yul\":14406:14409   */\n      dup3\n        /* \"#utility.yul\":14402:14414   */\n      add\n        /* \"#utility.yul\":14395:14414   */\n      swap1\n      pop\n        /* \"#utility.yul\":14054:14420   */\n      swap2\n      swap1\n      pop\n      jump\t// out\n        /* \"#utility.yul\":14426:14845   */\n    tag_158:\n        /* \"#utility.yul\":14592:14596   */\n      0x00\n        /* \"#utility.yul\":14630:14632   */\n      0x20\n        /* \"#utility.yul\":14619:14628   */\n      dup3\n        /* \"#utility.yul\":14615:14633   */\n      add\n        /* \"#utility.yul\":14607:14633   */\n      swap1\n      pop\n        /* \"#utility.yul\":14679:14688   */\n      dup2\n        /* \"#utility.yul\":14673:14677   */\n      dup2\n        /* \"#utility.yul\":14669:14689   */\n      sub\n        /* \"#utility.yul\":14665:14666   */\n      0x00\n        /* \"#utility.yul\":14654:14663   */\n      dup4\n        /* \"#utility.yul\":14650:14667   */\n      add\n        /* \"#utility.yul\":14643:14690   */\n      mstore\n        /* \"#utility.yul\":14707:14838   */\n      tag_352\n        /* \"#utility.yul\":14833:14837   */\n      dup2\n        /* \"#utility.yul\":14707:14838   */\n      tag_204\n      jump\t// in\n    tag_352:\n        /* \"#utility.yul\":14699:14838   */\n      swap1\n      pop\n        /* \"#utility.yul\":14426:14845   */\n      swap2\n      swap1\n      pop\n      jump\t// out\n        /* \"#utility.yul\":14851:15042   */\n    tag_162:\n        /* \"#utility.yul\":14891:14894   */\n      0x00\n        /* \"#utility.yul\":14910:14930   */\n      tag_354\n        /* \"#utility.yul\":14928:14929   */\n      dup3\n        /* \"#utility.yul\":14910:14930   */\n      tag_180\n      jump\t// in\n    tag_354:\n        /* \"#utility.yul\":14905:14930   */\n      swap2\n      pop\n        /* \"#utility.yul\":14944:14964   */\n      tag_355\n        /* \"#utility.yul\":14962:14963   */\n      dup4\n        /* \"#utility.yul\":14944:14964   */\n      tag_180\n      jump\t// in\n    tag_355:\n        /* \"#utility.yul\":14939:14964   */\n      swap3\n      pop\n        /* \"#utility.yul\":14987:14988   */\n      dup3\n        /* \"#utility.yul\":14984:14985   */\n      dup3\n        /* \"#utility.yul\":14980:14989   */\n      add\n        /* \"#utility.yul\":14973:14989   */\n      swap1\n      pop\n        /* \"#utility.yul\":15008:15011   */\n      dup1\n        /* \"#utility.yul\":15005:15006   */\n      dup3\n        /* \"#utility.yul\":15002:15012   */\n      gt\n        /* \"#utility.yul\":14999:15035   */\n      iszero\n      tag_356\n      jumpi\n        /* \"#utility.yul\":15015:15033   */\n      tag_357\n      tag_193\n      jump\t// in\n    tag_357:\n        /* \"#utility.yul\":14999:15035   */\n    tag_356:\n        /* \"#utility.yul\":14851:15042   */\n      swap3\n      swap2\n      pop\n      pop\n      jump\t// out\n        /* \"#utility.yul\":15048:15215   */\n    tag_205:\n        /* \"#utility.yul\":15188:15207   */\n      0x4164646974696f6e206f766572666c6f77000000000000000000000000000000\n        /* \"#utility.yul\":15184:15185   */\n      0x00\n        /* \"#utility.yul\":15176:15182   */\n      dup3\n        /* \"#utility.yul\":15172:15186   */\n      add\n        /* \"#utility.yul\":15165:15208   */\n      mstore\n        /* \"#utility.yul\":15048:15215   */\n      pop\n      jump\t// out\n        /* \"#utility.yul\":15221:15587   */\n    tag_206:\n        /* \"#utility.yul\":15363:15366   */\n      0x00\n        /* \"#utility.yul\":15384:15451   */\n      tag_360\n        /* \"#utility.yul\":15448:15450   */\n      0x11\n        /* \"#utility.yul\":15443:15446   */\n      dup4\n        /* \"#utility.yul\":15384:15451   */\n      tag_166\n      jump\t// in\n    tag_360:\n        /* \"#utility.yul\":15377:15451   */\n      swap2\n      pop\n        /* \"#utility.yul\":15460:15553   */\n      tag_361\n        /* \"#utility.yul\":15549:15552   */\n      dup3\n        /* \"#utility.yul\":15460:15553   */\n      tag_205\n      jump\t// in\n    tag_361:\n        /* \"#utility.yul\":15578:15580   */\n      0x20\n        /* \"#utility.yul\":15573:15576   */\n      dup3\n        /* \"#utility.yul\":15569:15581   */\n      add\n        /* \"#utility.yul\":15562:15581   */\n      swap1\n      pop\n        /* \"#utility.yul\":15221:15587   */\n      swap2\n      swap1\n      pop\n      jump\t// out\n        /* \"#utility.yul\":15593:16012   */\n    tag_165:\n        /* \"#utility.yul\":15759:15763   */\n      0x00\n        /* \"#utility.yul\":15797:15799   */\n      0x20\n        /* \"#utility.yul\":15786:15795   */\n      dup3\n        /* \"#utility.yul\":15782:15800   */\n      add\n        /* \"#utility.yul\":15774:15800   */\n      swap1\n      pop\n        /* \"#utility.yul\":15846:15855   */\n      dup2\n        /* \"#utility.yul\":15840:15844   */\n      dup2\n        /* \"#utility.yul\":15836:15856   */\n      sub\n        /* \"#utility.yul\":15832:15833   */\n      0x00\n        /* \"#utility.yul\":15821:15830   */\n      dup4\n        /* \"#utility.yul\":15817:15834   */\n      add\n        /* \"#utility.yul\":15810:15857   */\n      mstore\n        /* \"#utility.yul\":15874:16005   */\n      tag_363\n        /* \"#utility.yul\":16000:16004   */\n      dup2\n        /* \"#utility.yul\":15874:16005   */\n      tag_206\n      jump\t// in\n    tag_363:\n        /* \"#utility.yul\":15866:16005   */\n      swap1\n      pop\n        /* \"#utility.yul\":15593:16012   */\n      swap2\n      swap1\n      pop\n      jump\t// out\n\n    auxdata: 0xa264697066735822122068ac4de0051b063c2f3c2d52e170a7bff700af03c174f78a952c0510304adb8b64736f6c634300081a0033\n}\n",
				"bytecode": {
					"linkReferences": {},
					"object": "608060405234801561000f575f80fd5b506040518060400160405280600281526020017f43500000000000000000000000000000000000000000000000000000000000008152505f908161005391906103cf565b506040518060400160405280600781526020017f435020436f696e000000000000000000000000000000000000000000000000008152506001908161009891906103cf565b506002805f6101000a81548160ff021916908360ff160217905550620186a060038190555060035460045f7344ff6f67486338ca724c9f0362860bb29abafd0173ffffffffffffffffffffffffffffffffffffffff1673ffffffffffffffffffffffffffffffffffffffff1681526020019081526020015f20819055507344ff6f67486338ca724c9f0362860bb29abafd0173ffffffffffffffffffffffffffffffffffffffff165f73ffffffffffffffffffffffffffffffffffffffff167fddf252ad1be2c89b69c2b068fc378daa952ba7f163c4a11628f55a4df523b3ef60035460405161018891906104ad565b60405180910390a36104c6565b5f81519050919050565b7f4e487b71000000000000000000000000000000000000000000000000000000005f52604160045260245ffd5b7f4e487b71000000000000000000000000000000000000000000000000000000005f52602260045260245ffd5b5f600282049050600182168061021057607f821691505b602082108103610223576102226101cc565b5b50919050565b5f819050815f5260205f209050919050565b5f6020601f8301049050919050565b5f82821b905092915050565b5f600883026102857fffffffffffffffffffffffffffffffffffffffffffffffffffffffffffffffff8261024a565b61028f868361024a565b95508019841693508086168417925050509392505050565b5f819050919050565b5f819050919050565b5f6102d36102ce6102c9846102a7565b6102b0565b6102a7565b9050919050565b5f819050919050565b6102ec836102b9565b6103006102f8826102da565b848454610256565b825550505050565b5f90565b610314610308565b61031f8184846102e3565b505050565b5b81811015610342576103375f8261030c565b600181019050610325565b5050565b601f8211156103875761035881610229565b6103618461023b565b81016020851015610370578190505b61038461037c8561023b565b830182610324565b50505b505050565b5f82821c905092915050565b5f6103a75f198460080261038c565b1980831691505092915050565b5f6103bf8383610398565b9150826002028217905092915050565b6103d882610195565b67ffffffffffffffff8111156103f1576103f061019f565b5b6103fb82546101f9565b610406828285610346565b5f60209050601f831160018114610437575f8415610425578287015190505b61042f85826103b4565b865550610496565b601f19841661044586610229565b5f5b8281101561046c57848901518255600182019150602085019450602081019050610447565b868310156104895784890151610485601f891682610398565b8355505b6001600288020188555050505b505050505050565b6104a7816102a7565b82525050565b5f6020820190506104c05f83018461049e565b92915050565b611687806104d35f395ff3fe6080604052600436106100eb575f3560e01c806395d89b4111610089578063cae9ca5111610058578063cae9ca5114610367578063d05c78da146103a3578063dd62ed3e146103df578063e6cb90131461041b576100f2565b806395d89b4114610289578063a293d1e8146102b3578063a9059cbb146102ef578063b5931f7c1461032b576100f2565b806323b872dd116100c557806323b872dd146101bd578063313ce567146101f95780633eaaf86b1461022357806370a082311461024d576100f2565b806306fdde031461012d578063095ea7b31461015757806318160ddd14610193576100f2565b366100f257005b6040517f08c379a000000000000000000000000000000000000000000000000000000000815260040161012490610eb5565b60405180910390fd5b348015610138575f80fd5b50610141610457565b60405161014e9190610f33565b60405180910390f35b348015610162575f80fd5b5061017d60048036038101906101789190610fe8565b6104e3565b60405161018a9190611040565b60405180910390f35b34801561019e575f80fd5b506101a76105d0565b6040516101b49190611068565b60405180910390f35b3480156101c8575f80fd5b506101e360048036038101906101de9190611081565b610621565b6040516101f09190611040565b60405180910390f35b348015610204575f80fd5b5061020d6108a0565b60405161021a91906110ec565b60405180910390f35b34801561022e575f80fd5b506102376108b2565b6040516102449190611068565b60405180910390f35b348015610258575f80fd5b50610273600480360381019061026e9190611105565b6108b8565b6040516102809190611068565b60405180910390f35b348015610294575f80fd5b5061029d6108fe565b6040516102aa9190610f33565b60405180910390f35b3480156102be575f80fd5b506102d960048036038101906102d49190611130565b610989565b6040516102e69190611068565b60405180910390f35b3480156102fa575f80fd5b5061031560048036038101906103109190610fe8565b6109e1565b6040516103229190611040565b60405180910390f35b348015610336575f80fd5b50610351600480360381019061034c9190611130565b610b61565b60405161035e9190611068565b60405180910390f35b348015610372575f80fd5b5061038d600480360381019061038891906111cf565b610bb8565b60405161039a9190611040565b60405180910390f35b3480156103ae575f80fd5b506103c960048036038101906103c49190611130565b610d15565b6040516103d69190611068565b60405180910390f35b3480156103ea575f80fd5b5061040560048036038101906104009190611240565b610d81565b6040516104129190611068565b60405180910390f35b348015610426575f80fd5b50610441600480360381019061043c9190611130565b610e03565b60405161044e9190611068565b60405180910390f35b60018054610464906112ab565b80601f0160208091040260200160405190810160405280929190818152602001828054610490906112ab565b80156104db5780601f106104b2576101008083540402835291602001916104db565b820191905f5260205f20905b8154815290600101906020018083116104be57829003601f168201915b505050505081565b5f8160055f3373ffffffffffffffffffffffffffffffffffffffff1673ffffffffffffffffffffffffffffffffffffffff1681526020019081526020015f205f8573ffffffffffffffffffffffffffffffffffffffff1673ffffffffffffffffffffffffffffffffffffffff1681526020019081526020015f20819055508273ffffffffffffffffffffffffffffffffffffffff163373ffffffffffffffffffffffffffffffffffffffff167f8c5be1e5ebec7d5bd14f71427d1e84f3dd0314c0f7b2291e5b200ac8c7c3b925846040516105be9190611068565b60405180910390a36001905092915050565b5f60045f8073ffffffffffffffffffffffffffffffffffffffff1673ffffffffffffffffffffffffffffffffffffffff1681526020019081526020015f205460035461061c9190611308565b905090565b5f61066960045f8673ffffffffffffffffffffffffffffffffffffffff1673ffffffffffffffffffffffffffffffffffffffff1681526020019081526020015f205483610989565b60045f8673ffffffffffffffffffffffffffffffffffffffff1673ffffffffffffffffffffffffffffffffffffffff1681526020019081526020015f208190555061072c60055f8673ffffffffffffffffffffffffffffffffffffffff1673ffffffffffffffffffffffffffffffffffffffff1681526020019081526020015f205f3373ffffffffffffffffffffffffffffffffffffffff1673ffffffffffffffffffffffffffffffffffffffff1681526020019081526020015f205483610989565b60055f8673ffffffffffffffffffffffffffffffffffffffff1673ffffffffffffffffffffffffffffffffffffffff1681526020019081526020015f205f3373ffffffffffffffffffffffffffffffffffffffff1673ffffffffffffffffffffffffffffffffffffffff1681526020019081526020015f20819055506107ef60045f8573ffffffffffffffffffffffffffffffffffffffff1673ffffffffffffffffffffffffffffffffffffffff1681526020019081526020015f205483610e03565b60045f8573ffffffffffffffffffffffffffffffffffffffff1673ffffffffffffffffffffffffffffffffffffffff1681526020019081526020015f20819055508273ffffffffffffffffffffffffffffffffffffffff168473ffffffffffffffffffffffffffffffffffffffff167fddf252ad1be2c89b69c2b068fc378daa952ba7f163c4a11628f55a4df523b3ef8460405161088d9190611068565b60405180910390a3600190509392505050565b60025f9054906101000a900460ff1681565b60035481565b5f60045f8373ffffffffffffffffffffffffffffffffffffffff1673ffffffffffffffffffffffffffffffffffffffff1681526020019081526020015f20549050919050565b5f805461090a906112ab565b80601f0160208091040260200160405190810160405280929190818152602001828054610936906112ab565b80156109815780601f1061095857610100808354040283529160200191610981565b820191905f5260205f20905b81548152906001019060200180831161096457829003601f168201915b505050505081565b5f828211156109cd576040517f08c379a00000000000000000000000000000000000000000000000000000000081526004016109c490611385565b60405180910390fd5b81836109d99190611308565b905092915050565b5f610a2960045f3373ffffffffffffffffffffffffffffffffffffffff1673ffffffffffffffffffffffffffffffffffffffff1681526020019081526020015f205483610989565b60045f3373ffffffffffffffffffffffffffffffffffffffff1673ffffffffffffffffffffffffffffffffffffffff1681526020019081526020015f2081905550610ab160045f8573ffffffffffffffffffffffffffffffffffffffff1673ffffffffffffffffffffffffffffffffffffffff1681526020019081526020015f205483610e03565b60045f8573ffffffffffffffffffffffffffffffffffffffff1673ffffffffffffffffffffffffffffffffffffffff1681526020019081526020015f20819055508273ffffffffffffffffffffffffffffffffffffffff163373ffffffffffffffffffffffffffffffffffffffff167fddf252ad1be2c89b69c2b068fc378daa952ba7f163c4a11628f55a4df523b3ef84604051610b4f9190611068565b60405180910390a36001905092915050565b5f808211610ba4576040517f08c379a0000000000000000000000000000000000000000000000000000000008152600401610b9b906113ed565b60405180910390fd5b8183610bb09190611438565b905092915050565b5f8360055f3373ffffffffffffffffffffffffffffffffffffffff1673ffffffffffffffffffffffffffffffffffffffff1681526020019081526020015f205f8773ffffffffffffffffffffffffffffffffffffffff1673ffffffffffffffffffffffffffffffffffffffff1681526020019081526020015f20819055508473ffffffffffffffffffffffffffffffffffffffff163373ffffffffffffffffffffffffffffffffffffffff167f8c5be1e5ebec7d5bd14f71427d1e84f3dd0314c0f7b2291e5b200ac8c7c3b92586604051610c939190611068565b60405180910390a38473ffffffffffffffffffffffffffffffffffffffff16638f4ffcb133863087876040518663ffffffff1660e01b8152600401610cdc9594939291906114c1565b5f604051808303815f87803b158015610cf3575f80fd5b505af1158015610d05573d5f803e3d5ffd5b5050505060019050949350505050565b5f8183610d22919061150d565b90505f831480610d3c5750818382610d3a9190611438565b145b610d7b576040517f08c379a0000000000000000000000000000000000000000000000000000000008152600401610d7290611598565b60405180910390fd5b92915050565b5f60055f8473ffffffffffffffffffffffffffffffffffffffff1673ffffffffffffffffffffffffffffffffffffffff1681526020019081526020015f205f8373ffffffffffffffffffffffffffffffffffffffff1673ffffffffffffffffffffffffffffffffffffffff1681526020019081526020015f2054905092915050565b5f8183610e1091906115b6565b905082811015610e55576040517f08c379a0000000000000000000000000000000000000000000000000000000008152600401610e4c90611633565b60405180910390fd5b92915050565b5f82825260208201905092915050565b7f46616c6c6261636b2066756e6374696f6e2063616c6c656400000000000000005f82015250565b5f610e9f601883610e5b565b9150610eaa82610e6b565b602082019050919050565b5f6020820190508181035f830152610ecc81610e93565b9050919050565b5f81519050919050565b8281835e5f83830152505050565b5f601f19601f8301169050919050565b5f610f0582610ed3565b610f0f8185610e5b565b9350610f1f818560208601610edd565b610f2881610eeb565b840191505092915050565b5f6020820190508181035f830152610f4b8184610efb565b905092915050565b5f80fd5b5f80fd5b5f73ffffffffffffffffffffffffffffffffffffffff82169050919050565b5f610f8482610f5b565b9050919050565b610f9481610f7a565b8114610f9e575f80fd5b50565b5f81359050610faf81610f8b565b92915050565b5f819050919050565b610fc781610fb5565b8114610fd1575f80fd5b50565b5f81359050610fe281610fbe565b92915050565b5f8060408385031215610ffe57610ffd610f53565b5b5f61100b85828601610fa1565b925050602061101c85828601610fd4565b9150509250929050565b5f8115159050919050565b61103a81611026565b82525050565b5f6020820190506110535f830184611031565b92915050565b61106281610fb5565b82525050565b5f60208201905061107b5f830184611059565b92915050565b5f805f6060848603121561109857611097610f53565b5b5f6110a586828701610fa1565b93505060206110b686828701610fa1565b92505060406110c786828701610fd4565b9150509250925092565b5f60ff82169050919050565b6110e6816110d1565b82525050565b5f6020820190506110ff5f8301846110dd565b92915050565b5f6020828403121561111a57611119610f53565b5b5f61112784828501610fa1565b91505092915050565b5f806040838503121561114657611145610f53565b5b5f61115385828601610fd4565b925050602061116485828601610fd4565b9150509250929050565b5f80fd5b5f80fd5b5f80fd5b5f8083601f84011261118f5761118e61116e565b5b8235905067ffffffffffffffff8111156111ac576111ab611172565b5b6020830191508360018202830111156111c8576111c7611176565b5b9250929050565b5f805f80606085870312156111e7576111e6610f53565b5b5f6111f487828801610fa1565b945050602061120587828801610fd4565b935050604085013567ffffffffffffffff81111561122657611225610f57565b5b6112328782880161117a565b925092505092959194509250565b5f806040838503121561125657611255610f53565b5b5f61126385828601610fa1565b925050602061127485828601610fa1565b9150509250929050565b7f4e487b71000000000000000000000000000000000000000000000000000000005f52602260045260245ffd5b5f60028204905060018216806112c257607f821691505b6020821081036112d5576112d461127e565b5b50919050565b7f4e487b71000000000000000000000000000000000000000000000000000000005f52601160045260245ffd5b5f61131282610fb5565b915061131d83610fb5565b9250828203905081811115611335576113346112db565b5b92915050565b7f5375627472616374696f6e20756e646572666c6f7700000000000000000000005f82015250565b5f61136f601583610e5b565b915061137a8261133b565b602082019050919050565b5f6020820190508181035f83015261139c81611363565b9050919050565b7f4469766973696f6e206279207a65726f000000000000000000000000000000005f82015250565b5f6113d7601083610e5b565b91506113e2826113a3565b602082019050919050565b5f6020820190508181035f830152611404816113cb565b9050919050565b7f4e487b71000000000000000000000000000000000000000000000000000000005f52601260045260245ffd5b5f61144282610fb5565b915061144d83610fb5565b92508261145d5761145c61140b565b5b828204905092915050565b61147181610f7a565b82525050565b5f82825260208201905092915050565b828183375f83830152505050565b5f6114a08385611477565b93506114ad838584611487565b6114b683610eeb565b840190509392505050565b5f6080820190506114d45f830188611468565b6114e16020830187611059565b6114ee6040830186611468565b8181036060830152611501818486611495565b90509695505050505050565b5f61151782610fb5565b915061152283610fb5565b925082820261153081610fb5565b91508282048414831517611547576115466112db565b5b5092915050565b7f4d756c7469706c69636174696f6e206f766572666c6f770000000000000000005f82015250565b5f611582601783610e5b565b915061158d8261154e565b602082019050919050565b5f6020820190508181035f8301526115af81611576565b9050919050565b5f6115c082610fb5565b91506115cb83610fb5565b92508282019050808211156115e3576115e26112db565b5b92915050565b7f4164646974696f6e206f766572666c6f770000000000000000000000000000005f82015250565b5f61161d601183610e5b565b9150611628826115e9565b602082019050919050565b5f6020820190508181035f83015261164a81611611565b905091905056fea264697066735822122068ac4de0051b063c2f3c2d52e170a7bff700af03c174f78a952c0510304adb8b64736f6c634300081a0033",
					"opcodes": "PUSH1 0x80 PUSH1 0x40 MSTORE CALLVALUE DUP1 ISZERO PUSH2 0xF JUMPI PUSH0 DUP1 REVERT JUMPDEST POP PUSH1 0x40 MLOAD DUP1 PUSH1 0x40 ADD PUSH1 0x40 MSTORE DUP1 PUSH1 0x2 DUP2 MSTORE PUSH1 0x20 ADD PUSH32 0x4350000000000000000000000000000000000000000000000000000000000000 DUP2 MSTORE POP PUSH0 SWAP1 DUP2 PUSH2 0x53 SWAP2 SWAP1 PUSH2 0x3CF JUMP JUMPDEST POP PUSH1 0x40 MLOAD DUP1 PUSH1 0x40 ADD PUSH1 0x40 MSTORE DUP1 PUSH1 0x7 DUP2 MSTORE PUSH1 0x20 ADD PUSH32 0x435020436F696E00000000000000000000000000000000000000000000000000 DUP2 MSTORE POP PUSH1 0x1 SWAP1 DUP2 PUSH2 0x98 SWAP2 SWAP1 PUSH2 0x3CF JUMP JUMPDEST POP PUSH1 0x2 DUP1 PUSH0 PUSH2 0x100 EXP DUP2 SLOAD DUP2 PUSH1 0xFF MUL NOT AND SWAP1 DUP4 PUSH1 0xFF AND MUL OR SWAP1 SSTORE POP PUSH3 0x186A0 PUSH1 0x3 DUP2 SWAP1 SSTORE POP PUSH1 0x3 SLOAD PUSH1 0x4 PUSH0 PUSH20 0x44FF6F67486338CA724C9F0362860BB29ABAFD01 PUSH20 0xFFFFFFFFFFFFFFFFFFFFFFFFFFFFFFFFFFFFFFFF AND PUSH20 0xFFFFFFFFFFFFFFFFFFFFFFFFFFFFFFFFFFFFFFFF AND DUP2 MSTORE PUSH1 0x20 ADD SWAP1 DUP2 MSTORE PUSH1 0x20 ADD PUSH0 KECCAK256 DUP2 SWAP1 SSTORE POP PUSH20 0x44FF6F67486338CA724C9F0362860BB29ABAFD01 PUSH20 0xFFFFFFFFFFFFFFFFFFFFFFFFFFFFFFFFFFFFFFFF AND PUSH0 PUSH20 0xFFFFFFFFFFFFFFFFFFFFFFFFFFFFFFFFFFFFFFFF AND PUSH32 0xDDF252AD1BE2C89B69C2B068FC378DAA952BA7F163C4A11628F55A4DF523B3EF PUSH1 0x3 SLOAD PUSH1 0x40 MLOAD PUSH2 0x188 SWAP2 SWAP1 PUSH2 0x4AD JUMP JUMPDEST PUSH1 0x40 MLOAD DUP1 SWAP2 SUB SWAP1 LOG3 PUSH2 0x4C6 JUMP JUMPDEST PUSH0 DUP2 MLOAD SWAP1 POP SWAP2 SWAP1 POP JUMP JUMPDEST PUSH32 0x4E487B7100000000000000000000000000000000000000000000000000000000 PUSH0 MSTORE PUSH1 0x41 PUSH1 0x4 MSTORE PUSH1 0x24 PUSH0 REVERT JUMPDEST PUSH32 0x4E487B7100000000000000000000000000000000000000000000000000000000 PUSH0 MSTORE PUSH1 0x22 PUSH1 0x4 MSTORE PUSH1 0x24 PUSH0 REVERT JUMPDEST PUSH0 PUSH1 0x2 DUP3 DIV SWAP1 POP PUSH1 0x1 DUP3 AND DUP1 PUSH2 0x210 JUMPI PUSH1 0x7F DUP3 AND SWAP2 POP JUMPDEST PUSH1 0x20 DUP3 LT DUP2 SUB PUSH2 0x223 JUMPI PUSH2 0x222 PUSH2 0x1CC JUMP JUMPDEST JUMPDEST POP SWAP2 SWAP1 POP JUMP JUMPDEST PUSH0 DUP2 SWAP1 POP DUP2 PUSH0 MSTORE PUSH1 0x20 PUSH0 KECCAK256 SWAP1 POP SWAP2 SWAP1 POP JUMP JUMPDEST PUSH0 PUSH1 0x20 PUSH1 0x1F DUP4 ADD DIV SWAP1 POP SWAP2 SWAP1 POP JUMP JUMPDEST PUSH0 DUP3 DUP3 SHL SWAP1 POP SWAP3 SWAP2 POP POP JUMP JUMPDEST PUSH0 PUSH1 0x8 DUP4 MUL PUSH2 0x285 PUSH32 0xFFFFFFFFFFFFFFFFFFFFFFFFFFFFFFFFFFFFFFFFFFFFFFFFFFFFFFFFFFFFFFFF DUP3 PUSH2 0x24A JUMP JUMPDEST PUSH2 0x28F DUP7 DUP4 PUSH2 0x24A JUMP JUMPDEST SWAP6 POP DUP1 NOT DUP5 AND SWAP4 POP DUP1 DUP7 AND DUP5 OR SWAP3 POP POP POP SWAP4 SWAP3 POP POP POP JUMP JUMPDEST PUSH0 DUP2 SWAP1 POP SWAP2 SWAP1 POP JUMP JUMPDEST PUSH0 DUP2 SWAP1 POP SWAP2 SWAP1 POP JUMP JUMPDEST PUSH0 PUSH2 0x2D3 PUSH2 0x2CE PUSH2 0x2C9 DUP5 PUSH2 0x2A7 JUMP JUMPDEST PUSH2 0x2B0 JUMP JUMPDEST PUSH2 0x2A7 JUMP JUMPDEST SWAP1 POP SWAP2 SWAP1 POP JUMP JUMPDEST PUSH0 DUP2 SWAP1 POP SWAP2 SWAP1 POP JUMP JUMPDEST PUSH2 0x2EC DUP4 PUSH2 0x2B9 JUMP JUMPDEST PUSH2 0x300 PUSH2 0x2F8 DUP3 PUSH2 0x2DA JUMP JUMPDEST DUP5 DUP5 SLOAD PUSH2 0x256 JUMP JUMPDEST DUP3 SSTORE POP POP POP POP JUMP JUMPDEST PUSH0 SWAP1 JUMP JUMPDEST PUSH2 0x314 PUSH2 0x308 JUMP JUMPDEST PUSH2 0x31F DUP2 DUP5 DUP5 PUSH2 0x2E3 JUMP JUMPDEST POP POP POP JUMP JUMPDEST JUMPDEST DUP2 DUP2 LT ISZERO PUSH2 0x342 JUMPI PUSH2 0x337 PUSH0 DUP3 PUSH2 0x30C JUMP JUMPDEST PUSH1 0x1 DUP2 ADD SWAP1 POP PUSH2 0x325 JUMP JUMPDEST POP POP JUMP JUMPDEST PUSH1 0x1F DUP3 GT ISZERO PUSH2 0x387 JUMPI PUSH2 0x358 DUP2 PUSH2 0x229 JUMP JUMPDEST PUSH2 0x361 DUP5 PUSH2 0x23B JUMP JUMPDEST DUP2 ADD PUSH1 0x20 DUP6 LT ISZERO PUSH2 0x370 JUMPI DUP2 SWAP1 POP JUMPDEST PUSH2 0x384 PUSH2 0x37C DUP6 PUSH2 0x23B JUMP JUMPDEST DUP4 ADD DUP3 PUSH2 0x324 JUMP JUMPDEST POP POP JUMPDEST POP POP POP JUMP JUMPDEST PUSH0 DUP3 DUP3 SHR SWAP1 POP SWAP3 SWAP2 POP POP JUMP JUMPDEST PUSH0 PUSH2 0x3A7 PUSH0 NOT DUP5 PUSH1 0x8 MUL PUSH2 0x38C JUMP JUMPDEST NOT DUP1 DUP4 AND SWAP2 POP POP SWAP3 SWAP2 POP POP JUMP JUMPDEST PUSH0 PUSH2 0x3BF DUP4 DUP4 PUSH2 0x398 JUMP JUMPDEST SWAP2 POP DUP3 PUSH1 0x2 MUL DUP3 OR SWAP1 POP SWAP3 SWAP2 POP POP JUMP JUMPDEST PUSH2 0x3D8 DUP3 PUSH2 0x195 JUMP JUMPDEST PUSH8 0xFFFFFFFFFFFFFFFF DUP2 GT ISZERO PUSH2 0x3F1 JUMPI PUSH2 0x3F0 PUSH2 0x19F JUMP JUMPDEST JUMPDEST PUSH2 0x3FB DUP3 SLOAD PUSH2 0x1F9 JUMP JUMPDEST PUSH2 0x406 DUP3 DUP3 DUP6 PUSH2 0x346 JUMP JUMPDEST PUSH0 PUSH1 0x20 SWAP1 POP PUSH1 0x1F DUP4 GT PUSH1 0x1 DUP2 EQ PUSH2 0x437 JUMPI PUSH0 DUP5 ISZERO PUSH2 0x425 JUMPI DUP3 DUP8 ADD MLOAD SWAP1 POP JUMPDEST PUSH2 0x42F DUP6 DUP3 PUSH2 0x3B4 JUMP JUMPDEST DUP7 SSTORE POP PUSH2 0x496 JUMP JUMPDEST PUSH1 0x1F NOT DUP5 AND PUSH2 0x445 DUP7 PUSH2 0x229 JUMP JUMPDEST PUSH0 JUMPDEST DUP3 DUP2 LT ISZERO PUSH2 0x46C JUMPI DUP5 DUP10 ADD MLOAD DUP3 SSTORE PUSH1 0x1 DUP3 ADD SWAP2 POP PUSH1 0x20 DUP6 ADD SWAP5 POP PUSH1 0x20 DUP2 ADD SWAP1 POP PUSH2 0x447 JUMP JUMPDEST DUP7 DUP4 LT ISZERO PUSH2 0x489 JUMPI DUP5 DUP10 ADD MLOAD PUSH2 0x485 PUSH1 0x1F DUP10 AND DUP3 PUSH2 0x398 JUMP JUMPDEST DUP4 SSTORE POP JUMPDEST PUSH1 0x1 PUSH1 0x2 DUP9 MUL ADD DUP9 SSTORE POP POP POP JUMPDEST POP POP POP POP POP POP JUMP JUMPDEST PUSH2 0x4A7 DUP2 PUSH2 0x2A7 JUMP JUMPDEST DUP3 MSTORE POP POP JUMP JUMPDEST PUSH0 PUSH1 0x20 DUP3 ADD SWAP1 POP PUSH2 0x4C0 PUSH0 DUP4 ADD DUP5 PUSH2 0x49E JUMP JUMPDEST SWAP3 SWAP2 POP POP JUMP JUMPDEST PUSH2 0x1687 DUP1 PUSH2 0x4D3 PUSH0 CODECOPY PUSH0 RETURN INVALID PUSH1 0x80 PUSH1 0x40 MSTORE PUSH1 0x4 CALLDATASIZE LT PUSH2 0xEB JUMPI PUSH0 CALLDATALOAD PUSH1 0xE0 SHR DUP1 PUSH4 0x95D89B41 GT PUSH2 0x89 JUMPI DUP1 PUSH4 0xCAE9CA51 GT PUSH2 0x58 JUMPI DUP1 PUSH4 0xCAE9CA51 EQ PUSH2 0x367 JUMPI DUP1 PUSH4 0xD05C78DA EQ PUSH2 0x3A3 JUMPI DUP1 PUSH4 0xDD62ED3E EQ PUSH2 0x3DF JUMPI DUP1 PUSH4 0xE6CB9013 EQ PUSH2 0x41B JUMPI PUSH2 0xF2 JUMP JUMPDEST DUP1 PUSH4 0x95D89B41 EQ PUSH2 0x289 JUMPI DUP1 PUSH4 0xA293D1E8 EQ PUSH2 0x2B3 JUMPI DUP1 PUSH4 0xA9059CBB EQ PUSH2 0x2EF JUMPI DUP1 PUSH4 0xB5931F7C EQ PUSH2 0x32B JUMPI PUSH2 0xF2 JUMP JUMPDEST DUP1 PUSH4 0x23B872DD GT PUSH2 0xC5 JUMPI DUP1 PUSH4 0x23B872DD EQ PUSH2 0x1BD JUMPI DUP1 PUSH4 0x313CE567 EQ PUSH2 0x1F9 JUMPI DUP1 PUSH4 0x3EAAF86B EQ PUSH2 0x223 JUMPI DUP1 PUSH4 0x70A08231 EQ PUSH2 0x24D JUMPI PUSH2 0xF2 JUMP JUMPDEST DUP1 PUSH4 0x6FDDE03 EQ PUSH2 0x12D JUMPI DUP1 PUSH4 0x95EA7B3 EQ PUSH2 0x157 JUMPI DUP1 PUSH4 0x18160DDD EQ PUSH2 0x193 JUMPI PUSH2 0xF2 JUMP JUMPDEST CALLDATASIZE PUSH2 0xF2 JUMPI STOP JUMPDEST PUSH1 0x40 MLOAD PUSH32 0x8C379A000000000000000000000000000000000000000000000000000000000 DUP2 MSTORE PUSH1 0x4 ADD PUSH2 0x124 SWAP1 PUSH2 0xEB5 JUMP JUMPDEST PUSH1 0x40 MLOAD DUP1 SWAP2 SUB SWAP1 REVERT JUMPDEST CALLVALUE DUP1 ISZERO PUSH2 0x138 JUMPI PUSH0 DUP1 REVERT JUMPDEST POP PUSH2 0x141 PUSH2 0x457 JUMP JUMPDEST PUSH1 0x40 MLOAD PUSH2 0x14E SWAP2 SWAP1 PUSH2 0xF33 JUMP JUMPDEST PUSH1 0x40 MLOAD DUP1 SWAP2 SUB SWAP1 RETURN JUMPDEST CALLVALUE DUP1 ISZERO PUSH2 0x162 JUMPI PUSH0 DUP1 REVERT JUMPDEST POP PUSH2 0x17D PUSH1 0x4 DUP1 CALLDATASIZE SUB DUP2 ADD SWAP1 PUSH2 0x178 SWAP2 SWAP1 PUSH2 0xFE8 JUMP JUMPDEST PUSH2 0x4E3 JUMP JUMPDEST PUSH1 0x40 MLOAD PUSH2 0x18A SWAP2 SWAP1 PUSH2 0x1040 JUMP JUMPDEST PUSH1 0x40 MLOAD DUP1 SWAP2 SUB SWAP1 RETURN JUMPDEST CALLVALUE DUP1 ISZERO PUSH2 0x19E JUMPI PUSH0 DUP1 REVERT JUMPDEST POP PUSH2 0x1A7 PUSH2 0x5D0 JUMP JUMPDEST PUSH1 0x40 MLOAD PUSH2 0x1B4 SWAP2 SWAP1 PUSH2 0x1068 JUMP JUMPDEST PUSH1 0x40 MLOAD DUP1 SWAP2 SUB SWAP1 RETURN JUMPDEST CALLVALUE DUP1 ISZERO PUSH2 0x1C8 JUMPI PUSH0 DUP1 REVERT JUMPDEST POP PUSH2 0x1E3 PUSH1 0x4 DUP1 CALLDATASIZE SUB DUP2 ADD SWAP1 PUSH2 0x1DE SWAP2 SWAP1 PUSH2 0x1081 JUMP JUMPDEST PUSH2 0x621 JUMP JUMPDEST PUSH1 0x40 MLOAD PUSH2 0x1F0 SWAP2 SWAP1 PUSH2 0x1040 JUMP JUMPDEST PUSH1 0x40 MLOAD DUP1 SWAP2 SUB SWAP1 RETURN JUMPDEST CALLVALUE DUP1 ISZERO PUSH2 0x204 JUMPI PUSH0 DUP1 REVERT JUMPDEST POP PUSH2 0x20D PUSH2 0x8A0 JUMP JUMPDEST PUSH1 0x40 MLOAD PUSH2 0x21A SWAP2 SWAP1 PUSH2 0x10EC JUMP JUMPDEST PUSH1 0x40 MLOAD DUP1 SWAP2 SUB SWAP1 RETURN JUMPDEST CALLVALUE DUP1 ISZERO PUSH2 0x22E JUMPI PUSH0 DUP1 REVERT JUMPDEST POP PUSH2 0x237 PUSH2 0x8B2 JUMP JUMPDEST PUSH1 0x40 MLOAD PUSH2 0x244 SWAP2 SWAP1 PUSH2 0x1068 JUMP JUMPDEST PUSH1 0x40 MLOAD DUP1 SWAP2 SUB SWAP1 RETURN JUMPDEST CALLVALUE DUP1 ISZERO PUSH2 0x258 JUMPI PUSH0 DUP1 REVERT JUMPDEST POP PUSH2 0x273 PUSH1 0x4 DUP1 CALLDATASIZE SUB DUP2 ADD SWAP1 PUSH2 0x26E SWAP2 SWAP1 PUSH2 0x1105 JUMP JUMPDEST PUSH2 0x8B8 JUMP JUMPDEST PUSH1 0x40 MLOAD PUSH2 0x280 SWAP2 SWAP1 PUSH2 0x1068 JUMP JUMPDEST PUSH1 0x40 MLOAD DUP1 SWAP2 SUB SWAP1 RETURN JUMPDEST CALLVALUE DUP1 ISZERO PUSH2 0x294 JUMPI PUSH0 DUP1 REVERT JUMPDEST POP PUSH2 0x29D PUSH2 0x8FE JUMP JUMPDEST PUSH1 0x40 MLOAD PUSH2 0x2AA SWAP2 SWAP1 PUSH2 0xF33 JUMP JUMPDEST PUSH1 0x40 MLOAD DUP1 SWAP2 SUB SWAP1 RETURN JUMPDEST CALLVALUE DUP1 ISZERO PUSH2 0x2BE JUMPI PUSH0 DUP1 REVERT JUMPDEST POP PUSH2 0x2D9 PUSH1 0x4 DUP1 CALLDATASIZE SUB DUP2 ADD SWAP1 PUSH2 0x2D4 SWAP2 SWAP1 PUSH2 0x1130 JUMP JUMPDEST PUSH2 0x989 JUMP JUMPDEST PUSH1 0x40 MLOAD PUSH2 0x2E6 SWAP2 SWAP1 PUSH2 0x1068 JUMP JUMPDEST PUSH1 0x40 MLOAD DUP1 SWAP2 SUB SWAP1 RETURN JUMPDEST CALLVALUE DUP1 ISZERO PUSH2 0x2FA JUMPI PUSH0 DUP1 REVERT JUMPDEST POP PUSH2 0x315 PUSH1 0x4 DUP1 CALLDATASIZE SUB DUP2 ADD SWAP1 PUSH2 0x310 SWAP2 SWAP1 PUSH2 0xFE8 JUMP JUMPDEST PUSH2 0x9E1 JUMP JUMPDEST PUSH1 0x40 MLOAD PUSH2 0x322 SWAP2 SWAP1 PUSH2 0x1040 JUMP JUMPDEST PUSH1 0x40 MLOAD DUP1 SWAP2 SUB SWAP1 RETURN JUMPDEST CALLVALUE DUP1 ISZERO PUSH2 0x336 JUMPI PUSH0 DUP1 REVERT JUMPDEST POP PUSH2 0x351 PUSH1 0x4 DUP1 CALLDATASIZE SUB DUP2 ADD SWAP1 PUSH2 0x34C SWAP2 SWAP1 PUSH2 0x1130 JUMP JUMPDEST PUSH2 0xB61 JUMP JUMPDEST PUSH1 0x40 MLOAD PUSH2 0x35E SWAP2 SWAP1 PUSH2 0x1068 JUMP JUMPDEST PUSH1 0x40 MLOAD DUP1 SWAP2 SUB SWAP1 RETURN JUMPDEST CALLVALUE DUP1 ISZERO PUSH2 0x372 JUMPI PUSH0 DUP1 REVERT JUMPDEST POP PUSH2 0x38D PUSH1 0x4 DUP1 CALLDATASIZE SUB DUP2 ADD SWAP1 PUSH2 0x388 SWAP2 SWAP1 PUSH2 0x11CF JUMP JUMPDEST PUSH2 0xBB8 JUMP JUMPDEST PUSH1 0x40 MLOAD PUSH2 0x39A SWAP2 SWAP1 PUSH2 0x1040 JUMP JUMPDEST PUSH1 0x40 MLOAD DUP1 SWAP2 SUB SWAP1 RETURN JUMPDEST CALLVALUE DUP1 ISZERO PUSH2 0x3AE JUMPI PUSH0 DUP1 REVERT JUMPDEST POP PUSH2 0x3C9 PUSH1 0x4 DUP1 CALLDATASIZE SUB DUP2 ADD SWAP1 PUSH2 0x3C4 SWAP2 SWAP1 PUSH2 0x1130 JUMP JUMPDEST PUSH2 0xD15 JUMP JUMPDEST PUSH1 0x40 MLOAD PUSH2 0x3D6 SWAP2 SWAP1 PUSH2 0x1068 JUMP JUMPDEST PUSH1 0x40 MLOAD DUP1 SWAP2 SUB SWAP1 RETURN JUMPDEST CALLVALUE DUP1 ISZERO PUSH2 0x3EA JUMPI PUSH0 DUP1 REVERT JUMPDEST POP PUSH2 0x405 PUSH1 0x4 DUP1 CALLDATASIZE SUB DUP2 ADD SWAP1 PUSH2 0x400 SWAP2 SWAP1 PUSH2 0x1240 JUMP JUMPDEST PUSH2 0xD81 JUMP JUMPDEST PUSH1 0x40 MLOAD PUSH2 0x412 SWAP2 SWAP1 PUSH2 0x1068 JUMP JUMPDEST PUSH1 0x40 MLOAD DUP1 SWAP2 SUB SWAP1 RETURN JUMPDEST CALLVALUE DUP1 ISZERO PUSH2 0x426 JUMPI PUSH0 DUP1 REVERT JUMPDEST POP PUSH2 0x441 PUSH1 0x4 DUP1 CALLDATASIZE SUB DUP2 ADD SWAP1 PUSH2 0x43C SWAP2 SWAP1 PUSH2 0x1130 JUMP JUMPDEST PUSH2 0xE03 JUMP JUMPDEST PUSH1 0x40 MLOAD PUSH2 0x44E SWAP2 SWAP1 PUSH2 0x1068 JUMP JUMPDEST PUSH1 0x40 MLOAD DUP1 SWAP2 SUB SWAP1 RETURN JUMPDEST PUSH1 0x1 DUP1 SLOAD PUSH2 0x464 SWAP1 PUSH2 0x12AB JUMP JUMPDEST DUP1 PUSH1 0x1F ADD PUSH1 0x20 DUP1 SWAP2 DIV MUL PUSH1 0x20 ADD PUSH1 0x40 MLOAD SWAP1 DUP2 ADD PUSH1 0x40 MSTORE DUP1 SWAP3 SWAP2 SWAP1 DUP2 DUP2 MSTORE PUSH1 0x20 ADD DUP3 DUP1 SLOAD PUSH2 0x490 SWAP1 PUSH2 0x12AB JUMP JUMPDEST DUP1 ISZERO PUSH2 0x4DB JUMPI DUP1 PUSH1 0x1F LT PUSH2 0x4B2 JUMPI PUSH2 0x100 DUP1 DUP4 SLOAD DIV MUL DUP4 MSTORE SWAP2 PUSH1 0x20 ADD SWAP2 PUSH2 0x4DB JUMP JUMPDEST DUP3 ADD SWAP2 SWAP1 PUSH0 MSTORE PUSH1 0x20 PUSH0 KECCAK256 SWAP1 JUMPDEST DUP2 SLOAD DUP2 MSTORE SWAP1 PUSH1 0x1 ADD SWAP1 PUSH1 0x20 ADD DUP1 DUP4 GT PUSH2 0x4BE JUMPI DUP3 SWAP1 SUB PUSH1 0x1F AND DUP3 ADD SWAP2 JUMPDEST POP POP POP POP POP DUP2 JUMP JUMPDEST PUSH0 DUP2 PUSH1 0x5 PUSH0 CALLER PUSH20 0xFFFFFFFFFFFFFFFFFFFFFFFFFFFFFFFFFFFFFFFF AND PUSH20 0xFFFFFFFFFFFFFFFFFFFFFFFFFFFFFFFFFFFFFFFF AND DUP2 MSTORE PUSH1 0x20 ADD SWAP1 DUP2 MSTORE PUSH1 0x20 ADD PUSH0 KECCAK256 PUSH0 DUP6 PUSH20 0xFFFFFFFFFFFFFFFFFFFFFFFFFFFFFFFFFFFFFFFF AND PUSH20 0xFFFFFFFFFFFFFFFFFFFFFFFFFFFFFFFFFFFFFFFF AND DUP2 MSTORE PUSH1 0x20 ADD SWAP1 DUP2 MSTORE PUSH1 0x20 ADD PUSH0 KECCAK256 DUP2 SWAP1 SSTORE POP DUP3 PUSH20 0xFFFFFFFFFFFFFFFFFFFFFFFFFFFFFFFFFFFFFFFF AND CALLER PUSH20 0xFFFFFFFFFFFFFFFFFFFFFFFFFFFFFFFFFFFFFFFF AND PUSH32 0x8C5BE1E5EBEC7D5BD14F71427D1E84F3DD0314C0F7B2291E5B200AC8C7C3B925 DUP5 PUSH1 0x40 MLOAD PUSH2 0x5BE SWAP2 SWAP1 PUSH2 0x1068 JUMP JUMPDEST PUSH1 0x40 MLOAD DUP1 SWAP2 SUB SWAP1 LOG3 PUSH1 0x1 SWAP1 POP SWAP3 SWAP2 POP POP JUMP JUMPDEST PUSH0 PUSH1 0x4 PUSH0 DUP1 PUSH20 0xFFFFFFFFFFFFFFFFFFFFFFFFFFFFFFFFFFFFFFFF AND PUSH20 0xFFFFFFFFFFFFFFFFFFFFFFFFFFFFFFFFFFFFFFFF AND DUP2 MSTORE PUSH1 0x20 ADD SWAP1 DUP2 MSTORE PUSH1 0x20 ADD PUSH0 KECCAK256 SLOAD PUSH1 0x3 SLOAD PUSH2 0x61C SWAP2 SWAP1 PUSH2 0x1308 JUMP JUMPDEST SWAP1 POP SWAP1 JUMP JUMPDEST PUSH0 PUSH2 0x669 PUSH1 0x4 PUSH0 DUP7 PUSH20 0xFFFFFFFFFFFFFFFFFFFFFFFFFFFFFFFFFFFFFFFF AND PUSH20 0xFFFFFFFFFFFFFFFFFFFFFFFFFFFFFFFFFFFFFFFF AND DUP2 MSTORE PUSH1 0x20 ADD SWAP1 DUP2 MSTORE PUSH1 0x20 ADD PUSH0 KECCAK256 SLOAD DUP4 PUSH2 0x989 JUMP JUMPDEST PUSH1 0x4 PUSH0 DUP7 PUSH20 0xFFFFFFFFFFFFFFFFFFFFFFFFFFFFFFFFFFFFFFFF AND PUSH20 0xFFFFFFFFFFFFFFFFFFFFFFFFFFFFFFFFFFFFFFFF AND DUP2 MSTORE PUSH1 0x20 ADD SWAP1 DUP2 MSTORE PUSH1 0x20 ADD PUSH0 KECCAK256 DUP2 SWAP1 SSTORE POP PUSH2 0x72C PUSH1 0x5 PUSH0 DUP7 PUSH20 0xFFFFFFFFFFFFFFFFFFFFFFFFFFFFFFFFFFFFFFFF AND PUSH20 0xFFFFFFFFFFFFFFFFFFFFFFFFFFFFFFFFFFFFFFFF AND DUP2 MSTORE PUSH1 0x20 ADD SWAP1 DUP2 MSTORE PUSH1 0x20 ADD PUSH0 KECCAK256 PUSH0 CALLER PUSH20 0xFFFFFFFFFFFFFFFFFFFFFFFFFFFFFFFFFFFFFFFF AND PUSH20 0xFFFFFFFFFFFFFFFFFFFFFFFFFFFFFFFFFFFFFFFF AND DUP2 MSTORE PUSH1 0x20 ADD SWAP1 DUP2 MSTORE PUSH1 0x20 ADD PUSH0 KECCAK256 SLOAD DUP4 PUSH2 0x989 JUMP JUMPDEST PUSH1 0x5 PUSH0 DUP7 PUSH20 0xFFFFFFFFFFFFFFFFFFFFFFFFFFFFFFFFFFFFFFFF AND PUSH20 0xFFFFFFFFFFFFFFFFFFFFFFFFFFFFFFFFFFFFFFFF AND DUP2 MSTORE PUSH1 0x20 ADD SWAP1 DUP2 MSTORE PUSH1 0x20 ADD PUSH0 KECCAK256 PUSH0 CALLER PUSH20 0xFFFFFFFFFFFFFFFFFFFFFFFFFFFFFFFFFFFFFFFF AND PUSH20 0xFFFFFFFFFFFFFFFFFFFFFFFFFFFFFFFFFFFFFFFF AND DUP2 MSTORE PUSH1 0x20 ADD SWAP1 DUP2 MSTORE PUSH1 0x20 ADD PUSH0 KECCAK256 DUP2 SWAP1 SSTORE POP PUSH2 0x7EF PUSH1 0x4 PUSH0 DUP6 PUSH20 0xFFFFFFFFFFFFFFFFFFFFFFFFFFFFFFFFFFFFFFFF AND PUSH20 0xFFFFFFFFFFFFFFFFFFFFFFFFFFFFFFFFFFFFFFFF AND DUP2 MSTORE PUSH1 0x20 ADD SWAP1 DUP2 MSTORE PUSH1 0x20 ADD PUSH0 KECCAK256 SLOAD DUP4 PUSH2 0xE03 JUMP JUMPDEST PUSH1 0x4 PUSH0 DUP6 PUSH20 0xFFFFFFFFFFFFFFFFFFFFFFFFFFFFFFFFFFFFFFFF AND PUSH20 0xFFFFFFFFFFFFFFFFFFFFFFFFFFFFFFFFFFFFFFFF AND DUP2 MSTORE PUSH1 0x20 ADD SWAP1 DUP2 MSTORE PUSH1 0x20 ADD PUSH0 KECCAK256 DUP2 SWAP1 SSTORE POP DUP3 PUSH20 0xFFFFFFFFFFFFFFFFFFFFFFFFFFFFFFFFFFFFFFFF AND DUP5 PUSH20 0xFFFFFFFFFFFFFFFFFFFFFFFFFFFFFFFFFFFFFFFF AND PUSH32 0xDDF252AD1BE2C89B69C2B068FC378DAA952BA7F163C4A11628F55A4DF523B3EF DUP5 PUSH1 0x40 MLOAD PUSH2 0x88D SWAP2 SWAP1 PUSH2 0x1068 JUMP JUMPDEST PUSH1 0x40 MLOAD DUP1 SWAP2 SUB SWAP1 LOG3 PUSH1 0x1 SWAP1 POP SWAP4 SWAP3 POP POP POP JUMP JUMPDEST PUSH1 0x2 PUSH0 SWAP1 SLOAD SWAP1 PUSH2 0x100 EXP SWAP1 DIV PUSH1 0xFF AND DUP2 JUMP JUMPDEST PUSH1 0x3 SLOAD DUP2 JUMP JUMPDEST PUSH0 PUSH1 0x4 PUSH0 DUP4 PUSH20 0xFFFFFFFFFFFFFFFFFFFFFFFFFFFFFFFFFFFFFFFF AND PUSH20 0xFFFFFFFFFFFFFFFFFFFFFFFFFFFFFFFFFFFFFFFF AND DUP2 MSTORE PUSH1 0x20 ADD SWAP1 DUP2 MSTORE PUSH1 0x20 ADD PUSH0 KECCAK256 SLOAD SWAP1 POP SWAP2 SWAP1 POP JUMP JUMPDEST PUSH0 DUP1 SLOAD PUSH2 0x90A SWAP1 PUSH2 0x12AB JUMP JUMPDEST DUP1 PUSH1 0x1F ADD PUSH1 0x20 DUP1 SWAP2 DIV MUL PUSH1 0x20 ADD PUSH1 0x40 MLOAD SWAP1 DUP2 ADD PUSH1 0x40 MSTORE DUP1 SWAP3 SWAP2 SWAP1 DUP2 DUP2 MSTORE PUSH1 0x20 ADD DUP3 DUP1 SLOAD PUSH2 0x936 SWAP1 PUSH2 0x12AB JUMP JUMPDEST DUP1 ISZERO PUSH2 0x981 JUMPI DUP1 PUSH1 0x1F LT PUSH2 0x958 JUMPI PUSH2 0x100 DUP1 DUP4 SLOAD DIV MUL DUP4 MSTORE SWAP2 PUSH1 0x20 ADD SWAP2 PUSH2 0x981 JUMP JUMPDEST DUP3 ADD SWAP2 SWAP1 PUSH0 MSTORE PUSH1 0x20 PUSH0 KECCAK256 SWAP1 JUMPDEST DUP2 SLOAD DUP2 MSTORE SWAP1 PUSH1 0x1 ADD SWAP1 PUSH1 0x20 ADD DUP1 DUP4 GT PUSH2 0x964 JUMPI DUP3 SWAP1 SUB PUSH1 0x1F AND DUP3 ADD SWAP2 JUMPDEST POP POP POP POP POP DUP2 JUMP JUMPDEST PUSH0 DUP3 DUP3 GT ISZERO PUSH2 0x9CD JUMPI PUSH1 0x40 MLOAD PUSH32 0x8C379A000000000000000000000000000000000000000000000000000000000 DUP2 MSTORE PUSH1 0x4 ADD PUSH2 0x9C4 SWAP1 PUSH2 0x1385 JUMP JUMPDEST PUSH1 0x40 MLOAD DUP1 SWAP2 SUB SWAP1 REVERT JUMPDEST DUP2 DUP4 PUSH2 0x9D9 SWAP2 SWAP1 PUSH2 0x1308 JUMP JUMPDEST SWAP1 POP SWAP3 SWAP2 POP POP JUMP JUMPDEST PUSH0 PUSH2 0xA29 PUSH1 0x4 PUSH0 CALLER PUSH20 0xFFFFFFFFFFFFFFFFFFFFFFFFFFFFFFFFFFFFFFFF AND PUSH20 0xFFFFFFFFFFFFFFFFFFFFFFFFFFFFFFFFFFFFFFFF AND DUP2 MSTORE PUSH1 0x20 ADD SWAP1 DUP2 MSTORE PUSH1 0x20 ADD PUSH0 KECCAK256 SLOAD DUP4 PUSH2 0x989 JUMP JUMPDEST PUSH1 0x4 PUSH0 CALLER PUSH20 0xFFFFFFFFFFFFFFFFFFFFFFFFFFFFFFFFFFFFFFFF AND PUSH20 0xFFFFFFFFFFFFFFFFFFFFFFFFFFFFFFFFFFFFFFFF AND DUP2 MSTORE PUSH1 0x20 ADD SWAP1 DUP2 MSTORE PUSH1 0x20 ADD PUSH0 KECCAK256 DUP2 SWAP1 SSTORE POP PUSH2 0xAB1 PUSH1 0x4 PUSH0 DUP6 PUSH20 0xFFFFFFFFFFFFFFFFFFFFFFFFFFFFFFFFFFFFFFFF AND PUSH20 0xFFFFFFFFFFFFFFFFFFFFFFFFFFFFFFFFFFFFFFFF AND DUP2 MSTORE PUSH1 0x20 ADD SWAP1 DUP2 MSTORE PUSH1 0x20 ADD PUSH0 KECCAK256 SLOAD DUP4 PUSH2 0xE03 JUMP JUMPDEST PUSH1 0x4 PUSH0 DUP6 PUSH20 0xFFFFFFFFFFFFFFFFFFFFFFFFFFFFFFFFFFFFFFFF AND PUSH20 0xFFFFFFFFFFFFFFFFFFFFFFFFFFFFFFFFFFFFFFFF AND DUP2 MSTORE PUSH1 0x20 ADD SWAP1 DUP2 MSTORE PUSH1 0x20 ADD PUSH0 KECCAK256 DUP2 SWAP1 SSTORE POP DUP3 PUSH20 0xFFFFFFFFFFFFFFFFFFFFFFFFFFFFFFFFFFFFFFFF AND CALLER PUSH20 0xFFFFFFFFFFFFFFFFFFFFFFFFFFFFFFFFFFFFFFFF AND PUSH32 0xDDF252AD1BE2C89B69C2B068FC378DAA952BA7F163C4A11628F55A4DF523B3EF DUP5 PUSH1 0x40 MLOAD PUSH2 0xB4F SWAP2 SWAP1 PUSH2 0x1068 JUMP JUMPDEST PUSH1 0x40 MLOAD DUP1 SWAP2 SUB SWAP1 LOG3 PUSH1 0x1 SWAP1 POP SWAP3 SWAP2 POP POP JUMP JUMPDEST PUSH0 DUP1 DUP3 GT PUSH2 0xBA4 JUMPI PUSH1 0x40 MLOAD PUSH32 0x8C379A000000000000000000000000000000000000000000000000000000000 DUP2 MSTORE PUSH1 0x4 ADD PUSH2 0xB9B SWAP1 PUSH2 0x13ED JUMP JUMPDEST PUSH1 0x40 MLOAD DUP1 SWAP2 SUB SWAP1 REVERT JUMPDEST DUP2 DUP4 PUSH2 0xBB0 SWAP2 SWAP1 PUSH2 0x1438 JUMP JUMPDEST SWAP1 POP SWAP3 SWAP2 POP POP JUMP JUMPDEST PUSH0 DUP4 PUSH1 0x5 PUSH0 CALLER PUSH20 0xFFFFFFFFFFFFFFFFFFFFFFFFFFFFFFFFFFFFFFFF AND PUSH20 0xFFFFFFFFFFFFFFFFFFFFFFFFFFFFFFFFFFFFFFFF AND DUP2 MSTORE PUSH1 0x20 ADD SWAP1 DUP2 MSTORE PUSH1 0x20 ADD PUSH0 KECCAK256 PUSH0 DUP8 PUSH20 0xFFFFFFFFFFFFFFFFFFFFFFFFFFFFFFFFFFFFFFFF AND PUSH20 0xFFFFFFFFFFFFFFFFFFFFFFFFFFFFFFFFFFFFFFFF AND DUP2 MSTORE PUSH1 0x20 ADD SWAP1 DUP2 MSTORE PUSH1 0x20 ADD PUSH0 KECCAK256 DUP2 SWAP1 SSTORE POP DUP5 PUSH20 0xFFFFFFFFFFFFFFFFFFFFFFFFFFFFFFFFFFFFFFFF AND CALLER PUSH20 0xFFFFFFFFFFFFFFFFFFFFFFFFFFFFFFFFFFFFFFFF AND PUSH32 0x8C5BE1E5EBEC7D5BD14F71427D1E84F3DD0314C0F7B2291E5B200AC8C7C3B925 DUP7 PUSH1 0x40 MLOAD PUSH2 0xC93 SWAP2 SWAP1 PUSH2 0x1068 JUMP JUMPDEST PUSH1 0x40 MLOAD DUP1 SWAP2 SUB SWAP1 LOG3 DUP5 PUSH20 0xFFFFFFFFFFFFFFFFFFFFFFFFFFFFFFFFFFFFFFFF AND PUSH4 0x8F4FFCB1 CALLER DUP7 ADDRESS DUP8 DUP8 PUSH1 0x40 MLOAD DUP7 PUSH4 0xFFFFFFFF AND PUSH1 0xE0 SHL DUP2 MSTORE PUSH1 0x4 ADD PUSH2 0xCDC SWAP6 SWAP5 SWAP4 SWAP3 SWAP2 SWAP1 PUSH2 0x14C1 JUMP JUMPDEST PUSH0 PUSH1 0x40 MLOAD DUP1 DUP4 SUB DUP2 PUSH0 DUP8 DUP1 EXTCODESIZE ISZERO DUP1 ISZERO PUSH2 0xCF3 JUMPI PUSH0 DUP1 REVERT JUMPDEST POP GAS CALL ISZERO DUP1 ISZERO PUSH2 0xD05 JUMPI RETURNDATASIZE PUSH0 DUP1 RETURNDATACOPY RETURNDATASIZE PUSH0 REVERT JUMPDEST POP POP POP POP PUSH1 0x1 SWAP1 POP SWAP5 SWAP4 POP POP POP POP JUMP JUMPDEST PUSH0 DUP2 DUP4 PUSH2 0xD22 SWAP2 SWAP1 PUSH2 0x150D JUMP JUMPDEST SWAP1 POP PUSH0 DUP4 EQ DUP1 PUSH2 0xD3C JUMPI POP DUP2 DUP4 DUP3 PUSH2 0xD3A SWAP2 SWAP1 PUSH2 0x1438 JUMP JUMPDEST EQ JUMPDEST PUSH2 0xD7B JUMPI PUSH1 0x40 MLOAD PUSH32 0x8C379A000000000000000000000000000000000000000000000000000000000 DUP2 MSTORE PUSH1 0x4 ADD PUSH2 0xD72 SWAP1 PUSH2 0x1598 JUMP JUMPDEST PUSH1 0x40 MLOAD DUP1 SWAP2 SUB SWAP1 REVERT JUMPDEST SWAP3 SWAP2 POP POP JUMP JUMPDEST PUSH0 PUSH1 0x5 PUSH0 DUP5 PUSH20 0xFFFFFFFFFFFFFFFFFFFFFFFFFFFFFFFFFFFFFFFF AND PUSH20 0xFFFFFFFFFFFFFFFFFFFFFFFFFFFFFFFFFFFFFFFF AND DUP2 MSTORE PUSH1 0x20 ADD SWAP1 DUP2 MSTORE PUSH1 0x20 ADD PUSH0 KECCAK256 PUSH0 DUP4 PUSH20 0xFFFFFFFFFFFFFFFFFFFFFFFFFFFFFFFFFFFFFFFF AND PUSH20 0xFFFFFFFFFFFFFFFFFFFFFFFFFFFFFFFFFFFFFFFF AND DUP2 MSTORE PUSH1 0x20 ADD SWAP1 DUP2 MSTORE PUSH1 0x20 ADD PUSH0 KECCAK256 SLOAD SWAP1 POP SWAP3 SWAP2 POP POP JUMP JUMPDEST PUSH0 DUP2 DUP4 PUSH2 0xE10 SWAP2 SWAP1 PUSH2 0x15B6 JUMP JUMPDEST SWAP1 POP DUP3 DUP2 LT ISZERO PUSH2 0xE55 JUMPI PUSH1 0x40 MLOAD PUSH32 0x8C379A000000000000000000000000000000000000000000000000000000000 DUP2 MSTORE PUSH1 0x4 ADD PUSH2 0xE4C SWAP1 PUSH2 0x1633 JUMP JUMPDEST PUSH1 0x40 MLOAD DUP1 SWAP2 SUB SWAP1 REVERT JUMPDEST SWAP3 SWAP2 POP POP JUMP JUMPDEST PUSH0 DUP3 DUP3 MSTORE PUSH1 0x20 DUP3 ADD SWAP1 POP SWAP3 SWAP2 POP POP JUMP JUMPDEST PUSH32 0x46616C6C6261636B2066756E6374696F6E2063616C6C65640000000000000000 PUSH0 DUP3 ADD MSTORE POP JUMP JUMPDEST PUSH0 PUSH2 0xE9F PUSH1 0x18 DUP4 PUSH2 0xE5B JUMP JUMPDEST SWAP2 POP PUSH2 0xEAA DUP3 PUSH2 0xE6B JUMP JUMPDEST PUSH1 0x20 DUP3 ADD SWAP1 POP SWAP2 SWAP1 POP JUMP JUMPDEST PUSH0 PUSH1 0x20 DUP3 ADD SWAP1 POP DUP2 DUP2 SUB PUSH0 DUP4 ADD MSTORE PUSH2 0xECC DUP2 PUSH2 0xE93 JUMP JUMPDEST SWAP1 POP SWAP2 SWAP1 POP JUMP JUMPDEST PUSH0 DUP2 MLOAD SWAP1 POP SWAP2 SWAP1 POP JUMP JUMPDEST DUP3 DUP2 DUP4 MCOPY PUSH0 DUP4 DUP4 ADD MSTORE POP POP POP JUMP JUMPDEST PUSH0 PUSH1 0x1F NOT PUSH1 0x1F DUP4 ADD AND SWAP1 POP SWAP2 SWAP1 POP JUMP JUMPDEST PUSH0 PUSH2 0xF05 DUP3 PUSH2 0xED3 JUMP JUMPDEST PUSH2 0xF0F DUP2 DUP6 PUSH2 0xE5B JUMP JUMPDEST SWAP4 POP PUSH2 0xF1F DUP2 DUP6 PUSH1 0x20 DUP7 ADD PUSH2 0xEDD JUMP JUMPDEST PUSH2 0xF28 DUP2 PUSH2 0xEEB JUMP JUMPDEST DUP5 ADD SWAP2 POP POP SWAP3 SWAP2 POP POP JUMP JUMPDEST PUSH0 PUSH1 0x20 DUP3 ADD SWAP1 POP DUP2 DUP2 SUB PUSH0 DUP4 ADD MSTORE PUSH2 0xF4B DUP2 DUP5 PUSH2 0xEFB JUMP JUMPDEST SWAP1 POP SWAP3 SWAP2 POP POP JUMP JUMPDEST PUSH0 DUP1 REVERT JUMPDEST PUSH0 DUP1 REVERT JUMPDEST PUSH0 PUSH20 0xFFFFFFFFFFFFFFFFFFFFFFFFFFFFFFFFFFFFFFFF DUP3 AND SWAP1 POP SWAP2 SWAP1 POP JUMP JUMPDEST PUSH0 PUSH2 0xF84 DUP3 PUSH2 0xF5B JUMP JUMPDEST SWAP1 POP SWAP2 SWAP1 POP JUMP JUMPDEST PUSH2 0xF94 DUP2 PUSH2 0xF7A JUMP JUMPDEST DUP2 EQ PUSH2 0xF9E JUMPI PUSH0 DUP1 REVERT JUMPDEST POP JUMP JUMPDEST PUSH0 DUP2 CALLDATALOAD SWAP1 POP PUSH2 0xFAF DUP2 PUSH2 0xF8B JUMP JUMPDEST SWAP3 SWAP2 POP POP JUMP JUMPDEST PUSH0 DUP2 SWAP1 POP SWAP2 SWAP1 POP JUMP JUMPDEST PUSH2 0xFC7 DUP2 PUSH2 0xFB5 JUMP JUMPDEST DUP2 EQ PUSH2 0xFD1 JUMPI PUSH0 DUP1 REVERT JUMPDEST POP JUMP JUMPDEST PUSH0 DUP2 CALLDATALOAD SWAP1 POP PUSH2 0xFE2 DUP2 PUSH2 0xFBE JUMP JUMPDEST SWAP3 SWAP2 POP POP JUMP JUMPDEST PUSH0 DUP1 PUSH1 0x40 DUP4 DUP6 SUB SLT ISZERO PUSH2 0xFFE JUMPI PUSH2 0xFFD PUSH2 0xF53 JUMP JUMPDEST JUMPDEST PUSH0 PUSH2 0x100B DUP6 DUP3 DUP7 ADD PUSH2 0xFA1 JUMP JUMPDEST SWAP3 POP POP PUSH1 0x20 PUSH2 0x101C DUP6 DUP3 DUP7 ADD PUSH2 0xFD4 JUMP JUMPDEST SWAP2 POP POP SWAP3 POP SWAP3 SWAP1 POP JUMP JUMPDEST PUSH0 DUP2 ISZERO ISZERO SWAP1 POP SWAP2 SWAP1 POP JUMP JUMPDEST PUSH2 0x103A DUP2 PUSH2 0x1026 JUMP JUMPDEST DUP3 MSTORE POP POP JUMP JUMPDEST PUSH0 PUSH1 0x20 DUP3 ADD SWAP1 POP PUSH2 0x1053 PUSH0 DUP4 ADD DUP5 PUSH2 0x1031 JUMP JUMPDEST SWAP3 SWAP2 POP POP JUMP JUMPDEST PUSH2 0x1062 DUP2 PUSH2 0xFB5 JUMP JUMPDEST DUP3 MSTORE POP POP JUMP JUMPDEST PUSH0 PUSH1 0x20 DUP3 ADD SWAP1 POP PUSH2 0x107B PUSH0 DUP4 ADD DUP5 PUSH2 0x1059 JUMP JUMPDEST SWAP3 SWAP2 POP POP JUMP JUMPDEST PUSH0 DUP1 PUSH0 PUSH1 0x60 DUP5 DUP7 SUB SLT ISZERO PUSH2 0x1098 JUMPI PUSH2 0x1097 PUSH2 0xF53 JUMP JUMPDEST JUMPDEST PUSH0 PUSH2 0x10A5 DUP7 DUP3 DUP8 ADD PUSH2 0xFA1 JUMP JUMPDEST SWAP4 POP POP PUSH1 0x20 PUSH2 0x10B6 DUP7 DUP3 DUP8 ADD PUSH2 0xFA1 JUMP JUMPDEST SWAP3 POP POP PUSH1 0x40 PUSH2 0x10C7 DUP7 DUP3 DUP8 ADD PUSH2 0xFD4 JUMP JUMPDEST SWAP2 POP POP SWAP3 POP SWAP3 POP SWAP3 JUMP JUMPDEST PUSH0 PUSH1 0xFF DUP3 AND SWAP1 POP SWAP2 SWAP1 POP JUMP JUMPDEST PUSH2 0x10E6 DUP2 PUSH2 0x10D1 JUMP JUMPDEST DUP3 MSTORE POP POP JUMP JUMPDEST PUSH0 PUSH1 0x20 DUP3 ADD SWAP1 POP PUSH2 0x10FF PUSH0 DUP4 ADD DUP5 PUSH2 0x10DD JUMP JUMPDEST SWAP3 SWAP2 POP POP JUMP JUMPDEST PUSH0 PUSH1 0x20 DUP3 DUP5 SUB SLT ISZERO PUSH2 0x111A JUMPI PUSH2 0x1119 PUSH2 0xF53 JUMP JUMPDEST JUMPDEST PUSH0 PUSH2 0x1127 DUP5 DUP3 DUP6 ADD PUSH2 0xFA1 JUMP JUMPDEST SWAP2 POP POP SWAP3 SWAP2 POP POP JUMP JUMPDEST PUSH0 DUP1 PUSH1 0x40 DUP4 DUP6 SUB SLT ISZERO PUSH2 0x1146 JUMPI PUSH2 0x1145 PUSH2 0xF53 JUMP JUMPDEST JUMPDEST PUSH0 PUSH2 0x1153 DUP6 DUP3 DUP7 ADD PUSH2 0xFD4 JUMP JUMPDEST SWAP3 POP POP PUSH1 0x20 PUSH2 0x1164 DUP6 DUP3 DUP7 ADD PUSH2 0xFD4 JUMP JUMPDEST SWAP2 POP POP SWAP3 POP SWAP3 SWAP1 POP JUMP JUMPDEST PUSH0 DUP1 REVERT JUMPDEST PUSH0 DUP1 REVERT JUMPDEST PUSH0 DUP1 REVERT JUMPDEST PUSH0 DUP1 DUP4 PUSH1 0x1F DUP5 ADD SLT PUSH2 0x118F JUMPI PUSH2 0x118E PUSH2 0x116E JUMP JUMPDEST JUMPDEST DUP3 CALLDATALOAD SWAP1 POP PUSH8 0xFFFFFFFFFFFFFFFF DUP2 GT ISZERO PUSH2 0x11AC JUMPI PUSH2 0x11AB PUSH2 0x1172 JUMP JUMPDEST JUMPDEST PUSH1 0x20 DUP4 ADD SWAP2 POP DUP4 PUSH1 0x1 DUP3 MUL DUP4 ADD GT ISZERO PUSH2 0x11C8 JUMPI PUSH2 0x11C7 PUSH2 0x1176 JUMP JUMPDEST JUMPDEST SWAP3 POP SWAP3 SWAP1 POP JUMP JUMPDEST PUSH0 DUP1 PUSH0 DUP1 PUSH1 0x60 DUP6 DUP8 SUB SLT ISZERO PUSH2 0x11E7 JUMPI PUSH2 0x11E6 PUSH2 0xF53 JUMP JUMPDEST JUMPDEST PUSH0 PUSH2 0x11F4 DUP8 DUP3 DUP9 ADD PUSH2 0xFA1 JUMP JUMPDEST SWAP5 POP POP PUSH1 0x20 PUSH2 0x1205 DUP8 DUP3 DUP9 ADD PUSH2 0xFD4 JUMP JUMPDEST SWAP4 POP POP PUSH1 0x40 DUP6 ADD CALLDATALOAD PUSH8 0xFFFFFFFFFFFFFFFF DUP2 GT ISZERO PUSH2 0x1226 JUMPI PUSH2 0x1225 PUSH2 0xF57 JUMP JUMPDEST JUMPDEST PUSH2 0x1232 DUP8 DUP3 DUP9 ADD PUSH2 0x117A JUMP JUMPDEST SWAP3 POP SWAP3 POP POP SWAP3 SWAP6 SWAP2 SWAP5 POP SWAP3 POP JUMP JUMPDEST PUSH0 DUP1 PUSH1 0x40 DUP4 DUP6 SUB SLT ISZERO PUSH2 0x1256 JUMPI PUSH2 0x1255 PUSH2 0xF53 JUMP JUMPDEST JUMPDEST PUSH0 PUSH2 0x1263 DUP6 DUP3 DUP7 ADD PUSH2 0xFA1 JUMP JUMPDEST SWAP3 POP POP PUSH1 0x20 PUSH2 0x1274 DUP6 DUP3 DUP7 ADD PUSH2 0xFA1 JUMP JUMPDEST SWAP2 POP POP SWAP3 POP SWAP3 SWAP1 POP JUMP JUMPDEST PUSH32 0x4E487B7100000000000000000000000000000000000000000000000000000000 PUSH0 MSTORE PUSH1 0x22 PUSH1 0x4 MSTORE PUSH1 0x24 PUSH0 REVERT JUMPDEST PUSH0 PUSH1 0x2 DUP3 DIV SWAP1 POP PUSH1 0x1 DUP3 AND DUP1 PUSH2 0x12C2 JUMPI PUSH1 0x7F DUP3 AND SWAP2 POP JUMPDEST PUSH1 0x20 DUP3 LT DUP2 SUB PUSH2 0x12D5 JUMPI PUSH2 0x12D4 PUSH2 0x127E JUMP JUMPDEST JUMPDEST POP SWAP2 SWAP1 POP JUMP JUMPDEST PUSH32 0x4E487B7100000000000000000000000000000000000000000000000000000000 PUSH0 MSTORE PUSH1 0x11 PUSH1 0x4 MSTORE PUSH1 0x24 PUSH0 REVERT JUMPDEST PUSH0 PUSH2 0x1312 DUP3 PUSH2 0xFB5 JUMP JUMPDEST SWAP2 POP PUSH2 0x131D DUP4 PUSH2 0xFB5 JUMP JUMPDEST SWAP3 POP DUP3 DUP3 SUB SWAP1 POP DUP2 DUP2 GT ISZERO PUSH2 0x1335 JUMPI PUSH2 0x1334 PUSH2 0x12DB JUMP JUMPDEST JUMPDEST SWAP3 SWAP2 POP POP JUMP JUMPDEST PUSH32 0x5375627472616374696F6E20756E646572666C6F770000000000000000000000 PUSH0 DUP3 ADD MSTORE POP JUMP JUMPDEST PUSH0 PUSH2 0x136F PUSH1 0x15 DUP4 PUSH2 0xE5B JUMP JUMPDEST SWAP2 POP PUSH2 0x137A DUP3 PUSH2 0x133B JUMP JUMPDEST PUSH1 0x20 DUP3 ADD SWAP1 POP SWAP2 SWAP1 POP JUMP JUMPDEST PUSH0 PUSH1 0x20 DUP3 ADD SWAP1 POP DUP2 DUP2 SUB PUSH0 DUP4 ADD MSTORE PUSH2 0x139C DUP2 PUSH2 0x1363 JUMP JUMPDEST SWAP1 POP SWAP2 SWAP1 POP JUMP JUMPDEST PUSH32 0x4469766973696F6E206279207A65726F00000000000000000000000000000000 PUSH0 DUP3 ADD MSTORE POP JUMP JUMPDEST PUSH0 PUSH2 0x13D7 PUSH1 0x10 DUP4 PUSH2 0xE5B JUMP JUMPDEST SWAP2 POP PUSH2 0x13E2 DUP3 PUSH2 0x13A3 JUMP JUMPDEST PUSH1 0x20 DUP3 ADD SWAP1 POP SWAP2 SWAP1 POP JUMP JUMPDEST PUSH0 PUSH1 0x20 DUP3 ADD SWAP1 POP DUP2 DUP2 SUB PUSH0 DUP4 ADD MSTORE PUSH2 0x1404 DUP2 PUSH2 0x13CB JUMP JUMPDEST SWAP1 POP SWAP2 SWAP1 POP JUMP JUMPDEST PUSH32 0x4E487B7100000000000000000000000000000000000000000000000000000000 PUSH0 MSTORE PUSH1 0x12 PUSH1 0x4 MSTORE PUSH1 0x24 PUSH0 REVERT JUMPDEST PUSH0 PUSH2 0x1442 DUP3 PUSH2 0xFB5 JUMP JUMPDEST SWAP2 POP PUSH2 0x144D DUP4 PUSH2 0xFB5 JUMP JUMPDEST SWAP3 POP DUP3 PUSH2 0x145D JUMPI PUSH2 0x145C PUSH2 0x140B JUMP JUMPDEST JUMPDEST DUP3 DUP3 DIV SWAP1 POP SWAP3 SWAP2 POP POP JUMP JUMPDEST PUSH2 0x1471 DUP2 PUSH2 0xF7A JUMP JUMPDEST DUP3 MSTORE POP POP JUMP JUMPDEST PUSH0 DUP3 DUP3 MSTORE PUSH1 0x20 DUP3 ADD SWAP1 POP SWAP3 SWAP2 POP POP JUMP JUMPDEST DUP3 DUP2 DUP4 CALLDATACOPY PUSH0 DUP4 DUP4 ADD MSTORE POP POP POP JUMP JUMPDEST PUSH0 PUSH2 0x14A0 DUP4 DUP6 PUSH2 0x1477 JUMP JUMPDEST SWAP4 POP PUSH2 0x14AD DUP4 DUP6 DUP5 PUSH2 0x1487 JUMP JUMPDEST PUSH2 0x14B6 DUP4 PUSH2 0xEEB JUMP JUMPDEST DUP5 ADD SWAP1 POP SWAP4 SWAP3 POP POP POP JUMP JUMPDEST PUSH0 PUSH1 0x80 DUP3 ADD SWAP1 POP PUSH2 0x14D4 PUSH0 DUP4 ADD DUP9 PUSH2 0x1468 JUMP JUMPDEST PUSH2 0x14E1 PUSH1 0x20 DUP4 ADD DUP8 PUSH2 0x1059 JUMP JUMPDEST PUSH2 0x14EE PUSH1 0x40 DUP4 ADD DUP7 PUSH2 0x1468 JUMP JUMPDEST DUP2 DUP2 SUB PUSH1 0x60 DUP4 ADD MSTORE PUSH2 0x1501 DUP2 DUP5 DUP7 PUSH2 0x1495 JUMP JUMPDEST SWAP1 POP SWAP7 SWAP6 POP POP POP POP POP POP JUMP JUMPDEST PUSH0 PUSH2 0x1517 DUP3 PUSH2 0xFB5 JUMP JUMPDEST SWAP2 POP PUSH2 0x1522 DUP4 PUSH2 0xFB5 JUMP JUMPDEST SWAP3 POP DUP3 DUP3 MUL PUSH2 0x1530 DUP2 PUSH2 0xFB5 JUMP JUMPDEST SWAP2 POP DUP3 DUP3 DIV DUP5 EQ DUP4 ISZERO OR PUSH2 0x1547 JUMPI PUSH2 0x1546 PUSH2 0x12DB JUMP JUMPDEST JUMPDEST POP SWAP3 SWAP2 POP POP JUMP JUMPDEST PUSH32 0x4D756C7469706C69636174696F6E206F766572666C6F77000000000000000000 PUSH0 DUP3 ADD MSTORE POP JUMP JUMPDEST PUSH0 PUSH2 0x1582 PUSH1 0x17 DUP4 PUSH2 0xE5B JUMP JUMPDEST SWAP2 POP PUSH2 0x158D DUP3 PUSH2 0x154E JUMP JUMPDEST PUSH1 0x20 DUP3 ADD SWAP1 POP SWAP2 SWAP1 POP JUMP JUMPDEST PUSH0 PUSH1 0x20 DUP3 ADD SWAP1 POP DUP2 DUP2 SUB PUSH0 DUP4 ADD MSTORE PUSH2 0x15AF DUP2 PUSH2 0x1576 JUMP JUMPDEST SWAP1 POP SWAP2 SWAP1 POP JUMP JUMPDEST PUSH0 PUSH2 0x15C0 DUP3 PUSH2 0xFB5 JUMP JUMPDEST SWAP2 POP PUSH2 0x15CB DUP4 PUSH2 0xFB5 JUMP JUMPDEST SWAP3 POP DUP3 DUP3 ADD SWAP1 POP DUP1 DUP3 GT ISZERO PUSH2 0x15E3 JUMPI PUSH2 0x15E2 PUSH2 0x12DB JUMP JUMPDEST JUMPDEST SWAP3 SWAP2 POP POP JUMP JUMPDEST PUSH32 0x4164646974696F6E206F766572666C6F77000000000000000000000000000000 PUSH0 DUP3 ADD MSTORE POP JUMP JUMPDEST PUSH0 PUSH2 0x161D PUSH1 0x11 DUP4 PUSH2 0xE5B JUMP JUMPDEST SWAP2 POP PUSH2 0x1628 DUP3 PUSH2 0x15E9 JUMP JUMPDEST PUSH1 0x20 DUP3 ADD SWAP1 POP SWAP2 SWAP1 POP JUMP JUMPDEST PUSH0 PUSH1 0x20 DUP3 ADD SWAP1 POP DUP2 DUP2 SUB PUSH0 DUP4 ADD MSTORE PUSH2 0x164A DUP2 PUSH2 0x1611 JUMP JUMPDEST SWAP1 POP SWAP2 SWAP1 POP JUMP INVALID LOG2 PUSH5 0x6970667358 0x22 SLT KECCAK256 PUSH9 0xAC4DE0051B063C2F3C 0x2D MSTORE 0xE1 PUSH17 0xA7BFF700AF03C174F78A952C0510304ADB DUP12 PUSH5 0x736F6C6343 STOP ADDMOD BYTE STOP CALLER "
				},
				"gasEstimates": {
					"creation": {
						"codeDepositCost": "1153400",
						"executionCost": "infinite",
						"totalCost": "infinite"
					},
					"external": {
						"": "468",
						"_totalSupply()": "2492",
						"allowance(address,address)": "infinite",
						"approve(address,uint256)": "infinite",
						"approveAndCall(address,uint256,bytes)": "infinite",
						"balanceOf(address)": "2918",
						"decimals()": "2511",
						"name()": "infinite",
						"safeAdd(uint256,uint256)": "infinite",
						"safeDiv(uint256,uint256)": "infinite",
						"safeMul(uint256,uint256)": "infinite",
						"safeSub(uint256,uint256)": "infinite",
						"symbol()": "infinite",
						"totalSupply()": "infinite",
						"transfer(address,uint256)": "infinite",
						"transferFrom(address,address,uint256)": "infinite"
					}
				},
				"methodIdentifiers": {
					"_totalSupply()": "3eaaf86b",
					"allowance(address,address)": "dd62ed3e",
					"approve(address,uint256)": "095ea7b3",
					"approveAndCall(address,uint256,bytes)": "cae9ca51",
					"balanceOf(address)": "70a08231",
					"decimals()": "313ce567",
					"name()": "06fdde03",
					"safeAdd(uint256,uint256)": "e6cb9013",
					"safeDiv(uint256,uint256)": "b5931f7c",
					"safeMul(uint256,uint256)": "d05c78da",
					"safeSub(uint256,uint256)": "a293d1e8",
					"symbol()": "95d89b41",
					"totalSupply()": "18160ddd",
					"transfer(address,uint256)": "a9059cbb",
					"transferFrom(address,address,uint256)": "23b872dd"
				}
			},
			"storageLayout": {
				"storage": [
					{
						"astId": 185,
						"contract": "contracts/token.sol:CPToken",
						"label": "symbol",
						"offset": 0,
						"slot": "0",
						"type": "t_string_storage"
					},
					{
						"astId": 187,
						"contract": "contracts/token.sol:CPToken",
						"label": "name",
						"offset": 0,
						"slot": "1",
						"type": "t_string_storage"
					},
					{
						"astId": 189,
						"contract": "contracts/token.sol:CPToken",
						"label": "decimals",
						"offset": 0,
						"slot": "2",
						"type": "t_uint8"
					},
					{
						"astId": 191,
						"contract": "contracts/token.sol:CPToken",
						"label": "_totalSupply",
						"offset": 0,
						"slot": "3",
						"type": "t_uint256"
					},
					{
						"astId": 195,
						"contract": "contracts/token.sol:CPToken",
						"label": "balances",
						"offset": 0,
						"slot": "4",
						"type": "t_mapping(t_address,t_uint256)"
					},
					{
						"astId": 201,
						"contract": "contracts/token.sol:CPToken",
						"label": "allowed",
						"offset": 0,
						"slot": "5",
						"type": "t_mapping(t_address,t_mapping(t_address,t_uint256))"
					}
				],
				"types": {
					"t_address": {
						"encoding": "inplace",
						"label": "address",
						"numberOfBytes": "20"
					},
					"t_mapping(t_address,t_mapping(t_address,t_uint256))": {
						"encoding": "mapping",
						"key": "t_address",
						"label": "mapping(address => mapping(address => uint256))",
						"numberOfBytes": "32",
						"value": "t_mapping(t_address,t_uint256)"
					},
					"t_mapping(t_address,t_uint256)": {
						"encoding": "mapping",
						"key": "t_address",
						"label": "mapping(address => uint256)",
						"numberOfBytes": "32",
						"value": "t_uint256"
					},
					"t_string_storage": {
						"encoding": "bytes",
						"label": "string",
						"numberOfBytes": "32"
					},
					"t_uint256": {
						"encoding": "inplace",
						"label": "uint256",
						"numberOfBytes": "32"
					},
					"t_uint8": {
						"encoding": "inplace",
						"label": "uint8",
						"numberOfBytes": "1"
					}
				}
			},
			"userdoc": {
				"kind": "user",
				"methods": {},
				"version": 1
			}
		}
	}
}